{
  "contractName": "ClearLeth",
  "abi": [
    {
      "inputs": [
        {
          "internalType": "uint256",
          "name": "_leaveAmount",
          "type": "uint256"
        }
      ],
      "stateMutability": "nonpayable",
      "type": "constructor"
    },
    {
      "anonymous": false,
      "inputs": [
        {
          "indexed": false,
          "internalType": "address",
          "name": "employee",
          "type": "address"
        },
        {
          "indexed": false,
          "internalType": "uint256",
          "name": "date",
          "type": "uint256"
        }
      ],
      "name": "LeaveApplied",
      "type": "event"
    },
    {
      "anonymous": false,
      "inputs": [
        {
          "indexed": false,
          "internalType": "address",
          "name": "employee",
          "type": "address"
        },
        {
          "indexed": false,
          "internalType": "address",
          "name": "employer",
          "type": "address"
        },
        {
          "indexed": false,
          "internalType": "uint256",
          "name": "leaveId",
          "type": "uint256"
        }
      ],
      "name": "LeaveApproved",
      "type": "event"
    },
    {
      "anonymous": false,
      "inputs": [
        {
          "indexed": false,
          "internalType": "address",
          "name": "employee",
          "type": "address"
        },
        {
          "indexed": false,
          "internalType": "uint256",
          "name": "leaveId",
          "type": "uint256"
        }
      ],
      "name": "LeaveCancelled",
      "type": "event"
    },
    {
      "anonymous": false,
      "inputs": [
        {
          "indexed": false,
          "internalType": "address",
          "name": "employer",
          "type": "address"
        },
        {
          "indexed": false,
          "internalType": "uint256",
          "name": "limit",
          "type": "uint256"
        }
      ],
      "name": "LeaveLimitSet",
      "type": "event"
    },
    {
      "anonymous": false,
      "inputs": [
        {
          "indexed": false,
          "internalType": "address",
          "name": "employee",
          "type": "address"
        },
        {
          "indexed": false,
          "internalType": "address",
          "name": "employer",
          "type": "address"
        },
        {
          "indexed": false,
          "internalType": "uint256",
          "name": "leaveId",
          "type": "uint256"
        }
      ],
      "name": "LeaveRejected",
      "type": "event"
    },
    {
      "inputs": [],
      "name": "contractOwner",
      "outputs": [
        {
          "internalType": "address",
          "name": "",
          "type": "address"
        }
      ],
      "stateMutability": "view",
      "type": "function",
      "constant": true
    },
    {
      "inputs": [],
      "name": "leaveAmount",
      "outputs": [
        {
          "internalType": "uint256",
          "name": "",
          "type": "uint256"
        }
      ],
      "stateMutability": "view",
      "type": "function",
      "constant": true
    },
    {
      "inputs": [],
      "name": "numLeaves",
      "outputs": [
        {
          "internalType": "uint256",
          "name": "",
          "type": "uint256"
        }
      ],
      "stateMutability": "view",
      "type": "function",
      "constant": true
    },
    {
      "inputs": [],
      "name": "numOfAuthorities",
      "outputs": [
        {
          "internalType": "uint256",
          "name": "",
          "type": "uint256"
        }
      ],
      "stateMutability": "view",
      "type": "function",
      "constant": true
    },
    {
      "inputs": [],
      "name": "numOfEmployees",
      "outputs": [
        {
          "internalType": "uint256",
          "name": "",
          "type": "uint256"
        }
      ],
      "stateMutability": "view",
      "type": "function",
      "constant": true
    },
    {
      "inputs": [],
      "name": "numOfEmployers",
      "outputs": [
        {
          "internalType": "uint256",
          "name": "",
          "type": "uint256"
        }
      ],
      "stateMutability": "view",
      "type": "function",
      "constant": true
    },
    {
      "inputs": [
        {
          "internalType": "address",
          "name": "_employerAddress",
          "type": "address"
        }
      ],
      "name": "addEmployer",
      "outputs": [],
      "stateMutability": "nonpayable",
      "type": "function"
    },
    {
      "inputs": [
        {
          "internalType": "address",
          "name": "_employeeAddress",
          "type": "address"
        }
      ],
      "name": "addEmployee",
      "outputs": [],
      "stateMutability": "nonpayable",
      "type": "function"
    },
    {
      "inputs": [
        {
          "internalType": "address",
          "name": "_authorityAddress",
          "type": "address"
        }
      ],
      "name": "addAuthority",
      "outputs": [],
      "stateMutability": "nonpayable",
      "type": "function"
    },
    {
      "inputs": [
        {
          "internalType": "address",
          "name": "_employeeAddress",
          "type": "address"
        }
      ],
      "name": "removeEmployee",
      "outputs": [],
      "stateMutability": "nonpayable",
      "type": "function"
    },
    {
      "inputs": [
        {
          "internalType": "address",
          "name": "_employerAddress",
          "type": "address"
        }
      ],
      "name": "getEmployeesByEmployer",
      "outputs": [
        {
          "internalType": "address[]",
          "name": "",
          "type": "address[]"
        }
      ],
      "stateMutability": "view",
      "type": "function",
      "constant": true
    },
    {
      "inputs": [],
      "name": "getAllEmployees",
      "outputs": [
        {
          "internalType": "address[]",
          "name": "",
          "type": "address[]"
        }
      ],
      "stateMutability": "view",
      "type": "function",
      "constant": true
    },
    {
      "inputs": [],
      "name": "getAllEmployers",
      "outputs": [
        {
          "internalType": "address[]",
          "name": "",
          "type": "address[]"
        }
      ],
      "stateMutability": "view",
      "type": "function",
      "constant": true
    },
    {
      "inputs": [],
      "name": "getAllAuthorities",
      "outputs": [
        {
          "internalType": "address[]",
          "name": "",
          "type": "address[]"
        }
      ],
      "stateMutability": "view",
      "type": "function",
      "constant": true
    },
    {
      "inputs": [
        {
          "internalType": "uint256",
          "name": "date",
          "type": "uint256"
        },
        {
          "internalType": "bytes32",
          "name": "reason",
          "type": "bytes32"
        }
      ],
      "name": "applyLeave",
      "outputs": [],
      "stateMutability": "nonpayable",
      "type": "function"
    },
    {
      "inputs": [
        {
          "components": [
            {
              "internalType": "uint256",
              "name": "id",
              "type": "uint256"
            },
            {
              "internalType": "uint256",
              "name": "date",
              "type": "uint256"
            },
            {
              "internalType": "bytes32",
              "name": "reason",
              "type": "bytes32"
            },
            {
              "internalType": "enum ClearLeth.leaveStatus",
              "name": "status",
              "type": "uint8"
            },
            {
              "internalType": "address",
              "name": "employee",
              "type": "address"
            }
          ],
          "internalType": "struct ClearLeth.leave",
          "name": "_leave",
          "type": "tuple"
        }
      ],
      "name": "cancelLeave",
      "outputs": [],
      "stateMutability": "nonpayable",
      "type": "function"
    },
    {
      "inputs": [
        {
          "components": [
            {
              "internalType": "uint256",
              "name": "id",
              "type": "uint256"
            },
            {
              "internalType": "uint256",
              "name": "date",
              "type": "uint256"
            },
            {
              "internalType": "bytes32",
              "name": "reason",
              "type": "bytes32"
            },
            {
              "internalType": "enum ClearLeth.leaveStatus",
              "name": "status",
              "type": "uint8"
            },
            {
              "internalType": "address",
              "name": "employee",
              "type": "address"
            }
          ],
          "internalType": "struct ClearLeth.leave",
          "name": "leaveToApprove",
          "type": "tuple"
        }
      ],
      "name": "approveLeave",
      "outputs": [],
      "stateMutability": "nonpayable",
      "type": "function"
    },
    {
      "inputs": [
        {
          "components": [
            {
              "internalType": "uint256",
              "name": "id",
              "type": "uint256"
            },
            {
              "internalType": "uint256",
              "name": "date",
              "type": "uint256"
            },
            {
              "internalType": "bytes32",
              "name": "reason",
              "type": "bytes32"
            },
            {
              "internalType": "enum ClearLeth.leaveStatus",
              "name": "status",
              "type": "uint8"
            },
            {
              "internalType": "address",
              "name": "employee",
              "type": "address"
            }
          ],
          "internalType": "struct ClearLeth.leave",
          "name": "leaveToReject",
          "type": "tuple"
        }
      ],
      "name": "rejectLeave",
      "outputs": [],
      "stateMutability": "nonpayable",
      "type": "function"
    },
    {
      "inputs": [],
      "name": "getLeaveBalance",
      "outputs": [
        {
          "internalType": "uint256",
          "name": "",
          "type": "uint256"
        }
      ],
      "stateMutability": "view",
      "type": "function",
      "constant": true
    },
    {
      "inputs": [
        {
          "internalType": "uint256",
          "name": "leaveId",
          "type": "uint256"
        }
      ],
      "name": "getLeaveInformation",
      "outputs": [
        {
          "components": [
            {
              "internalType": "uint256",
              "name": "id",
              "type": "uint256"
            },
            {
              "internalType": "uint256",
              "name": "date",
              "type": "uint256"
            },
            {
              "internalType": "bytes32",
              "name": "reason",
              "type": "bytes32"
            },
            {
              "internalType": "enum ClearLeth.leaveStatus",
              "name": "status",
              "type": "uint8"
            },
            {
              "internalType": "address",
              "name": "employee",
              "type": "address"
            }
          ],
          "internalType": "struct ClearLeth.leave",
          "name": "",
          "type": "tuple"
        }
      ],
      "stateMutability": "view",
      "type": "function",
      "constant": true
    },
    {
      "inputs": [
        {
          "internalType": "address",
          "name": "employeeAddress",
          "type": "address"
        }
      ],
      "name": "getLeaveApplications",
      "outputs": [
        {
          "components": [
            {
              "internalType": "uint256",
              "name": "id",
              "type": "uint256"
            },
            {
              "internalType": "uint256",
              "name": "date",
              "type": "uint256"
            },
            {
              "internalType": "bytes32",
              "name": "reason",
              "type": "bytes32"
            },
            {
              "internalType": "enum ClearLeth.leaveStatus",
              "name": "status",
              "type": "uint8"
            },
            {
              "internalType": "address",
              "name": "employee",
              "type": "address"
            }
          ],
          "internalType": "struct ClearLeth.leave[]",
          "name": "",
          "type": "tuple[]"
        }
      ],
      "stateMutability": "view",
      "type": "function",
      "constant": true
    },
    {
      "inputs": [
        {
          "internalType": "address",
          "name": "employerAddress",
          "type": "address"
        },
        {
          "internalType": "uint256",
          "name": "limit",
          "type": "uint256"
        }
      ],
      "name": "setLeaveLimit",
      "outputs": [],
      "stateMutability": "nonpayable",
      "type": "function"
    }
  ],
  "bytecode": "0x60806040526000600755600060085560006009556000600b5534801561002457600080fd5b5060405162001d5138038062001d51833981016040819052610045916100c5565b60008054336001600160a01b0319918216811783556001805480820182559084527fb10e2d527612073b26eecdfd717e6a320cf44b4afac2b0732d9fcbe2b7fa0cf6018054909216179055600880549161009e836100de565b9091555050336000908152600460205260409020805460ff19166001179055600a55610107565b6000602082840312156100d757600080fd5b5051919050565b600060001982141561010057634e487b7160e01b600052601160045260246000fd5b5060010190565b611c3a80620001176000396000f3fe608060405234801561001057600080fd5b50600436106101425760003560e01c8063839f48e8116100b8578063d108177a1161007c578063d108177a1461029c578063d1ef4f63146102af578063dda89a6e146102c4578063e3366fed146102cd578063f3cb8c31146102d5578063fedf2c56146102e857600080fd5b8063839f48e81461022c578063b8e8ac5414610235578063bcdd889114610248578063ce606ee014610268578063d023d10f1461029357600080fd5b806360c38dff1161010a57806360c38dff146101c05780636216f27a146101d3578063687d9b93146101ea57806368b54919146101fd5780636e82ac57146102105780637675c14c1461022357600080fd5b806314c671d61461014757806326defa73146101655780633039f6081461017a5780635dc2e7311461018d57806360bf0867146101a0575b600080fd5b61014f6102f0565b60405161015c919061185a565b60405180910390f35b6101786101733660046118c3565b6103bb565b005b6101786101883660046118fb565b6104aa565b61017861019b36600461198a565b61073a565b6101b36101ae3660046118c3565b6109f8565b60405161015c9190611a16565b6101786101ce3660046118fb565b610ade565b6101dc60075481565b60405190815260200161015c565b61014f6101f83660046118c3565b610c8b565b61017861020b3660046118c3565b610d01565b61017861021e366004611a58565b610db3565b6101dc600a5481565b6101dc60085481565b6101786102433660046118fb565b610df9565b61025b610256366004611a82565b6110cc565b60405161015c9190611a9b565b60005461027b906001600160a01b031681565b6040516001600160a01b03909116815260200161015c565b6101dc60095481565b6101786102aa3660046118c3565b61121e565b336000908152600e60205260409020546101dc565b6101dc600b5481565b61014f61151f565b6101786102e33660046118c3565b6115e4565b61014f611739565b6060600060085467ffffffffffffffff81111561030f5761030f6118e5565b604051908082528060200260200182016040528015610338578160200160208202803683370190505b50905060005b6008548110156103b5576001818154811061035b5761035b611aaf565b9060005260206000200160009054906101000a90046001600160a01b031682828151811061038b5761038b611aaf565b6001600160a01b0390921660209283029190910190910152806103ad81611adb565b91505061033e565b50919050565b6000546001600160a01b031633146104315760405162461bcd60e51b815260206004820152602e60248201527f4f6e6c792074686520636f6e7472616374206f776e65722063616e2063616c6c60448201526d103a3434b990333ab731ba34b7b760911b60648201526084015b60405180910390fd5b60038054600181019091557fc2575a0e9e593c00f959f8c92f12db2869c3395a3b0502d05e2516446f71f85b0180546001600160a01b0383166001600160a01b031990911681179091556000908152600460205260408120805460ff1916600217905560098054916104a283611adb565b919050555050565b8051600b5481106104f25760405162461bcd60e51b8152602060048201526012602482015271139bdd0815985b1a59081319585d9948125960721b6044820152606401610428565b8160008160600151600381111561050b5761050b6119ac565b146105285760405162461bcd60e51b815260040161042890611af6565b60808301516001600160a01b038082166000908152600560205260409020541633146105665760405162461bcd60e51b815260040161042890611b24565b608084015160005b6001600160a01b0382166000908152600d602052604090205481101561064a5785516001600160a01b0383166000908152600d602052604090208054839081106105ba576105ba611aaf565b9060005260206000209060040201600001541415610638576001600160a01b0382166000908152600d602052604090208054600391908390811061060057610600611aaf565b906000526020600020906004020160030160006101000a81548160ff02191690836003811115610632576106326119ac565b02179055505b8061064281611adb565b91505061056e565b5060005b600c548110156106e5578551600c80548390811061066e5761066e611aaf565b90600052602060002090600402016000015414156106d3576003600c828154811061069b5761069b611aaf565b906000526020600020906004020160030160006101000a81548160ff021916908360038111156106cd576106cd6119ac565b02179055505b806106dd81611adb565b91505061064e565b508451604080516001600160a01b0384168152336020820152908101919091527fcfedd8a6cf86a82ac7dd3f04b1e86f248df069f9f15810bf8a52dabc8c7a25af906060015b60405180910390a15050505050565b3360009081526004602052604081205460ff16600281111561075e5761075e6119ac565b146107b95760405162461bcd60e51b815260206004820152602560248201527f4f6e6c7920656d706c6f796565732063616e2063616c6c20746869732066756e60448201526431ba34b7b760d91b6064820152608401610428565b60006040518060a00160405280600b548152602001848152602001838152602001600060038111156107ed576107ed6119ac565b815233602090910152600b8054919250600061080883611adb565b9091555050336000908152600d6020908152604080832080546001818101835591855293839020855160049095020193845591840151838301558301516002830155606083015160038084018054869594919260ff1990911691908490811115610874576108746119ac565b021790555060809190910151600391820180546001600160a01b0390921661010002610100600160a81b0319909216919091179055600c805460018181018355600092909252835160049091027fdf6966c971051c3d54ec59162606531493a51404a002842f56009d7e5cf4a8c7810191825560208501517fdf6966c971051c3d54ec59162606531493a51404a002842f56009d7e5cf4a8c882015560408501517fdf6966c971051c3d54ec59162606531493a51404a002842f56009d7e5cf4a8c982015560608501517fdf6966c971051c3d54ec59162606531493a51404a002842f56009d7e5cf4a8ca9091018054869593949293919260ff19909116918490811115610984576109846119ac565b021790555060809190910151600390910180546001600160a01b0390921661010002610100600160a81b031990921691909117905560408051338152602081018590527f5b1c7e0d74c949689e7dda74fc61f454bbf5895102bb71b95a7af806102cf0cb91015b60405180910390a1505050565b6001600160a01b0381166000908152600d60209081526040808320805482518185028101850190935280835260609492939192909184015b82821015610ad357838290600052602060002090600402016040518060a00160405290816000820154815260200160018201548152602001600282015481526020016003820160009054906101000a900460ff166003811115610a9557610a956119ac565b6003811115610aa657610aa66119ac565b81526003919091015461010090046001600160a01b03166020918201529082526001929092019101610a30565b505050509050919050565b80600081606001516003811115610af757610af76119ac565b14610b145760405162461bcd60e51b815260040161042890611af6565b608082015182906001600160a01b03163314610b8d5760405162461bcd60e51b815260206004820152603260248201527f4f6e6c7920656d706c6f796565206f662074686973206c656176652063616e2060448201527131b0b636103a3434b990333ab731ba34b7b760711b6064820152608401610428565b60005b336000908152600d6020526040902054811015610c51578351336000908152600d60205260409020805483908110610bca57610bca611aaf565b9060005260206000209060040201600001541415610c3f57336000908152600d6020526040902080546001919083908110610c0757610c07611aaf565b906000526020600020906004020160030160006101000a81548160ff02191690836003811115610c3957610c396119ac565b02179055505b80610c4981611adb565b915050610b90565b5082516040805133815260208101929092527fb7ebc98aeb0d019f1d38bdecf34a056aa9be46ff8aed7cf80b640ff0073d6ac791016109eb565b6001600160a01b038116600090815260066020908152604091829020805483518184028101840190945280845260609392830182828015610cf557602002820191906000526020600020905b81546001600160a01b03168152600190910190602001808311610cd7575b50505050509050919050565b60013360009081526004602052604090205460ff166002811115610d2757610d276119ac565b14610d445760405162461bcd60e51b815260040161042890611b79565b6001805480820182557fb10e2d527612073b26eecdfd717e6a320cf44b4afac2b0732d9fcbe2b7fa0cf60180546001600160a01b0319166001600160a01b0384169081179091556000908152600460205260408120805460ff191690921790915560088054916104a283611adb565b604080516001600160a01b0384168152602081018390527fc687ccbce0cc89ceb74a46d6867e5268d2bb596e3b2b08bf139879cfa6f14bdd910160405180910390a15050565b8051600b548110610e415760405162461bcd60e51b8152602060048201526012602482015271139bdd0815985b1a59081319585d9948125960721b6044820152606401610428565b81600081606001516003811115610e5a57610e5a6119ac565b14610e775760405162461bcd60e51b815260040161042890611af6565b60808301516001600160a01b03808216600090815260056020526040902054163314610eb55760405162461bcd60e51b815260040161042890611b24565b608084015160005b6001600160a01b0382166000908152600d6020526040902054811015610f995785516001600160a01b0383166000908152600d60205260409020805483908110610f0957610f09611aaf565b9060005260206000209060040201600001541415610f87576001600160a01b0382166000908152600d6020526040902080546002919083908110610f4f57610f4f611aaf565b906000526020600020906004020160030160006101000a81548160ff02191690836003811115610f8157610f816119ac565b02179055505b80610f9181611adb565b915050610ebd565b5060005b600c54811015611034578551600c805483908110610fbd57610fbd611aaf565b9060005260206000209060040201600001541415611022576002600c8281548110610fea57610fea611aaf565b906000526020600020906004020160030160006101000a81548160ff0219169083600381111561101c5761101c6119ac565b02179055505b8061102c81611adb565b915050610f9d565b506020808601516000908152600f9091526040812080549161105583611adb565b90915550506001600160a01b0381166000908152600e6020526040812080549161107e83611bc0565b90915550508451604080516001600160a01b0384168152336020820152908101919091527fd77ba574eae3c58a23e6b228fae2d5390d3c715492024b607e5626321c5cc8ff9060600161072b565b6040805160a0810182526000808252602082018190529181018290526060810182905260808101829052905b600c548110156111e35782600c828154811061111657611116611aaf565b90600052602060002090600402016000015414156111d157600c818154811061114157611141611aaf565b90600052602060002090600402016040518060a00160405290816000820154815260200160018201548152602001600282015481526020016003820160009054906101000a900460ff16600381111561119c5761119c6119ac565b60038111156111ad576111ad6119ac565b81526003919091015461010090046001600160a01b03166020909101529392505050565b806111db81611adb565b9150506110f8565b5060405162461bcd60e51b815260206004820152600f60248201526e1319585d99481b9bdd08199bdd5b99608a1b6044820152606401610428565b6001600160a01b0380821660009081526005602052604090205482911633146112595760405162461bcd60e51b815260040161042890611b24565b60005b60025481101561135e57826001600160a01b03166002828154811061128357611283611aaf565b6000918252602090912001546001600160a01b0316141561134c57600280546112ae90600190611bd7565b815481106112be576112be611aaf565b600091825260209091200154600280546001600160a01b0390921691839081106112ea576112ea611aaf565b9060005260206000200160006101000a8154816001600160a01b0302191690836001600160a01b03160217905550600280548061132957611329611bee565b600082815260209020810160001990810180546001600160a01b03191690550190555b8061135681611adb565b91505061125c565b5060005b336000908152600660205260409020548110156114a45733600090815260066020526040902080546001600160a01b0385169190839081106113a6576113a6611aaf565b6000918252602090912001546001600160a01b031614156114925733600090815260066020526040902080546113de90600190611bd7565b815481106113ee576113ee611aaf565b60009182526020808320909101543383526006909152604090912080546001600160a01b03909216918390811061142757611427611aaf565b600091825260208083209190910180546001600160a01b0319166001600160a01b03949094169390931790925533815260069091526040902080548061146f5761146f611bee565b600082815260209020810160001990810180546001600160a01b03191690550190555b8061149c81611adb565b915050611362565b506001600160a01b0382166000908152600460209081526040808320805460ff191690556005825280832080546001600160a01b0319169055600d90915281206114ed916117fe565b6001600160a01b0382166000908152600e60205260408120819055600780549161151683611bc0565b91905055505050565b6060600060075467ffffffffffffffff81111561153e5761153e6118e5565b604051908082528060200260200182016040528015611567578160200160208202803683370190505b50905060005b6007548110156103b5576002818154811061158a5761158a611aaf565b9060005260206000200160009054906101000a90046001600160a01b03168282815181106115ba576115ba611aaf565b6001600160a01b0390921660209283029190910190910152806115dc81611adb565b91505061156d565b60013360009081526004602052604090205460ff16600281111561160a5761160a6119ac565b146116275760405162461bcd60e51b815260040161042890611b79565b806001600160a01b0381163314156116815760405162461bcd60e51b815260206004820152601860248201527f596f752063616e6e6f742061646420796f757273656c662100000000000000006044820152606401610428565b6002805460018082019092557f405787fa12a823e0f2b7631cc41b3ba8828b3321ca811111fa75cd3aa3bb5ace0180546001600160a01b0385166001600160a01b031991821681179092556000828152600460209081526040808320805460ff1916905533808452600683528184208054978801815584528284209096018054851686179055938252600581528382208054909316909417909155600a54600e90935290812091909155600780549161151683611adb565b6060600060095467ffffffffffffffff811115611758576117586118e5565b604051908082528060200260200182016040528015611781578160200160208202803683370190505b50905060005b6009548110156103b557600381815481106117a4576117a4611aaf565b9060005260206000200160009054906101000a90046001600160a01b03168282815181106117d4576117d4611aaf565b6001600160a01b0390921660209283029190910190910152806117f681611adb565b915050611787565b508054600082556004029060005260206000209081019061181f9190611822565b50565b5b808211156118565760008082556001820181905560028201556003810180546001600160a81b0319169055600401611823565b5090565b6020808252825182820181905260009190848201906040850190845b8181101561189b5783516001600160a01b031683529284019291840191600101611876565b50909695505050505050565b80356001600160a01b03811681146118be57600080fd5b919050565b6000602082840312156118d557600080fd5b6118de826118a7565b9392505050565b634e487b7160e01b600052604160045260246000fd5b600060a0828403121561190d57600080fd5b60405160a0810181811067ffffffffffffffff8211171561193e57634e487b7160e01b600052604160045260246000fd5b806040525082358152602083013560208201526040830135604082015260608301356004811061196d57600080fd5b606082015261197e608084016118a7565b60808201529392505050565b6000806040838503121561199d57600080fd5b50508035926020909101359150565b634e487b7160e01b600052602160045260246000fd5b8051825260208101516020830152604081015160408301526060810151600481106119fd57634e487b7160e01b600052602160045260246000fd5b60608301526080908101516001600160a01b0316910152565b6020808252825182820181905260009190848201906040850190845b8181101561189b57611a458385516119c2565b9284019260a09290920191600101611a32565b60008060408385031215611a6b57600080fd5b611a74836118a7565b946020939093013593505050565b600060208284031215611a9457600080fd5b5035919050565b60a08101611aa982846119c2565b92915050565b634e487b7160e01b600052603260045260246000fd5b634e487b7160e01b600052601160045260246000fd5b6000600019821415611aef57611aef611ac5565b5060010190565b6020808252601490820152734c65617665206973206e6f742070656e64696e6760601b604082015260600190565b60208082526035908201527f4f6e6c7920656d706c6f796572206f66207468697320656d706c6f796565206360408201527430b71031b0b636103a3434b990333ab731ba34b7b760591b606082015260800190565b60208082526027908201527f4f6e6c7920616e20656d706c6f7965722063616e2063616c6c207468697320666040820152663ab731ba34b7b760c91b606082015260800190565b600081611bcf57611bcf611ac5565b506000190190565b600082821015611be957611be9611ac5565b500390565b634e487b7160e01b600052603160045260246000fdfea26469706673582212207b1ca145ed5f238fb3f7878f5a6b2af344e5c9ce4ea438c7958a32e81b6b0a9f64736f6c634300080b0033",
  "immutableReferences": {},
  "source": "// SPDX-License-Identifier: MIT\npragma solidity >=0.4.22 <0.9.0;\n\ncontract ClearLeth {\n    address public contractOwner;\n\n    address[] employers;\n    address[] employees;\n    address[] authorities;\n\n    mapping(address => role) addressToRole;\n\n    mapping(address => address) employeeToEmployer;\n    mapping(address => address[]) employerToEmployee;\n\n    uint256 public numOfEmployees = 0;\n    uint256 public numOfEmployers = 0;\n    uint256 public numOfAuthorities = 0;\n\n    enum role {\n        employee,\n        employer,\n        authority\n    }\n\n    enum leaveStatus {\n        pending,\n        cancelled,\n        approved,\n        rejected\n    }\n\n    struct leave {\n        uint256 id;\n        uint256 date; // UNIX\n        bytes32 reason;\n        leaveStatus status;\n        address employee;\n    }\n\n    uint256 public leaveAmount;\n    uint256 public numLeaves = 0;\n    leave[] allLeaves;\n\n    mapping(address => leave[]) employeeToLeaves;\n    mapping(address => uint256) employeeLeaveBalance;\n    mapping(uint256 => uint256) datesToEmployeesApplied;\n    mapping(address => uint256) employersToLeaveLimit;\n\n    event LeaveApplied(address employee, uint256 date);\n    event LeaveApproved(address employee, address employer, uint256 leaveId);\n    event LeaveCancelled(address employee, uint256 leaveId);\n    event LeaveRejected(address employee, address employer, uint256 leaveId);\n    event LeaveLimitSet(address employer, uint256 limit);\n\n    // @dev Owner of contract will be able to add employers and is an employer\n    // @dev leaveAmount is also set when deployed\n    constructor(uint256 _leaveAmount) {\n        contractOwner = msg.sender;\n        employers.push(msg.sender);\n        numOfEmployers++;\n        addressToRole[msg.sender] = role.employer;\n        leaveAmount = _leaveAmount;\n    }\n\n    modifier employerOnly(address employeeAddress) {\n        require(\n            employeeToEmployer[employeeAddress] == msg.sender,\n            \"Only employer of this employee can call this function\"\n        );\n        _;\n    }\n\n    modifier notSelf(address toAdd) {\n        require(\n            toAdd != msg.sender,\n            \"You cannot add yourself!\"\n        );\n        _;\n    }\n\n    modifier isOwner() {\n        require(\n            contractOwner == msg.sender,\n            \"Only the contract owner can call this function\"\n        );\n        _;\n    }\n\n    modifier isEmployer() {\n        require(\n            addressToRole[msg.sender] == role.employer,\n            \"Only an employer can call this function\"\n        );\n        _;\n    }\n\n    modifier isEmployee() {\n        require(\n            addressToRole[msg.sender] == role.employee,\n            \"Only employees can call this function\"\n        );\n        _;\n    }\n\n    modifier isAuthority() {\n        require(\n            addressToRole[msg.sender] == role.authority,\n            \"Only authorities can call this function\"\n        );\n        _;\n    }\n\n    modifier validLeaveId(uint256 leaveId) {\n        require(leaveId < numLeaves, \"Not Valid Leave Id\");\n        _;\n    }\n\n    modifier validLeaveStatus(leave memory leaveApplication) {\n        require(\n            leaveApplication.status == leaveStatus.pending,\n            \"Leave is not pending\"\n        );\n        _;\n    }\n\n    modifier isEmployeeOfLeave(leave memory _leave) {\n        require(\n            _leave.employee == msg.sender,\n            \"Only employee of this leave can call this function\"\n        );\n        _;\n    }\n\n    function addEmployer(address _employerAddress) public isEmployer {\n        employers.push(_employerAddress);\n        addressToRole[_employerAddress] = role.employer;\n        numOfEmployers++;\n    }\n\n    function addEmployee(address _employeeAddress) public isEmployer notSelf(_employeeAddress) {\n        employees.push(_employeeAddress);\n        addressToRole[_employeeAddress] = role.employee;\n        employerToEmployee[msg.sender].push(_employeeAddress);\n        employeeToEmployer[_employeeAddress] = msg.sender;\n        employeeLeaveBalance[_employeeAddress] = leaveAmount;\n        numOfEmployees++;\n    }\n\n    function addAuthority(address _authorityAddress) public isOwner {\n        authorities.push(_authorityAddress);\n        addressToRole[_authorityAddress] = role.authority;\n        numOfAuthorities++;\n    }\n\n    // @dev would be better if we just update mapping employees to false\n    // then when we do getEmployees if wont appear\n    function removeEmployee(address _employeeAddress)\n        public\n        employerOnly(_employeeAddress)\n    {\n        for (uint256 i = 0; i < employees.length; i++) {\n            if (employees[i] == _employeeAddress) {\n                employees[i] = employees[employees.length - 1];\n                employees.pop();\n            }\n        }\n\n        for (uint256 j = 0; j < employerToEmployee[msg.sender].length; j++) {\n            if (employerToEmployee[msg.sender][j] == _employeeAddress) {\n                employerToEmployee[msg.sender][j] = employerToEmployee[\n                    msg.sender\n                ][employerToEmployee[msg.sender].length - 1];\n                employerToEmployee[msg.sender].pop();\n            }\n        }\n\n        delete addressToRole[_employeeAddress];\n        delete employeeToEmployer[_employeeAddress];\n        delete employeeToLeaves[_employeeAddress];\n        delete employeeLeaveBalance[_employeeAddress];\n        numOfEmployees--;\n    }\n\n    function getEmployeesByEmployer(address _employerAddress)\n        public\n        view\n        returns (address[] memory)\n    {\n        return employerToEmployee[_employerAddress];\n    }\n\n    // @dev transfer complexity to view function no gas\n    function getAllEmployees() public view returns (address[] memory) {\n        address[] memory employeeArray = new address[](numOfEmployees);\n        for (uint256 i = 0; i < numOfEmployees; i++) {\n            employeeArray[i] = employees[i];\n        }\n\n        return employeeArray;\n    }\n\n    // @dev transfer complexity to view function no gas\n    function getAllEmployers() public view returns (address[] memory) {\n        address[] memory employerArray = new address[](numOfEmployers);\n        for (uint256 i = 0; i < numOfEmployers; i++) {\n            employerArray[i] = employers[i];\n        }\n\n        return employerArray;\n    }\n\n    // @dev transfer complexity to view function no gas\n    function getAllAuthorities() public view returns (address[] memory) {\n        address[] memory authoritiesArray = new address[](numOfAuthorities);\n        for (uint256 i = 0; i < numOfAuthorities; i++) {\n            authoritiesArray[i] = authorities[i];\n        }\n        return authoritiesArray;\n    }\n\n    function applyLeave(uint256 date, bytes32 reason) public isEmployee {\n        leave memory newLeave = leave(\n            numLeaves,\n            date,\n            reason,\n            leaveStatus.pending,\n            msg.sender\n        );\n\n        numLeaves++;\n        employeeToLeaves[msg.sender].push(newLeave);\n        allLeaves.push(newLeave);\n        emit LeaveApplied(msg.sender, date);\n    }\n\n    function cancelLeave(leave memory _leave)\n        public\n        validLeaveStatus(_leave)\n        isEmployeeOfLeave(_leave)\n    {\n        for (uint256 i = 0; i < employeeToLeaves[msg.sender].length; i++) {\n            if (employeeToLeaves[msg.sender][i].id == _leave.id) {\n                employeeToLeaves[msg.sender][i].status = leaveStatus.cancelled;\n            }\n        }\n        emit LeaveCancelled(msg.sender, _leave.id);\n    }\n\n    function approveLeave(leave memory leaveToApprove)\n        public\n        validLeaveId(leaveToApprove.id)\n        validLeaveStatus(leaveToApprove)\n        employerOnly(leaveToApprove.employee)\n    {\n        address employeeAddress = leaveToApprove.employee;\n        for (uint256 i = 0; i < employeeToLeaves[employeeAddress].length; i++) {\n            if (employeeToLeaves[employeeAddress][i].id == leaveToApprove.id) {\n                employeeToLeaves[employeeAddress][i].status = leaveStatus\n                    .approved;\n            }\n        }\n\n        for (uint256 j = 0; j < allLeaves.length; j++) {\n            if (allLeaves[j].id == leaveToApprove.id) {\n                allLeaves[j].status = leaveStatus.approved;\n            }\n        }\n\n        datesToEmployeesApplied[leaveToApprove.date]++;\n        employeeLeaveBalance[employeeAddress]--;\n        emit LeaveApproved(employeeAddress, msg.sender, leaveToApprove.id);\n    }\n\n    function rejectLeave(leave memory leaveToReject)\n        public\n        validLeaveId(leaveToReject.id)\n        validLeaveStatus(leaveToReject)\n        employerOnly(leaveToReject.employee)\n    {\n        address employeeAddress = leaveToReject.employee;\n        for (uint256 i = 0; i < employeeToLeaves[employeeAddress].length; i++) {\n            if (employeeToLeaves[employeeAddress][i].id == leaveToReject.id) {\n                employeeToLeaves[employeeAddress][i].status = leaveStatus\n                    .rejected;\n            }\n        }\n\n        for (uint256 j = 0; j < allLeaves.length; j++) {\n            if (allLeaves[j].id == leaveToReject.id) {\n                allLeaves[j].status = leaveStatus.rejected;\n            }\n        }\n        emit LeaveRejected(employeeAddress, msg.sender, leaveToReject.id);\n    }\n\n    function getLeaveBalance() public view returns (uint256) {\n        return employeeLeaveBalance[msg.sender];\n    }\n\n    function getLeaveInformation(uint256 leaveId)\n        public\n        view\n        returns (leave memory)\n    {\n        for (uint256 i = 0; i < allLeaves.length; i++) {\n            if (allLeaves[i].id == leaveId) {\n                return allLeaves[i];\n            }\n        }\n        revert(\"Leave not found\");\n    }\n\n    function getLeaveApplications(address employeeAddress)\n        public\n        view\n        returns (leave[] memory)\n    {\n        return employeeToLeaves[employeeAddress];\n    }\n\n    function setLeaveLimit(address employerAddress, uint256 limit) public {\n        emit LeaveLimitSet(employerAddress, limit);\n    }\n}\n",
  "sourcePath": "/Users/ryyant/IS4302-project/contracts/ClearLeth.sol",
  "compiler": {
    "name": "solc",
    "version": "0.8.11+commit.d7f03943.Emscripten.clang"
  },
  "schemaVersion": "3.4.4",
  "updatedAt": "2022-04-01T15:51:19.951Z",
  "networkType": "ethereum",
  "devdoc": {
    "kind": "dev",
    "methods": {},
    "version": 1
  },
  "userdoc": {
    "kind": "user",
    "methods": {},
    "version": 1
  }
}