{
  "contractName": "ClearLeth",
  "abi": [
    {
      "inputs": [
        {
          "internalType": "uint256",
          "name": "_leaveAmount",
          "type": "uint256"
        }
      ],
      "stateMutability": "nonpayable",
      "type": "constructor"
    },
    {
      "anonymous": false,
      "inputs": [
        {
          "indexed": false,
          "internalType": "address",
          "name": "employee",
          "type": "address"
        },
        {
          "indexed": false,
          "internalType": "string",
          "name": "date",
          "type": "string"
        }
      ],
      "name": "LeaveApplied",
      "type": "event"
    },
    {
      "anonymous": false,
      "inputs": [
        {
          "indexed": false,
          "internalType": "address",
          "name": "employee",
          "type": "address"
        },
        {
          "indexed": false,
          "internalType": "address",
          "name": "employer",
          "type": "address"
        },
        {
          "indexed": false,
          "internalType": "uint256",
          "name": "leaveId",
          "type": "uint256"
        }
      ],
      "name": "LeaveApproved",
      "type": "event"
    },
    {
      "anonymous": false,
      "inputs": [
        {
          "indexed": false,
          "internalType": "address",
          "name": "employee",
          "type": "address"
        },
        {
          "indexed": false,
          "internalType": "uint256",
          "name": "leaveId",
          "type": "uint256"
        }
      ],
      "name": "LeaveCancelled",
      "type": "event"
    },
    {
      "anonymous": false,
      "inputs": [
        {
          "indexed": false,
          "internalType": "address",
          "name": "employer",
          "type": "address"
        },
        {
          "indexed": false,
          "internalType": "uint256",
          "name": "limit",
          "type": "uint256"
        }
      ],
      "name": "LeaveLimitSet",
      "type": "event"
    },
    {
      "anonymous": false,
      "inputs": [
        {
          "indexed": false,
          "internalType": "address",
          "name": "employee",
          "type": "address"
        },
        {
          "indexed": false,
          "internalType": "address",
          "name": "employer",
          "type": "address"
        },
        {
          "indexed": false,
          "internalType": "uint256",
          "name": "leaveId",
          "type": "uint256"
        }
      ],
      "name": "LeaveRejected",
      "type": "event"
    },
    {
      "inputs": [],
      "name": "leaveAmount",
      "outputs": [
        {
          "internalType": "uint256",
          "name": "",
          "type": "uint256"
        }
      ],
      "stateMutability": "view",
      "type": "function",
      "constant": true
    },
    {
      "inputs": [],
      "name": "numLeaves",
      "outputs": [
        {
          "internalType": "uint256",
          "name": "",
          "type": "uint256"
        }
      ],
      "stateMutability": "view",
      "type": "function",
      "constant": true
    },
    {
      "inputs": [
        {
          "internalType": "address",
          "name": "_employerAddress",
          "type": "address"
        }
      ],
      "name": "addEmployer",
      "outputs": [],
      "stateMutability": "nonpayable",
      "type": "function"
    },
    {
      "inputs": [
        {
          "internalType": "address",
          "name": "_employeeAddress",
          "type": "address"
        }
      ],
      "name": "addEmployee",
      "outputs": [],
      "stateMutability": "nonpayable",
      "type": "function"
    },
    {
      "inputs": [
        {
          "internalType": "address",
          "name": "_employeeAddress",
          "type": "address"
        }
      ],
      "name": "removeEmployee",
      "outputs": [],
      "stateMutability": "nonpayable",
      "type": "function"
    },
    {
      "inputs": [
        {
          "internalType": "address",
          "name": "_employerAddress",
          "type": "address"
        }
      ],
      "name": "getEmployeesByEmployer",
      "outputs": [
        {
          "internalType": "address[]",
          "name": "",
          "type": "address[]"
        }
      ],
      "stateMutability": "view",
      "type": "function",
      "constant": true
    },
    {
      "inputs": [],
      "name": "getAllEmployees",
      "outputs": [
        {
          "internalType": "address[]",
          "name": "",
          "type": "address[]"
        }
      ],
      "stateMutability": "view",
      "type": "function",
      "constant": true
    },
    {
      "inputs": [],
      "name": "getAllEmployers",
      "outputs": [
        {
          "internalType": "address[]",
          "name": "",
          "type": "address[]"
        }
      ],
      "stateMutability": "view",
      "type": "function",
      "constant": true
    },
    {
      "inputs": [
        {
          "internalType": "string",
          "name": "date",
          "type": "string"
        },
        {
          "internalType": "string",
          "name": "reason",
          "type": "string"
        }
      ],
      "name": "applyLeave",
      "outputs": [],
      "stateMutability": "nonpayable",
      "type": "function"
    },
    {
      "inputs": [
        {
          "components": [
            {
              "internalType": "uint256",
              "name": "id",
              "type": "uint256"
            },
            {
              "internalType": "string",
              "name": "date",
              "type": "string"
            },
            {
              "internalType": "string",
              "name": "reason",
              "type": "string"
            },
            {
              "internalType": "enum ClearLeth.leaveStatus",
              "name": "status",
              "type": "uint8"
            },
            {
              "internalType": "address",
              "name": "employee",
              "type": "address"
            }
          ],
          "internalType": "struct ClearLeth.leave",
          "name": "leaveToCancel",
          "type": "tuple"
        }
      ],
      "name": "cancelLeave",
      "outputs": [],
      "stateMutability": "nonpayable",
      "type": "function"
    },
    {
      "inputs": [
        {
          "components": [
            {
              "internalType": "uint256",
              "name": "id",
              "type": "uint256"
            },
            {
              "internalType": "string",
              "name": "date",
              "type": "string"
            },
            {
              "internalType": "string",
              "name": "reason",
              "type": "string"
            },
            {
              "internalType": "enum ClearLeth.leaveStatus",
              "name": "status",
              "type": "uint8"
            },
            {
              "internalType": "address",
              "name": "employee",
              "type": "address"
            }
          ],
          "internalType": "struct ClearLeth.leave",
          "name": "leaveToApprove",
          "type": "tuple"
        }
      ],
      "name": "approveLeave",
      "outputs": [],
      "stateMutability": "nonpayable",
      "type": "function"
    },
    {
      "inputs": [
        {
          "components": [
            {
              "internalType": "uint256",
              "name": "id",
              "type": "uint256"
            },
            {
              "internalType": "string",
              "name": "date",
              "type": "string"
            },
            {
              "internalType": "string",
              "name": "reason",
              "type": "string"
            },
            {
              "internalType": "enum ClearLeth.leaveStatus",
              "name": "status",
              "type": "uint8"
            },
            {
              "internalType": "address",
              "name": "employee",
              "type": "address"
            }
          ],
          "internalType": "struct ClearLeth.leave",
          "name": "leaveToReject",
          "type": "tuple"
        }
      ],
      "name": "rejectLeave",
      "outputs": [],
      "stateMutability": "nonpayable",
      "type": "function"
    },
    {
      "inputs": [],
      "name": "getLeaveBalance",
      "outputs": [
        {
          "internalType": "uint256",
          "name": "",
          "type": "uint256"
        }
      ],
      "stateMutability": "view",
      "type": "function",
      "constant": true
    },
    {
      "inputs": [
        {
          "internalType": "uint256",
          "name": "leaveId",
          "type": "uint256"
        }
      ],
      "name": "getLeaveInformation",
      "outputs": [
        {
          "components": [
            {
              "internalType": "uint256",
              "name": "id",
              "type": "uint256"
            },
            {
              "internalType": "string",
              "name": "date",
              "type": "string"
            },
            {
              "internalType": "string",
              "name": "reason",
              "type": "string"
            },
            {
              "internalType": "enum ClearLeth.leaveStatus",
              "name": "status",
              "type": "uint8"
            },
            {
              "internalType": "address",
              "name": "employee",
              "type": "address"
            }
          ],
          "internalType": "struct ClearLeth.leave",
          "name": "",
          "type": "tuple"
        }
      ],
      "stateMutability": "view",
      "type": "function",
      "constant": true
    },
    {
      "inputs": [
        {
          "internalType": "address",
          "name": "employeeAddress",
          "type": "address"
        }
      ],
      "name": "getLeaveApplications",
      "outputs": [
        {
          "components": [
            {
              "internalType": "uint256",
              "name": "id",
              "type": "uint256"
            },
            {
              "internalType": "string",
              "name": "date",
              "type": "string"
            },
            {
              "internalType": "string",
              "name": "reason",
              "type": "string"
            },
            {
              "internalType": "enum ClearLeth.leaveStatus",
              "name": "status",
              "type": "uint8"
            },
            {
              "internalType": "address",
              "name": "employee",
              "type": "address"
            }
          ],
          "internalType": "struct ClearLeth.leave[]",
          "name": "",
          "type": "tuple[]"
        }
      ],
      "stateMutability": "view",
      "type": "function",
      "constant": true
    },
    {
      "inputs": [
        {
          "internalType": "address",
          "name": "employerAddress",
          "type": "address"
        },
        {
          "internalType": "uint256",
          "name": "limit",
          "type": "uint256"
        }
      ],
      "name": "setLeaveLimit",
      "outputs": [],
      "stateMutability": "nonpayable",
      "type": "function"
    }
  ],
  "bytecode": "0x6080604052600060065534801561001557600080fd5b50604051611ca2380380611ca283398101604081905261003491610095565b60008054600181810183557f290decd9548b62a8d60345a988386fc84ba6bc95484008f6362f93160ef3e56390910180546001600160a01b03191633908117909155825260208190526040909120805460ff191690911790556005556100ae565b6000602082840312156100a757600080fd5b5051919050565b611be5806100bd6000396000f3fe608060405234801561001057600080fd5b50600436106101005760003560e01c80637675c14c11610097578063d1ef4f6311610066578063d1ef4f6314610214578063dda89a6e14610229578063e3366fed14610232578063f3cb8c311461023a57600080fd5b80637675c14c146101b7578063b2010135146101ce578063bcdd8891146101e1578063d108177a1461020157600080fd5b806360bf0867116100d357806360bf08671461015e578063687d9b931461017e57806368b54919146101915780636e82ac57146101a457600080fd5b806314c671d61461010557806331688c161461012357806349f5b877146101385780634fd959041461014b575b600080fd5b61010d61024d565b60405161011a9190611666565b60405180910390f35b61013661013136600461179b565b610329565b005b61013661014636600461179b565b610452565b61013661015936600461179b565b6106e3565b61017161016c366004611861565b61090a565b60405161011a9190611973565b61010d61018c366004611861565b610afa565b61013661019f366004611861565b610b70565b6101366101b23660046119d5565b610bf7565b6101c060055481565b60405190815260200161011a565b6101366101dc3660046119ff565b610c36565b6101f46101ef366004611a63565b610e86565b60405161011a9190611a7c565b61013661020f366004611861565b61108c565b336000908152600960205260409020546101c0565b6101c060065481565b61010d61134b565b610136610248366004611861565b61141f565b6060806000805b600054811015610321576001600080838154811061027457610274611a8f565b60009182526020808320909101546001600160a01b0316835282019290925260400190205460ff1615156001141561030f57600081815481106102b9576102b9611a8f565b9060005260206000200160009054906101000a90046001600160a01b03168383815181106102e9576102e9611a8f565b6001600160a01b03909216602092830291909101909101528161030b81611abb565b9250505b8061031981611abb565b915050610254565b509092915050565b80600081606001516003811115610342576103426118df565b1461034c57600080fd5b60005b3360009081526008602052604090205481101561041057825133600090815260086020526040902080548390811061038957610389611a8f565b90600052602060002090600402016000015414156103fe57336000908152600860205260409020805460019190839081106103c6576103c6611a8f565b906000526020600020906004020160030160006101000a81548160ff021916908360038111156103f8576103f86118df565b02179055505b8061040881611abb565b91505061034f565b5081516040805133815260208101929092527fb7ebc98aeb0d019f1d38bdecf34a056aa9be46ff8aed7cf80b640ff0073d6ac791015b60405180910390a15050565b8051600654811061046257600080fd5b8160008160600151600381111561047b5761047b6118df565b1461048557600080fd5b60808301516001600160a01b038082166000908152600360205260409020541633146104b057600080fd5b608084015160005b6001600160a01b0382166000908152600860205260409020548110156105945785516001600160a01b038316600090815260086020526040902080548390811061050457610504611a8f565b9060005260206000209060040201600001541415610582576001600160a01b03821660009081526008602052604090208054600291908390811061054a5761054a611a8f565b906000526020600020906004020160030160006101000a81548160ff0219169083600381111561057c5761057c6118df565b02179055505b8061058c81611abb565b9150506104b8565b5060005b60075481101561062f57855160078054839081106105b8576105b8611a8f565b906000526020600020906004020160000154141561061d576002600782815481106105e5576105e5611a8f565b906000526020600020906004020160030160006101000a81548160ff02191690836003811115610617576106176118df565b02179055505b8061062781611abb565b915050610598565b50600a85602001516040516106449190611ad6565b908152604051908190036020019020805490600061066183611abb565b90915550506001600160a01b038116600090815260096020526040812080549161068a83611af2565b90915550508451604080516001600160a01b0384168152336020820152908101919091527fd77ba574eae3c58a23e6b228fae2d5390d3c715492024b607e5626321c5cc8ff906060015b60405180910390a15050505050565b805160065481106106f357600080fd5b8160008160600151600381111561070c5761070c6118df565b1461071657600080fd5b60808301516001600160a01b0380821660009081526003602052604090205416331461074157600080fd5b608084015160005b6001600160a01b0382166000908152600860205260409020548110156108255785516001600160a01b038316600090815260086020526040902080548390811061079557610795611a8f565b9060005260206000209060040201600001541415610813576001600160a01b0382166000908152600860205260409020805460039190839081106107db576107db611a8f565b906000526020600020906004020160030160006101000a81548160ff0219169083600381111561080d5761080d6118df565b02179055505b8061081d81611abb565b915050610749565b5060005b6007548110156108c0578551600780548390811061084957610849611a8f565b90600052602060002090600402016000015414156108ae5760036007828154811061087657610876611a8f565b906000526020600020906004020160030160006101000a81548160ff021916908360038111156108a8576108a86118df565b02179055505b806108b881611abb565b915050610829565b508451604080516001600160a01b0384168152336020820152908101919091527fcfedd8a6cf86a82ac7dd3f04b1e86f248df069f9f15810bf8a52dabc8c7a25af906060016106d4565b6001600160a01b0381166000908152600860209081526040808320805482518185028101850190935280835260609492939192909184015b82821015610aef57838290600052602060002090600402016040518060a00160405290816000820154815260200160018201805461097f90611b09565b80601f01602080910402602001604051908101604052809291908181526020018280546109ab90611b09565b80156109f85780601f106109cd576101008083540402835291602001916109f8565b820191906000526020600020905b8154815290600101906020018083116109db57829003601f168201915b50505050508152602001600282018054610a1190611b09565b80601f0160208091040260200160405190810160405280929190818152602001828054610a3d90611b09565b8015610a8a5780601f10610a5f57610100808354040283529160200191610a8a565b820191906000526020600020905b815481529060010190602001808311610a6d57829003601f168201915b505050918352505060038281015460209092019160ff1690811115610ab157610ab16118df565b6003811115610ac257610ac26118df565b81526003919091015461010090046001600160a01b03166020918201529082526001929092019101610942565b505050509050919050565b6001600160a01b038116600090815260046020908152604091829020805483518184028101840190945280845260609392830182828015610b6457602002820191906000526020600020905b81546001600160a01b03168152600190910190602001808311610b46575b50505050509050919050565b3360009081526001602081905260409091205460ff16151514610b9257600080fd5b60008054600181810183557f290decd9548b62a8d60345a988386fc84ba6bc95484008f6362f93160ef3e56390910180546001600160a01b039094166001600160a01b031990941684179055918152602082905260409020805460ff19169091179055565b604080516001600160a01b0384168152602081018390527fc687ccbce0cc89ceb74a46d6867e5268d2bb596e3b2b08bf139879cfa6f14bdd9101610446565b60006040518060a00160405280600654815260200184815260200183815260200160006003811115610c6a57610c6a6118df565b8152602001336001600160a01b03168152509050600160066000828254610c919190611b3e565b90915550503360009081526008602090815260408220805460018181018355918452928290208451600490940201928355838201518051859493610cd99385019201906114ec565b5060408201518051610cf59160028401916020909101906114ec565b5060608201518160030160006101000a81548160ff02191690836003811115610d2057610d206118df565b021790555060809190910151600390910180546001600160a01b0390921661010002610100600160a81b031990921691909117905560078054600181018255600091909152815160049091027fa66cc928b5edb82af9bd49922954155ab7b0942694bea4ce44661d9a8736c68881019182556020808401518051859493610dcd937fa66cc928b5edb82af9bd49922954155ab7b0942694bea4ce44661d9a8736c6899091019201906114ec565b5060408201518051610de99160028401916020909101906114ec565b5060608201518160030160006101000a81548160ff02191690836003811115610e1457610e146118df565b021790555060808201518160030160016101000a8154816001600160a01b0302191690836001600160a01b0316021790555050507feb4d727d6d39c406c1fa9ea0c115c5af644177a25e44b3587b94560191e843a63384604051610e79929190611b56565b60405180910390a1505050565b610e8e611570565b60005b600754811015611086578260078281548110610eaf57610eaf611a8f565b90600052602060002090600402016000015414156110745760078181548110610eda57610eda611a8f565b90600052602060002090600402016040518060a001604052908160008201548152602001600182018054610f0d90611b09565b80601f0160208091040260200160405190810160405280929190818152602001828054610f3990611b09565b8015610f865780601f10610f5b57610100808354040283529160200191610f86565b820191906000526020600020905b815481529060010190602001808311610f6957829003601f168201915b50505050508152602001600282018054610f9f90611b09565b80601f0160208091040260200160405190810160405280929190818152602001828054610fcb90611b09565b80156110185780601f10610fed57610100808354040283529160200191611018565b820191906000526020600020905b815481529060010190602001808311610ffb57829003601f168201915b505050918352505060038281015460209092019160ff169081111561103f5761103f6118df565b6003811115611050576110506118df565b81526003919091015461010090046001600160a01b03166020909101529392505050565b8061107e81611abb565b915050610e91565b50919050565b6001600160a01b0380821660009081526003602052604090205482911633146110b457600080fd5b60005b6000548110156111b057826001600160a01b0316600082815481106110de576110de611a8f565b6000918252602090912001546001600160a01b0316141561119e576000805461110990600190611b82565b8154811061111957611119611a8f565b600091825260208220015481546001600160a01b0390911691908390811061114357611143611a8f565b6000918252602082200180546001600160a01b0319166001600160a01b03939093169290921790915580548061117b5761117b611b99565b600082815260209020810160001990810180546001600160a01b03191690550190555b806111a881611abb565b9150506110b7565b5060005b336000908152600460205260409020548110156112f65733600090815260046020526040902080546001600160a01b0385169190839081106111f8576111f8611a8f565b6000918252602090912001546001600160a01b031614156112e457336000908152600460205260409020805461123090600190611b82565b8154811061124057611240611a8f565b60009182526020808320909101543383526004909152604090912080546001600160a01b03909216918390811061127957611279611a8f565b600091825260208083209190910180546001600160a01b0319166001600160a01b0394909416939093179092553381526004909152604090208054806112c1576112c1611b99565b600082815260209020810160001990810180546001600160a01b03191690550190555b806112ee81611abb565b9150506111b4565b506001600160a01b038216600090815260036020908152604080832080546001600160a01b031916905560089091528120611330916115b0565b506001600160a01b0316600090815260096020526040812055565b6060806000805b600054811015610321576002600080838154811061137257611372611a8f565b60009182526020808320909101546001600160a01b0316835282019290925260400190205460ff1615156001141561140d57600081815481106113b7576113b7611a8f565b9060005260206000200160009054906101000a90046001600160a01b03168383815181106113e7576113e7611a8f565b6001600160a01b03909216602092830291909101909101528161140981611abb565b9250505b8061141781611abb565b915050611352565b3360009081526001602081905260409091205460ff1615151461144157600080fd5b60008054600181810183557f290decd9548b62a8d60345a988386fc84ba6bc95484008f6362f93160ef3e56390910180546001600160a01b039094166001600160a01b03199485168117909155808352600260209081526040808520805460ff19168517905533808652600483528186208054958601815586528286209094018054871684179055918452600381528184208054909516909217909355600554600990915291902055565b8280546114f890611b09565b90600052602060002090601f01602090048101928261151a5760008555611560565b82601f1061153357805160ff1916838001178555611560565b82800160010185558215611560579182015b82811115611560578251825591602001919060010190611545565b5061156c9291506115d4565b5090565b6040518060a00160405280600081526020016060815260200160608152602001600060038111156115a3576115a36118df565b8152600060209091015290565b50805460008255600402906000526020600020908101906115d191906115e9565b50565b5b8082111561156c57600081556001016115d5565b8082111561156c576000808255611603600183018261162c565b61161160028301600061162c565b506003810180546001600160a81b03191690556004016115e9565b50805461163890611b09565b6000825580601f10611648575050565b601f0160209004906000526020600020908101906115d191906115d4565b6020808252825182820181905260009190848201906040850190845b818110156116a75783516001600160a01b031683529284019291840191600101611682565b50909695505050505050565b634e487b7160e01b600052604160045260246000fd5b60405160a0810167ffffffffffffffff811182821017156116ec576116ec6116b3565b60405290565b600082601f83011261170357600080fd5b813567ffffffffffffffff8082111561171e5761171e6116b3565b604051601f8301601f19908116603f01168101908282118183101715611746576117466116b3565b8160405283815286602085880101111561175f57600080fd5b836020870160208301376000602085830101528094505050505092915050565b80356001600160a01b038116811461179657600080fd5b919050565b6000602082840312156117ad57600080fd5b813567ffffffffffffffff808211156117c557600080fd5b9083019060a082860312156117d957600080fd5b6117e16116c9565b823581526020830135828111156117f757600080fd5b611803878286016116f2565b60208301525060408301358281111561181b57600080fd5b611827878286016116f2565b604083015250606083013591506004821061184157600080fd5b8160608201526118536080840161177f565b608082015295945050505050565b60006020828403121561187357600080fd5b61187c8261177f565b9392505050565b60005b8381101561189e578181015183820152602001611886565b838111156118ad576000848401525b50505050565b600081518084526118cb816020860160208601611883565b601f01601f19169290920160200192915050565b634e487b7160e01b600052602160045260246000fd5b805182526000602082015160a0602085015261191460a08501826118b3565b90506040830151848203604086015261192d82826118b3565b91505060608301516004811061195357634e487b7160e01b600052602160045260246000fd5b60608501526080928301516001600160a01b031692909301919091525090565b6000602080830181845280855180835260408601915060408160051b870101925083870160005b828110156119c857603f198886030184526119b68583516118f5565b9450928501929085019060010161199a565b5092979650505050505050565b600080604083850312156119e857600080fd5b6119f18361177f565b946020939093013593505050565b60008060408385031215611a1257600080fd5b823567ffffffffffffffff80821115611a2a57600080fd5b611a36868387016116f2565b93506020850135915080821115611a4c57600080fd5b50611a59858286016116f2565b9150509250929050565b600060208284031215611a7557600080fd5b5035919050565b60208152600061187c60208301846118f5565b634e487b7160e01b600052603260045260246000fd5b634e487b7160e01b600052601160045260246000fd5b6000600019821415611acf57611acf611aa5565b5060010190565b60008251611ae8818460208701611883565b9190910192915050565b600081611b0157611b01611aa5565b506000190190565b600181811c90821680611b1d57607f821691505b6020821081141561108657634e487b7160e01b600052602260045260246000fd5b60008219821115611b5157611b51611aa5565b500190565b6001600160a01b0383168152604060208201819052600090611b7a908301846118b3565b949350505050565b600082821015611b9457611b94611aa5565b500390565b634e487b7160e01b600052603160045260246000fdfea264697066735822122032b82a3bace0d76cfaaf81e688d6b3d437e8f0073110f77856d0610d16b0349c64736f6c634300080b0033",
  "immutableReferences": {},
  "source": "// SPDX-License-Identifier: MIT\r\npragma solidity >=0.4.22 <0.9.0;\r\n\r\ncontract ClearLeth {\r\n  address[] registeredAddresses;\r\n  mapping(address => bool) employers;\r\n  mapping(address => bool) employees;\r\n  mapping(address => address) employeeToEmployer;\r\n  mapping(address => address[]) employerToEmployee;\r\n\r\n  enum leaveStatus { pending, cancelled, approved, rejected }\r\n  struct leave {\r\n    uint id;\r\n    string date; //can look into using timestamp\r\n    string reason;\r\n    leaveStatus status;\r\n    address employee;\r\n  }\r\n\r\n  uint public leaveAmount;\r\n  uint public numLeaves = 0;\r\n  leave[] allLeaves;\r\n  mapping(address => leave[]) employeeToLeaves;\r\n  mapping(address => uint) employeeLeaveBalance;\r\n  mapping(string => uint) datesToEmployeesApplied;\r\n  mapping(address => uint) employersToLeaveLimit;\r\n\r\n  event LeaveApplied(address employee, string date);\r\n  event LeaveApproved(address employee, address employer, uint leaveId);\r\n  event LeaveCancelled(address employee, uint leaveId);\r\n  event LeaveRejected(address employee, address employer, uint leaveId);\r\n  event LeaveLimitSet(address employer, uint limit);\r\n\r\n  // @dev Owner of contract will be able to add employers and is an employer\r\n  // @dev leaveAmount is also set when deployed\r\n  constructor(uint _leaveAmount) {\r\n    registeredAddresses.push(msg.sender);\r\n    employers[msg.sender] = true;\r\n    leaveAmount = _leaveAmount;\r\n  }\r\n\r\n  modifier validLeaveId(uint leaveId) {\r\n    require(leaveId < numLeaves);\r\n    _;\r\n  }\r\n\r\n  modifier employerOnly(address employeeAddress) {\r\n    require(employeeToEmployer[employeeAddress] == msg.sender);\r\n    _;\r\n  }\r\n\r\n  modifier isEmployer() {\r\n    require(employers[msg.sender] == true);\r\n    _;\r\n  }\r\n\r\n  modifier validLeaveStatus(leave memory leaveApplication) {\r\n    require(leaveApplication.status == leaveStatus.pending);\r\n    _;\r\n  }\r\n\r\n  function addEmployer(address _employerAddress) public isEmployer() {\r\n    registeredAddresses.push(_employerAddress);\r\n    employers[_employerAddress] = true;\r\n  }\r\n\r\n  function addEmployee(address _employeeAddress) public isEmployer() {\r\n    registeredAddresses.push(_employeeAddress);\r\n    employees[_employeeAddress] = true;\r\n    employerToEmployee[msg.sender].push(_employeeAddress);\r\n    employeeToEmployer[_employeeAddress] = msg.sender;\r\n    employeeLeaveBalance[_employeeAddress] = leaveAmount;\r\n  }\r\n\r\n  // @dev would be better if we just update mapping employees to false \r\n  // then when we do getEmployees if wont appear\r\n  function removeEmployee(address _employeeAddress) public employerOnly(_employeeAddress) {\r\n    for (uint i = 0; i < registeredAddresses.length; i++) {\r\n      if (registeredAddresses[i] == _employeeAddress) {\r\n        registeredAddresses[i] = registeredAddresses[registeredAddresses.length-1];\r\n        registeredAddresses.pop();\r\n      }\r\n    }\r\n\r\n    for (uint j = 0; j < employerToEmployee[msg.sender].length; j++) {\r\n      if (employerToEmployee[msg.sender][j] == _employeeAddress) {\r\n        employerToEmployee[msg.sender][j] = employerToEmployee[msg.sender][employerToEmployee[msg.sender].length - 1];\r\n        employerToEmployee[msg.sender].pop();\r\n      }\r\n    }\r\n\r\n    delete employeeToEmployer[_employeeAddress];\r\n    delete employeeToLeaves[_employeeAddress];\r\n    delete employeeLeaveBalance[_employeeAddress];\r\n  }\r\n\r\n  function getEmployeesByEmployer(address _employerAddress) public view returns (address[] memory) {\r\n    return employerToEmployee[_employerAddress];\r\n  }\r\n\r\n  // @dev transfer complexity to view function no gas \r\n  function getAllEmployees() public view returns (address[] memory) {\r\n    address[] memory employeeArray;\r\n    uint counter = 0;\r\n    for (uint i = 0; i < registeredAddresses.length; i++) {\r\n      if (employees[registeredAddresses[i]] == true) {\r\n        employeeArray[counter] = registeredAddresses[i];\r\n        counter++;\r\n      }\r\n    }\r\n    return employeeArray;\r\n  }\r\n\r\n  // @dev transfer complexity to view function no gas \r\n  function getAllEmployers() public view returns (address[] memory) {\r\n    address[] memory employerArray;\r\n    uint counter = 0;\r\n    for (uint i = 0; i < registeredAddresses.length; i++) {\r\n      if (employers[registeredAddresses[i]] == true) {\r\n        employerArray[counter] = registeredAddresses[i];\r\n        counter++;\r\n      }\r\n    }\r\n    return employerArray;\r\n  }\r\n\r\n  function applyLeave(string memory date, string memory reason) public {\r\n    leave memory newLeave = leave(\r\n      numLeaves,\r\n      date,\r\n      reason,\r\n      leaveStatus.pending,\r\n      msg.sender\r\n    );\r\n\r\n    numLeaves += 1;\r\n    employeeToLeaves[msg.sender].push(newLeave);\r\n    allLeaves.push(newLeave);\r\n    emit LeaveApplied(msg.sender, date);\r\n\r\n  }\r\n\r\n  function cancelLeave(leave memory leaveToCancel) public validLeaveStatus(leaveToCancel) {\r\n    for (uint i = 0; i < employeeToLeaves[msg.sender].length; i++) {\r\n      if (employeeToLeaves[msg.sender][i].id == leaveToCancel.id) {\r\n        employeeToLeaves[msg.sender][i].status = leaveStatus.cancelled;\r\n      }\r\n    }\r\n    emit LeaveCancelled(msg.sender, leaveToCancel.id);\r\n  }\r\n\r\n  function approveLeave(leave memory leaveToApprove) public validLeaveId(leaveToApprove.id) validLeaveStatus(leaveToApprove) employerOnly(leaveToApprove.employee) {\r\n    address employeeAddress = leaveToApprove.employee;\r\n    for (uint i = 0; i < employeeToLeaves[employeeAddress].length; i++) {\r\n      if (employeeToLeaves[employeeAddress][i].id == leaveToApprove.id) {\r\n        employeeToLeaves[employeeAddress][i].status = leaveStatus.approved;\r\n\r\n      }\r\n    }\r\n\r\n    for (uint j = 0; j < allLeaves.length; j++) {\r\n      if (allLeaves[j].id == leaveToApprove.id) {\r\n        allLeaves[j].status = leaveStatus.approved;\r\n      }\r\n    }\r\n\r\n    datesToEmployeesApplied[leaveToApprove.date]++;\r\n    employeeLeaveBalance[employeeAddress]--;\r\n    emit LeaveApproved(employeeAddress, msg.sender, leaveToApprove.id);\r\n  }\r\n\r\n  function rejectLeave(leave memory leaveToReject) public validLeaveId(leaveToReject.id) validLeaveStatus(leaveToReject) employerOnly(leaveToReject.employee) {\r\n    address employeeAddress = leaveToReject.employee;\r\n    for (uint i = 0; i < employeeToLeaves[employeeAddress].length; i++) {\r\n      if (employeeToLeaves[employeeAddress][i].id == leaveToReject.id) {\r\n        employeeToLeaves[employeeAddress][i].status = leaveStatus.rejected;\r\n\r\n      }\r\n    }\r\n\r\n    for (uint j = 0; j < allLeaves.length; j++) {\r\n      if (allLeaves[j].id == leaveToReject.id) {\r\n        allLeaves[j].status = leaveStatus.rejected;\r\n      }\r\n    }\r\n    emit LeaveRejected(employeeAddress, msg.sender, leaveToReject.id);\r\n  }\r\n\r\n\r\n  function getLeaveBalance() public view returns (uint) {\r\n    return employeeLeaveBalance[msg.sender];\r\n  }\r\n\r\n  function getLeaveInformation(uint leaveId) public view returns (leave memory) {\r\n    for (uint i = 0; i < allLeaves.length; i++) {\r\n      if (allLeaves[i].id == leaveId) {\r\n        return allLeaves[i];\r\n      }\r\n    }\r\n  }\r\n\r\n  function getLeaveApplications(address employeeAddress) public view returns (leave[] memory) {\r\n    return employeeToLeaves[employeeAddress];\r\n  }\r\n\r\n  function setLeaveLimit(address employerAddress, uint limit) public {\r\n\r\n    \r\n    emit LeaveLimitSet(employerAddress, limit);\r\n  }\r\n\r\n\r\n\r\n\r\n\r\n}\r\n",
  "sourcePath": "E:\\Github\\IS4302-project\\contracts\\ClearLeth.sol",
  "compiler": {
    "name": "solc",
    "version": "0.8.11+commit.d7f03943.Emscripten.clang"
  },
  "schemaVersion": "3.4.4",
  "updatedAt": "2022-03-23T10:15:32.837Z",
  "networkType": "ethereum",
  "devdoc": {
    "kind": "dev",
    "methods": {},
    "version": 1
  },
  "userdoc": {
    "kind": "user",
    "methods": {},
    "version": 1
  }
}