{
  "contractName": "ClearLeth",
  "abi": [
    {
      "inputs": [
        {
          "internalType": "uint256",
          "name": "_leaveAmount",
          "type": "uint256"
        }
      ],
      "stateMutability": "nonpayable",
      "type": "constructor"
    },
    {
      "anonymous": false,
      "inputs": [
        {
          "indexed": false,
          "internalType": "address",
          "name": "employee",
          "type": "address"
        }
      ],
      "name": "LeaveApplied",
      "type": "event"
    },
    {
      "anonymous": false,
      "inputs": [
        {
          "indexed": false,
          "internalType": "address",
          "name": "employee",
          "type": "address"
        },
        {
          "indexed": false,
          "internalType": "address",
          "name": "employer",
          "type": "address"
        },
        {
          "indexed": false,
          "internalType": "uint256",
          "name": "leaveId",
          "type": "uint256"
        }
      ],
      "name": "LeaveApproved",
      "type": "event"
    },
    {
      "anonymous": false,
      "inputs": [
        {
          "indexed": false,
          "internalType": "address",
          "name": "employee",
          "type": "address"
        },
        {
          "indexed": false,
          "internalType": "uint256",
          "name": "leaveId",
          "type": "uint256"
        }
      ],
      "name": "LeaveCancelled",
      "type": "event"
    },
    {
      "anonymous": false,
      "inputs": [
        {
          "indexed": false,
          "internalType": "address",
          "name": "employer",
          "type": "address"
        },
        {
          "indexed": false,
          "internalType": "uint256",
          "name": "limit",
          "type": "uint256"
        }
      ],
      "name": "LeaveLimitSet",
      "type": "event"
    },
    {
      "anonymous": false,
      "inputs": [
        {
          "indexed": false,
          "internalType": "address",
          "name": "employee",
          "type": "address"
        },
        {
          "indexed": false,
          "internalType": "address",
          "name": "employer",
          "type": "address"
        },
        {
          "indexed": false,
          "internalType": "uint256",
          "name": "leaveId",
          "type": "uint256"
        }
      ],
      "name": "LeaveRejected",
      "type": "event"
    },
    {
      "inputs": [
        {
          "internalType": "address",
          "name": "",
          "type": "address"
        }
      ],
      "name": "addressToUser",
      "outputs": [
        {
          "internalType": "string",
          "name": "name",
          "type": "string"
        },
        {
          "internalType": "address",
          "name": "wallet",
          "type": "address"
        },
        {
          "internalType": "string",
          "name": "company",
          "type": "string"
        },
        {
          "internalType": "enum ClearLeth.role",
          "name": "role",
          "type": "uint8"
        }
      ],
      "stateMutability": "view",
      "type": "function",
      "constant": true
    },
    {
      "inputs": [],
      "name": "contractOwner",
      "outputs": [
        {
          "internalType": "address",
          "name": "",
          "type": "address"
        }
      ],
      "stateMutability": "view",
      "type": "function",
      "constant": true
    },
    {
      "inputs": [
        {
          "internalType": "address",
          "name": "",
          "type": "address"
        }
      ],
      "name": "employeeToEmployer",
      "outputs": [
        {
          "internalType": "address",
          "name": "",
          "type": "address"
        }
      ],
      "stateMutability": "view",
      "type": "function",
      "constant": true
    },
    {
      "inputs": [
        {
          "internalType": "address",
          "name": "",
          "type": "address"
        },
        {
          "internalType": "uint256",
          "name": "",
          "type": "uint256"
        }
      ],
      "name": "employerToEmployee",
      "outputs": [
        {
          "internalType": "address",
          "name": "",
          "type": "address"
        }
      ],
      "stateMutability": "view",
      "type": "function",
      "constant": true
    },
    {
      "inputs": [],
      "name": "leaveAmount",
      "outputs": [
        {
          "internalType": "uint256",
          "name": "",
          "type": "uint256"
        }
      ],
      "stateMutability": "view",
      "type": "function",
      "constant": true
    },
    {
      "inputs": [],
      "name": "numLeaves",
      "outputs": [
        {
          "internalType": "uint256",
          "name": "",
          "type": "uint256"
        }
      ],
      "stateMutability": "view",
      "type": "function",
      "constant": true
    },
    {
      "inputs": [],
      "name": "numOfAuthorities",
      "outputs": [
        {
          "internalType": "uint256",
          "name": "",
          "type": "uint256"
        }
      ],
      "stateMutability": "view",
      "type": "function",
      "constant": true
    },
    {
      "inputs": [],
      "name": "numOfEmployees",
      "outputs": [
        {
          "internalType": "uint256",
          "name": "",
          "type": "uint256"
        }
      ],
      "stateMutability": "view",
      "type": "function",
      "constant": true
    },
    {
      "inputs": [],
      "name": "numOfEmployers",
      "outputs": [
        {
          "internalType": "uint256",
          "name": "",
          "type": "uint256"
        }
      ],
      "stateMutability": "view",
      "type": "function",
      "constant": true
    },
    {
      "inputs": [
        {
          "internalType": "string",
          "name": "_company",
          "type": "string"
        },
        {
          "internalType": "string",
          "name": "_employerName",
          "type": "string"
        },
        {
          "internalType": "address",
          "name": "_employerAddress",
          "type": "address"
        },
        {
          "internalType": "uint256",
          "name": "_leaveLimit",
          "type": "uint256"
        }
      ],
      "name": "addEmployer",
      "outputs": [],
      "stateMutability": "nonpayable",
      "type": "function"
    },
    {
      "inputs": [
        {
          "internalType": "string",
          "name": "_employeeName",
          "type": "string"
        },
        {
          "internalType": "address",
          "name": "_employeeAddress",
          "type": "address"
        }
      ],
      "name": "addEmployee",
      "outputs": [],
      "stateMutability": "nonpayable",
      "type": "function"
    },
    {
      "inputs": [
        {
          "internalType": "string",
          "name": "_authorityName",
          "type": "string"
        },
        {
          "internalType": "address",
          "name": "_authorityAddress",
          "type": "address"
        }
      ],
      "name": "addAuthority",
      "outputs": [],
      "stateMutability": "nonpayable",
      "type": "function"
    },
    {
      "inputs": [
        {
          "internalType": "address",
          "name": "_employeeAddress",
          "type": "address"
        }
      ],
      "name": "removeEmployee",
      "outputs": [],
      "stateMutability": "nonpayable",
      "type": "function"
    },
    {
      "inputs": [
        {
          "internalType": "uint256[]",
          "name": "dates",
          "type": "uint256[]"
        },
        {
          "internalType": "bytes32[]",
          "name": "reason",
          "type": "bytes32[]"
        }
      ],
      "name": "applyLeaves",
      "outputs": [],
      "stateMutability": "nonpayable",
      "type": "function"
    },
    {
      "inputs": [
        {
          "components": [
            {
              "internalType": "uint256",
              "name": "id",
              "type": "uint256"
            },
            {
              "internalType": "uint256",
              "name": "date",
              "type": "uint256"
            },
            {
              "internalType": "bytes32",
              "name": "reason",
              "type": "bytes32"
            },
            {
              "internalType": "enum ClearLeth.leaveStatus",
              "name": "status",
              "type": "uint8"
            },
            {
              "internalType": "address",
              "name": "employee",
              "type": "address"
            }
          ],
          "internalType": "struct ClearLeth.leave",
          "name": "_leave",
          "type": "tuple"
        }
      ],
      "name": "cancelLeave",
      "outputs": [],
      "stateMutability": "nonpayable",
      "type": "function"
    },
    {
      "inputs": [
        {
          "components": [
            {
              "internalType": "uint256",
              "name": "id",
              "type": "uint256"
            },
            {
              "internalType": "uint256",
              "name": "date",
              "type": "uint256"
            },
            {
              "internalType": "bytes32",
              "name": "reason",
              "type": "bytes32"
            },
            {
              "internalType": "enum ClearLeth.leaveStatus",
              "name": "status",
              "type": "uint8"
            },
            {
              "internalType": "address",
              "name": "employee",
              "type": "address"
            }
          ],
          "internalType": "struct ClearLeth.leave",
          "name": "leaveToApprove",
          "type": "tuple"
        }
      ],
      "name": "approveLeave",
      "outputs": [],
      "stateMutability": "nonpayable",
      "type": "function"
    },
    {
      "inputs": [
        {
          "components": [
            {
              "internalType": "uint256",
              "name": "id",
              "type": "uint256"
            },
            {
              "internalType": "uint256",
              "name": "date",
              "type": "uint256"
            },
            {
              "internalType": "bytes32",
              "name": "reason",
              "type": "bytes32"
            },
            {
              "internalType": "enum ClearLeth.leaveStatus",
              "name": "status",
              "type": "uint8"
            },
            {
              "internalType": "address",
              "name": "employee",
              "type": "address"
            }
          ],
          "internalType": "struct ClearLeth.leave",
          "name": "leaveToReject",
          "type": "tuple"
        }
      ],
      "name": "rejectLeave",
      "outputs": [],
      "stateMutability": "nonpayable",
      "type": "function"
    },
    {
      "inputs": [
        {
          "internalType": "uint256",
          "name": "_limit",
          "type": "uint256"
        }
      ],
      "name": "setLeaveLimit",
      "outputs": [],
      "stateMutability": "nonpayable",
      "type": "function"
    },
    {
      "inputs": [],
      "name": "getUser",
      "outputs": [
        {
          "components": [
            {
              "internalType": "string",
              "name": "name",
              "type": "string"
            },
            {
              "internalType": "address",
              "name": "wallet",
              "type": "address"
            },
            {
              "internalType": "string",
              "name": "company",
              "type": "string"
            },
            {
              "internalType": "enum ClearLeth.role",
              "name": "role",
              "type": "uint8"
            }
          ],
          "internalType": "struct ClearLeth.user",
          "name": "",
          "type": "tuple"
        }
      ],
      "stateMutability": "view",
      "type": "function",
      "constant": true
    },
    {
      "inputs": [
        {
          "internalType": "address",
          "name": "_userAddress",
          "type": "address"
        }
      ],
      "name": "getUserNameOf",
      "outputs": [
        {
          "internalType": "string",
          "name": "",
          "type": "string"
        }
      ],
      "stateMutability": "view",
      "type": "function",
      "constant": true
    },
    {
      "inputs": [],
      "name": "getAllEmployees",
      "outputs": [
        {
          "internalType": "address[]",
          "name": "",
          "type": "address[]"
        }
      ],
      "stateMutability": "view",
      "type": "function",
      "constant": true
    },
    {
      "inputs": [],
      "name": "getAllEmployers",
      "outputs": [
        {
          "internalType": "address[]",
          "name": "",
          "type": "address[]"
        }
      ],
      "stateMutability": "view",
      "type": "function",
      "constant": true
    },
    {
      "inputs": [],
      "name": "getAllAuthorities",
      "outputs": [
        {
          "internalType": "address[]",
          "name": "",
          "type": "address[]"
        }
      ],
      "stateMutability": "view",
      "type": "function",
      "constant": true
    },
    {
      "inputs": [
        {
          "internalType": "address",
          "name": "_employerAddress",
          "type": "address"
        }
      ],
      "name": "getEmployeesByEmployer",
      "outputs": [
        {
          "internalType": "address[]",
          "name": "",
          "type": "address[]"
        }
      ],
      "stateMutability": "view",
      "type": "function",
      "constant": true
    },
    {
      "inputs": [],
      "name": "getLeaveBalance",
      "outputs": [
        {
          "internalType": "uint256",
          "name": "",
          "type": "uint256"
        }
      ],
      "stateMutability": "view",
      "type": "function",
      "constant": true
    },
    {
      "inputs": [
        {
          "internalType": "uint256",
          "name": "leaveId",
          "type": "uint256"
        }
      ],
      "name": "getLeaveInformation",
      "outputs": [
        {
          "components": [
            {
              "internalType": "uint256",
              "name": "id",
              "type": "uint256"
            },
            {
              "internalType": "uint256",
              "name": "date",
              "type": "uint256"
            },
            {
              "internalType": "bytes32",
              "name": "reason",
              "type": "bytes32"
            },
            {
              "internalType": "enum ClearLeth.leaveStatus",
              "name": "status",
              "type": "uint8"
            },
            {
              "internalType": "address",
              "name": "employee",
              "type": "address"
            }
          ],
          "internalType": "struct ClearLeth.leave",
          "name": "",
          "type": "tuple"
        }
      ],
      "stateMutability": "view",
      "type": "function",
      "constant": true
    },
    {
      "inputs": [
        {
          "internalType": "address",
          "name": "employeeAddress",
          "type": "address"
        }
      ],
      "name": "getLeaveApplications",
      "outputs": [
        {
          "components": [
            {
              "internalType": "uint256",
              "name": "id",
              "type": "uint256"
            },
            {
              "internalType": "uint256",
              "name": "date",
              "type": "uint256"
            },
            {
              "internalType": "bytes32",
              "name": "reason",
              "type": "bytes32"
            },
            {
              "internalType": "enum ClearLeth.leaveStatus",
              "name": "status",
              "type": "uint8"
            },
            {
              "internalType": "address",
              "name": "employee",
              "type": "address"
            }
          ],
          "internalType": "struct ClearLeth.leave[]",
          "name": "",
          "type": "tuple[]"
        }
      ],
      "stateMutability": "view",
      "type": "function",
      "constant": true
    },
    {
      "inputs": [],
      "name": "getAllLeaves",
      "outputs": [
        {
          "components": [
            {
              "internalType": "uint256",
              "name": "id",
              "type": "uint256"
            },
            {
              "internalType": "uint256",
              "name": "date",
              "type": "uint256"
            },
            {
              "internalType": "bytes32",
              "name": "reason",
              "type": "bytes32"
            },
            {
              "internalType": "enum ClearLeth.leaveStatus",
              "name": "status",
              "type": "uint8"
            },
            {
              "internalType": "address",
              "name": "employee",
              "type": "address"
            }
          ],
          "internalType": "struct ClearLeth.leave[]",
          "name": "",
          "type": "tuple[]"
        }
      ],
      "stateMutability": "view",
      "type": "function",
      "constant": true
    }
  ],
  "bytecode": "0x60806040526000600755600060085560006009556000600b553480156200002557600080fd5b5060405162002fdc38038062002fdc83398101604081905262000048916200023a565b60008054336001600160a01b0319918216811783556001805480820182559084527fb10e2d527612073b26eecdfd717e6a320cf44b4afac2b0732d9fcbe2b7fa0cf60180549092161790556008805491620000a38362000254565b90915550506040805160c0810182526005608082019081526427bbb732b960d91b60a083015281523360208083018290528351808501855260038152624e555360e81b818301528385015260016060840152600091825260048152929020815180519293849362000118928492019062000194565b506020828101516001830180546001600160a01b0319166001600160a01b039092169190911790556040830151805162000159926002850192019062000194565b50606082015160038201805460ff191660018360028111156200018057620001806200027e565b02179055505050600a9190915550620002d1565b828054620001a29062000294565b90600052602060002090601f016020900481019282620001c6576000855562000211565b82601f10620001e157805160ff191683800117855562000211565b8280016001018555821562000211579182015b8281111562000211578251825591602001919060010190620001f4565b506200021f92915062000223565b5090565b5b808211156200021f576000815560010162000224565b6000602082840312156200024d57600080fd5b5051919050565b60006000198214156200027757634e487b7160e01b600052601160045260246000fd5b5060010190565b634e487b7160e01b600052602160045260246000fd5b600181811c90821680620002a957607f821691505b60208210811415620002cb57634e487b7160e01b600052602260045260246000fd5b50919050565b612cfb80620002e16000396000f3fe608060405234801561001057600080fd5b50600436106101c45760003560e01c8063ab244e1e116100f9578063d763940911610097578063e69852d011610071578063e69852d0146103b0578063e9b37cc0146103d0578063edf53886146103e3578063fedf2c561461040657600080fd5b8063d763940914610376578063dda89a6e1461039f578063e3366fed146103a857600080fd5b8063ce606ee0116100d3578063ce606ee014610332578063d023d10f14610345578063d108177a1461034e578063d1ef4f631461036157600080fd5b8063ab244e1e146102d4578063b8e8ac54146102ff578063bcdd88911461031257600080fd5b8063687d9b9311610166578063832880e711610140578063832880e714610290578063839f48e8146102a557806393abcc09146102ae5780639f251f80146102c157600080fd5b8063687d9b9314610261578063724d57e4146102745780637675c14c1461028757600080fd5b806360bf0867116101a257806360bf08671461020f57806360c38dff1461022f5780636216f27a14610242578063681218191461025957600080fd5b806314c671d6146101c95780631fbabfce146101e75780633039f608146101fc575b600080fd5b6101d161040e565b6040516101de919061250d565b60405180910390f35b6101fa6101f536600461262d565b6104d9565b005b6101fa61020a36600461267b565b6106a8565b61022261021d3660046126fc565b610935565b6040516101de919061277a565b6101fa61023d36600461267b565b610a1b565b61024b60075481565b6040519081526020016101de565b610222610c6b565b6101d161026f3660046126fc565b610dc1565b6101fa6102823660046127bc565b610e37565b61024b600a5481565b610298610ecb565b6040516101de9190612836565b61024b60085481565b6101fa6102bc3660046128a2565b61105e565b6101fa6102cf36600461262d565b61120b565b6102e76102e236600461291e565b6114c9565b6040516001600160a01b0390911681526020016101de565b6101fa61030d36600461267b565b611501565b6103256103203660046127bc565b61188d565b6040516101de9190612948565b6000546102e7906001600160a01b031681565b61024b60095481565b6101fa61035c3660046126fc565b6119df565b336000908152600e602052604090205461024b565b6102e76103843660046126fc565b6005602052600090815260409020546001600160a01b031681565b61024b600b5481565b6101d1611d20565b6103c36103be3660046126fc565b611de5565b6040516101de919061295c565b6101fa6103de3660046129fe565b611e87565b6103f66103f13660046126fc565b612192565b6040516101de9493929190612ab7565b6101d16122dc565b6060600060085467ffffffffffffffff81111561042d5761042d61255a565b604051908082528060200260200182016040528015610456578160200160208202803683370190505b50905060005b6008548110156104d3576001818154811061047957610479612b04565b9060005260206000200160009054906101000a90046001600160a01b03168282815181106104a9576104a9612b04565b6001600160a01b0390921660209283029190910190910152806104cb81612b30565b91505061045c565b50919050565b6000546001600160a01b0316331461054f5760405162461bcd60e51b815260206004820152602e60248201527f4f6e6c792074686520636f6e7472616374206f776e65722063616e2063616c6c60448201526d103a3434b990333ab731ba34b7b760911b60648201526084015b60405180910390fd5b6001600160a01b038082166000908152600460205260409020600101548291161561058c5760405162461bcd60e51b815260040161054690612b4b565b60038054600181019091557fc2575a0e9e593c00f959f8c92f12db2869c3395a3b0502d05e2516446f71f85b0180546001600160a01b0319166001600160a01b038416908117909155604080516080810182528581526020808201849052825180820184526000808252838501919091526002606084015293845260048152919092208251805184936106239284929101906123a1565b506020828101516001830180546001600160a01b0319166001600160a01b039092169190911790556040830151805161066292600285019201906123a1565b50606082015160038201805460ff191660018360028111156106865761068661271e565b021790555050600980549150600061069d83612b30565b919050555050505050565b8051600b5481106106f05760405162461bcd60e51b8152602060048201526012602482015271139bdd0815985b1a59081319585d9948125960721b6044820152606401610546565b816000816060015160038111156107095761070961271e565b146107265760405162461bcd60e51b815260040161054690612b82565b60808301516001600160a01b038082166000908152600560205260409020541633146107645760405162461bcd60e51b815260040161054690612bb0565b608084015160005b6001600160a01b0382166000908152600d60205260409020548110156108485785516001600160a01b0383166000908152600d602052604090208054839081106107b8576107b8612b04565b9060005260206000209060040201600001541415610836576001600160a01b0382166000908152600d60205260409020805460039190839081106107fe576107fe612b04565b906000526020600020906004020160030160006101000a81548160ff021916908360038111156108305761083061271e565b02179055505b8061084081612b30565b91505061076c565b5060005b600c548110156108e3578551600c80548390811061086c5761086c612b04565b90600052602060002090600402016000015414156108d1576003600c828154811061089957610899612b04565b906000526020600020906004020160030160006101000a81548160ff021916908360038111156108cb576108cb61271e565b02179055505b806108db81612b30565b91505061084c565b508451604080516001600160a01b038416815233602082015280820192909252517fcfedd8a6cf86a82ac7dd3f04b1e86f248df069f9f15810bf8a52dabc8c7a25af9181900360600190a15050505050565b6001600160a01b0381166000908152600d60209081526040808320805482518185028101850190935280835260609492939192909184015b82821015610a1057838290600052602060002090600402016040518060a00160405290816000820154815260200160018201548152602001600282015481526020016003820160009054906101000a900460ff1660038111156109d2576109d261271e565b60038111156109e3576109e361271e565b81526003919091015461010090046001600160a01b0316602091820152908252600192909201910161096d565b505050509050919050565b80600081606001516003811115610a3457610a3461271e565b14610a515760405162461bcd60e51b815260040161054690612b82565b608082015182906001600160a01b03163314610aca5760405162461bcd60e51b815260206004820152603260248201527f4f6e6c7920656d706c6f796565206f662074686973206c656176652063616e2060448201527131b0b636103a3434b990333ab731ba34b7b760711b6064820152608401610546565b60005b336000908152600d6020526040902054811015610b8e578351336000908152600d60205260409020805483908110610b0757610b07612b04565b9060005260206000209060040201600001541415610b7c57336000908152600d6020526040902080546001919083908110610b4457610b44612b04565b906000526020600020906004020160030160006101000a81548160ff02191690836003811115610b7657610b7661271e565b02179055505b80610b8681612b30565b915050610acd565b5060005b600c54811015610c29578351600c805483908110610bb257610bb2612b04565b9060005260206000209060040201600001541415610c17576001600c8281548110610bdf57610bdf612b04565b906000526020600020906004020160030160006101000a81548160ff02191690836003811115610c1157610c1161271e565b02179055505b80610c2181612b30565b915050610b92565b5082516040805133815260208101929092527fb7ebc98aeb0d019f1d38bdecf34a056aa9be46ff8aed7cf80b640ff0073d6ac7910160405180910390a1505050565b60606000600b5467ffffffffffffffff811115610c8a57610c8a61255a565b604051908082528060200260200182016040528015610ce357816020015b6040805160a081018252600080825260208083018290529282018190526060820181905260808201528252600019909201910181610ca85790505b50905060005b600b548110156104d357600c8181548110610d0657610d06612b04565b90600052602060002090600402016040518060a00160405290816000820154815260200160018201548152602001600282015481526020016003820160009054906101000a900460ff166003811115610d6157610d6161271e565b6003811115610d7257610d7261271e565b81526003919091015461010090046001600160a01b03166020909101528251839083908110610da357610da3612b04565b60200260200101819052508080610db990612b30565b915050610ce9565b6001600160a01b038116600090815260066020908152604091829020805483518184028101840190945280845260609392830182828015610e2b57602002820191906000526020600020905b81546001600160a01b03168152600190910190602001808311610e0d575b50505050509050919050565b60013360009081526004602052604090206003015460ff166002811115610e6057610e6061271e565b14610e7d5760405162461bcd60e51b815260040161054690612c05565b33600081815260106020908152604091829020849055815192835282018390527fc687ccbce0cc89ceb74a46d6867e5268d2bb596e3b2b08bf139879cfa6f14bdd910160405180910390a150565b610ed3612425565b3360009081526004602052604090819020815160808101909252805482908290610efc90612c4c565b80601f0160208091040260200160405190810160405280929190818152602001828054610f2890612c4c565b8015610f755780601f10610f4a57610100808354040283529160200191610f75565b820191906000526020600020905b815481529060010190602001808311610f5857829003601f168201915b505050918352505060018201546001600160a01b03166020820152600282018054604090920191610fa590612c4c565b80601f0160208091040260200160405190810160405280929190818152602001828054610fd190612c4c565b801561101e5780601f10610ff35761010080835404028352916020019161101e565b820191906000526020600020905b81548152906001019060200180831161100157829003601f168201915b5050509183525050600382015460209091019060ff1660028111156110455761104561271e565b60028111156110565761105661271e565b905250919050565b60013360009081526004602052604090206003015460ff1660028111156110875761108761271e565b146110a45760405162461bcd60e51b815260040161054690612c05565b6001600160a01b03808316600090815260046020526040902060010154839116156110e15760405162461bcd60e51b815260040161054690612b4b565b6001805480820182557fb10e2d527612073b26eecdfd717e6a320cf44b4afac2b0732d9fcbe2b7fa0cf60180546001600160a01b0319166001600160a01b0386169081179091556040805160808101825287815260208082018490528183018a905260608201949094526000928352600484529120815180519293849361116b92849201906123a1565b506020828101516001830180546001600160a01b0319166001600160a01b03909216919091179055604083015180516111aa92600285019201906123a1565b50606082015160038201805460ff191660018360028111156111ce576111ce61271e565b021790555050506001600160a01b038416600090815260106020526040812084905560088054916111fe83612b30565b9190505550505050505050565b60013360009081526004602052604090206003015460ff1660028111156112345761123461271e565b146112515760405162461bcd60e51b815260040161054690612c05565b6001600160a01b038082166000908152600460205260409020600101548291161561128e5760405162461bcd60e51b815260040161054690612b4b565b600280546001810182557f405787fa12a823e0f2b7631cc41b3ba8828b3321ca811111fa75cd3aa3bb5ace0180546001600160a01b0319166001600160a01b03851617905533600090815260046020526040812090910180546112f090612c4c565b80601f016020809104026020016040519081016040528092919081815260200182805461131c90612c4c565b80156113695780601f1061133e57610100808354040283529160200191611369565b820191906000526020600020905b81548152906001019060200180831161134c57829003601f168201915b5050505050905060006040518060800160405280868152602001856001600160a01b03168152602001838152602001600060028111156113ab576113ab61271e565b90526001600160a01b038516600090815260046020908152604090912082518051939450849391926113e2928492909101906123a1565b506020828101516001830180546001600160a01b0319166001600160a01b039092169190911790556040830151805161142192600285019201906123a1565b50606082015160038201805460ff191660018360028111156114455761144561271e565b02179055505033600081815260066020908152604080832080546001810182559084528284200180546001600160a01b038b166001600160a01b03199182168117909255908452600583528184208054909116909417909355600a54600e90915291812091909155600780549250906114bd83612b30565b91905055505050505050565b600660205281600052604060002081815481106114e557600080fd5b6000918252602090912001546001600160a01b03169150829050565b8051600b5481106115495760405162461bcd60e51b8152602060048201526012602482015271139bdd0815985b1a59081319585d9948125960721b6044820152606401610546565b816000816060015160038111156115625761156261271e565b1461157f5760405162461bcd60e51b815260040161054690612b82565b60808301516001600160a01b038082166000908152600560205260409020541633146115bd5760405162461bcd60e51b815260040161054690612bb0565b60208085015133600090815260108352604080822054600f85528183208484529094529020549091116116645760405162461bcd60e51b815260206004820152604360248201527f4c65617665204c696d697420666f7220656d706c6f7965722077696c6c20626560448201527f2065786365656465642069662074686973206c6561766520697320617070726f6064820152621d995960ea1b608482015260a401610546565b608085015160005b6001600160a01b0382166000908152600d60205260409020548110156117485786516001600160a01b0383166000908152600d602052604090208054839081106116b8576116b8612b04565b9060005260206000209060040201600001541415611736576001600160a01b0382166000908152600d60205260409020805460029190839081106116fe576116fe612b04565b906000526020600020906004020160030160006101000a81548160ff021916908360038111156117305761173061271e565b02179055505b8061174081612b30565b91505061166c565b5060005b600c548110156117e3578651600c80548390811061176c5761176c612b04565b90600052602060002090600402016000015414156117d1576002600c828154811061179957611799612b04565b906000526020600020906004020160030160006101000a81548160ff021916908360038111156117cb576117cb61271e565b02179055505b806117db81612b30565b91505061174c565b50336000908152600f60209081526040808320898301518452909152812080549161180d83612b30565b90915550506001600160a01b0381166000908152600e6020526040812080549161183683612c81565b90915550508551604080516001600160a01b038416815233602082015280820192909252517fd77ba574eae3c58a23e6b228fae2d5390d3c715492024b607e5626321c5cc8ff9181900360600190a1505050505050565b6040805160a0810182526000808252602082018190529181018290526060810182905260808101829052905b600c548110156119a45782600c82815481106118d7576118d7612b04565b906000526020600020906004020160000154141561199257600c818154811061190257611902612b04565b90600052602060002090600402016040518060a00160405290816000820154815260200160018201548152602001600282015481526020016003820160009054906101000a900460ff16600381111561195d5761195d61271e565b600381111561196e5761196e61271e565b81526003919091015461010090046001600160a01b03166020909101529392505050565b8061199c81612b30565b9150506118b9565b5060405162461bcd60e51b815260206004820152600f60248201526e1319585d99481b9bdd08199bdd5b99608a1b6044820152606401610546565b6001600160a01b038082166000908152600560205260409020548291163314611a1a5760405162461bcd60e51b815260040161054690612bb0565b60005b600254811015611b1f57826001600160a01b031660028281548110611a4457611a44612b04565b6000918252602090912001546001600160a01b03161415611b0d5760028054611a6f90600190612c98565b81548110611a7f57611a7f612b04565b600091825260209091200154600280546001600160a01b039092169183908110611aab57611aab612b04565b9060005260206000200160006101000a8154816001600160a01b0302191690836001600160a01b031602179055506002805480611aea57611aea612caf565b600082815260209020810160001990810180546001600160a01b03191690550190555b80611b1781612b30565b915050611a1d565b5060005b33600090815260066020526040902054811015611c655733600090815260066020526040902080546001600160a01b038516919083908110611b6757611b67612b04565b6000918252602090912001546001600160a01b03161415611c53573360009081526006602052604090208054611b9f90600190612c98565b81548110611baf57611baf612b04565b60009182526020808320909101543383526006909152604090912080546001600160a01b039092169183908110611be857611be8612b04565b600091825260208083209190910180546001600160a01b0319166001600160a01b039490941693909317909255338152600690915260409020805480611c3057611c30612caf565b600082815260209020810160001990810180546001600160a01b03191690550190555b80611c5d81612b30565b915050611b23565b506001600160a01b038216600090815260046020526040812090611c898282612466565b6001820180546001600160a01b0319169055611ca9600283016000612466565b50600301805460ff191690556001600160a01b038216600090815260056020908152604080832080546001600160a01b0319169055600d9091528120611cee916124a3565b6001600160a01b0382166000908152600e602052604081208190556007805491611d1783612c81565b91905055505050565b6060600060075467ffffffffffffffff811115611d3f57611d3f61255a565b604051908082528060200260200182016040528015611d68578160200160208202803683370190505b50905060005b6007548110156104d35760028181548110611d8b57611d8b612b04565b9060005260206000200160009054906101000a90046001600160a01b0316828281518110611dbb57611dbb612b04565b6001600160a01b039092166020928302919091019091015280611ddd81612b30565b915050611d6e565b6001600160a01b0381166000908152600460205260409020805460609190611e0c90612c4c565b80601f0160208091040260200160405190810160405280929190818152602001828054611e3890612c4c565b8015610e2b5780601f10611e5a57610100808354040283529160200191610e2b565b820191906000526020600020905b815481529060010190602001808311611e685750939695505050505050565b3360009081526004602052604081206003015460ff166002811115611eae57611eae61271e565b14611f095760405162461bcd60e51b815260206004820152602560248201527f4f6e6c7920656d706c6f796565732063616e2063616c6c20746869732066756e60448201526431ba34b7b760d91b6064820152608401610546565b60005b825181101561215a5760006040518060a00160405280600b548152602001858481518110611f3c57611f3c612b04565b60200260200101518152602001848481518110611f5b57611f5b612b04565b6020026020010151815260200160006003811115611f7b57611f7b61271e565b815233602090910152600b80549192506000611f9683612b30565b9091555050336000908152600d6020908152604080832080546001818101835591855293839020855160049095020193845591840151838301558301516002830155606083015160038084018054869594919260ff19909116919084908111156120025761200261271e565b021790555060809190910151600391820180546001600160a01b0390921661010002610100600160a81b0319909216919091179055600c805460018181018355600092909252835160049091027fdf6966c971051c3d54ec59162606531493a51404a002842f56009d7e5cf4a8c7810191825560208501517fdf6966c971051c3d54ec59162606531493a51404a002842f56009d7e5cf4a8c882015560408501517fdf6966c971051c3d54ec59162606531493a51404a002842f56009d7e5cf4a8c982015560608501517fdf6966c971051c3d54ec59162606531493a51404a002842f56009d7e5cf4a8ca9091018054869593949293919260ff199091169184908111156121125761211261271e565b021790555060809190910151600390910180546001600160a01b0390921661010002610100600160a81b0319909216919091179055508061215281612b30565b915050611f0c565b506040513381527f7f7280556f364f817076fdba4458633238c3fa6f3199f7c96b08db689033e8f09060200160405180910390a15050565b6004602052600090815260409020805481906121ad90612c4c565b80601f01602080910402602001604051908101604052809291908181526020018280546121d990612c4c565b80156122265780601f106121fb57610100808354040283529160200191612226565b820191906000526020600020905b81548152906001019060200180831161220957829003601f168201915b505050600184015460028501805494956001600160a01b0390921694919350915061225090612c4c565b80601f016020809104026020016040519081016040528092919081815260200182805461227c90612c4c565b80156122c95780601f1061229e576101008083540402835291602001916122c9565b820191906000526020600020905b8154815290600101906020018083116122ac57829003601f168201915b5050506003909301549192505060ff1684565b6060600060095467ffffffffffffffff8111156122fb576122fb61255a565b604051908082528060200260200182016040528015612324578160200160208202803683370190505b50905060005b6009548110156104d3576003818154811061234757612347612b04565b9060005260206000200160009054906101000a90046001600160a01b031682828151811061237757612377612b04565b6001600160a01b03909216602092830291909101909101528061239981612b30565b91505061232a565b8280546123ad90612c4c565b90600052602060002090601f0160209004810192826123cf5760008555612415565b82601f106123e857805160ff1916838001178555612415565b82800160010185558215612415579182015b828111156124155782518255916020019190600101906123fa565b506124219291506124c4565b5090565b60405180608001604052806060815260200160006001600160a01b0316815260200160608152602001600060028111156124615761246161271e565b905290565b50805461247290612c4c565b6000825580601f10612482575050565b601f0160209004906000526020600020908101906124a091906124c4565b50565b50805460008255600402906000526020600020908101906124a091906124d9565b5b8082111561242157600081556001016124c5565b5b808211156124215760008082556001820181905560028201556003810180546001600160a81b03191690556004016124da565b6020808252825182820181905260009190848201906040850190845b8181101561254e5783516001600160a01b031683529284019291840191600101612529565b50909695505050505050565b634e487b7160e01b600052604160045260246000fd5b604051601f8201601f1916810167ffffffffffffffff811182821017156125995761259961255a565b604052919050565b600082601f8301126125b257600080fd5b813567ffffffffffffffff8111156125cc576125cc61255a565b6125df601f8201601f1916602001612570565b8181528460208386010111156125f457600080fd5b816020850160208301376000918101602001919091529392505050565b80356001600160a01b038116811461262857600080fd5b919050565b6000806040838503121561264057600080fd5b823567ffffffffffffffff81111561265757600080fd5b612663858286016125a1565b92505061267260208401612611565b90509250929050565b600060a0828403121561268d57600080fd5b60405160a0810181811067ffffffffffffffff821117156126b0576126b061255a565b80604052508235815260208301356020820152604083013560408201526060830135600481106126df57600080fd5b60608201526126f060808401612611565b60808201529392505050565b60006020828403121561270e57600080fd5b61271782612611565b9392505050565b634e487b7160e01b600052602160045260246000fd5b8051825260208101516020830152604081015160408301526060810151600481106127615761276161271e565b60608301526080908101516001600160a01b0316910152565b6020808252825182820181905260009190848201906040850190845b8181101561254e576127a9838551612734565b9284019260a09290920191600101612796565b6000602082840312156127ce57600080fd5b5035919050565b6000815180845260005b818110156127fb576020818501810151868301820152016127df565b8181111561280d576000602083870101525b50601f01601f19169290920160200192915050565b600381106128325761283261271e565b9052565b60208152600082516080602084015261285260a08401826127d5565b60208501516001600160a01b0316604085810191909152850151848203601f1901606086015290915061288582826127d5565b915050606084015161289a6080850182612822565b509392505050565b600080600080608085870312156128b857600080fd5b843567ffffffffffffffff808211156128d057600080fd5b6128dc888389016125a1565b955060208701359150808211156128f257600080fd5b506128ff878288016125a1565b93505061290e60408601612611565b9396929550929360600135925050565b6000806040838503121561293157600080fd5b61293a83612611565b946020939093013593505050565b60a081016129568284612734565b92915050565b60208152600061271760208301846127d5565b600067ffffffffffffffff8211156129895761298961255a565b5060051b60200190565b600082601f8301126129a457600080fd5b813560206129b96129b48361296f565b612570565b82815260059290921b840181019181810190868411156129d857600080fd5b8286015b848110156129f357803583529183019183016129dc565b509695505050505050565b60008060408385031215612a1157600080fd5b823567ffffffffffffffff80821115612a2957600080fd5b818501915085601f830112612a3d57600080fd5b81356020612a4d6129b48361296f565b82815260059290921b84018101918181019089841115612a6c57600080fd5b948201945b83861015612a8a57853582529482019490820190612a71565b96505086013592505080821115612aa057600080fd5b50612aad85828601612993565b9150509250929050565b608081526000612aca60808301876127d5565b6001600160a01b03861660208401528281036040840152612aeb81866127d5565b915050612afb6060830184612822565b95945050505050565b634e487b7160e01b600052603260045260246000fd5b634e487b7160e01b600052601160045260246000fd5b6000600019821415612b4457612b44612b1a565b5060010190565b6020808252601c908201527f557365722068617320616c7265616479206265656e2061646465642100000000604082015260600190565b6020808252601490820152734c65617665206973206e6f742070656e64696e6760601b604082015260600190565b60208082526035908201527f4f6e6c7920656d706c6f796572206f66207468697320656d706c6f796565206360408201527430b71031b0b636103a3434b990333ab731ba34b7b760591b606082015260800190565b60208082526027908201527f4f6e6c7920616e20656d706c6f7965722063616e2063616c6c207468697320666040820152663ab731ba34b7b760c91b606082015260800190565b600181811c90821680612c6057607f821691505b602082108114156104d357634e487b7160e01b600052602260045260246000fd5b600081612c9057612c90612b1a565b506000190190565b600082821015612caa57612caa612b1a565b500390565b634e487b7160e01b600052603160045260246000fdfea2646970667358221220a202c6f4d2a2f1a950b726e83c657288e6d039fadf4e9f8ea71bea4784e1b9df64736f6c634300080b0033",
  "immutableReferences": {},
  "source": "// SPDX-License-Identifier: MIT\npragma solidity >=0.4.22 <0.9.0;\n\ncontract ClearLeth {\n    ///////////////////// USERS ATTRIBUTES /////////////////////\n    address public contractOwner;\n\n    address[] employers;\n    address[] employees;\n    address[] authorities;\n\n    mapping(address => user) public addressToUser;\n\n    mapping(address => address) public employeeToEmployer;\n    mapping(address => address[]) public employerToEmployee;\n\n    uint256 public numOfEmployees = 0;\n    uint256 public numOfEmployers = 0;\n    uint256 public numOfAuthorities = 0;\n\n    enum role {\n        employee,\n        employer,\n        authority\n    }\n\n    struct user {\n        string name;\n        address wallet;\n        string company;\n        role role;\n    }\n\n    ///////////////////// LEAVE ATTRIBUTES /////////////////////\n    struct leave {\n        uint256 id;\n        uint256 date; // unix timestamp\n        bytes32 reason;\n        leaveStatus status;\n        address employee;\n    }\n\n    enum leaveStatus {\n        pending,\n        cancelled,\n        approved,\n        rejected\n    }\n\n    uint256 public leaveAmount;\n    uint256 public numLeaves = 0;\n    leave[] allLeaves;\n\n    mapping(address => leave[]) employeeToLeaves;\n    mapping(address => uint256) employeeLeaveBalance;\n    mapping(address => mapping(uint256 => uint256)) datesToEmployeesApplied;\n    mapping(address => uint256) employerToLeaveLimit;\n\n    ///////////////////// LEAVE EVENTS /////////////////////\n    event LeaveApplied(address employee);\n    event LeaveApproved(address employee, address employer, uint256 leaveId);\n    event LeaveCancelled(address employee, uint256 leaveId);\n    event LeaveRejected(address employee, address employer, uint256 leaveId);\n    event LeaveLimitSet(address employer, uint256 limit);\n\n    // Owner of contract will be able to add employers and is an employer\n    // leaveAmount is also set when deployed\n    constructor(uint256 _leaveAmount) {\n        contractOwner = msg.sender;\n        employers.push(msg.sender);\n        numOfEmployers++;\n\n        // new user object\n        user memory newUser = user(\"Owner\", msg.sender, \"NUS\", role.employer);\n\n        addressToUser[msg.sender] = newUser;\n        leaveAmount = _leaveAmount;\n    }\n\n    ///////////////////// MODIFIERS /////////////////////\n    modifier isOwner() {\n        require(\n            contractOwner == msg.sender,\n            \"Only the contract owner can call this function\"\n        );\n        _;\n    }\n\n    modifier isEmployer() {\n        require(\n            addressToUser[msg.sender].role == role.employer,\n            \"Only an employer can call this function\"\n        );\n        _;\n    }\n\n    modifier isEmployee() {\n        require(\n            addressToUser[msg.sender].role == role.employee,\n            \"Only employees can call this function\"\n        );\n        _;\n    }\n\n    modifier isAuthority() {\n        require(\n            addressToUser[msg.sender].role == role.authority,\n            \"Only authorities can call this function\"\n        );\n        _;\n    }\n\n    modifier employerOnly(address employeeAddress) {\n        require(\n            employeeToEmployer[employeeAddress] == msg.sender,\n            \"Only employer of this employee can call this function\"\n        );\n        _;\n    }\n\n    // Check if user has been added\n    modifier notAdded(address _employerAddress) {\n        require(\n            addressToUser[_employerAddress].wallet == address(0),\n            \"User has already been added!\"\n        );\n        _;\n    }\n\n    modifier validLeaveId(uint256 leaveId) {\n        require(leaveId < numLeaves, \"Not Valid Leave Id\");\n        _;\n    }\n\n    modifier validLeaveStatus(leave memory leaveApplication) {\n        require(\n            leaveApplication.status == leaveStatus.pending,\n            \"Leave is not pending\"\n        );\n        _;\n    }\n\n    modifier isEmployeeOfLeave(leave memory _leave) {\n        require(\n            _leave.employee == msg.sender,\n            \"Only employee of this leave can call this function\"\n        );\n        _;\n    }\n\n    modifier leaveLimitNotExceeded(uint256 date) {\n        require(\n            datesToEmployeesApplied[msg.sender][date] <\n                employerToLeaveLimit[msg.sender],\n            \"Leave Limit for employer will be exceeded if this leave is approved\"\n        );\n        _;\n    }\n\n    ///////////////////// USER FUNCTIONS /////////////////////\n    function addEmployer(\n        string memory _company,\n        string memory _employerName,\n        address _employerAddress,\n        uint256 _leaveLimit\n    ) public isEmployer notAdded(_employerAddress) {\n        employers.push(_employerAddress);\n\n        // new user object\n        user memory newUser = user(\n            _employerName,\n            _employerAddress,\n            _company,\n            role.employer\n        );\n\n        addressToUser[_employerAddress] = newUser;\n        employerToLeaveLimit[_employerAddress] = _leaveLimit;\n        numOfEmployers++;\n    }\n\n    function addEmployee(string memory _employeeName, address _employeeAddress)\n        public\n        isEmployer\n        notAdded(_employeeAddress)\n    {\n        employees.push(_employeeAddress);\n\n        // new user object\n        string memory company = addressToUser[msg.sender].company;\n        user memory newUser = user(\n            _employeeName,\n            _employeeAddress,\n            company,\n            role.employee\n        );\n\n        addressToUser[_employeeAddress] = newUser;\n        employerToEmployee[msg.sender].push(_employeeAddress);\n        employeeToEmployer[_employeeAddress] = msg.sender;\n        employeeLeaveBalance[_employeeAddress] = leaveAmount;\n        numOfEmployees++;\n    }\n\n    function addAuthority(\n        string memory _authorityName,\n        address _authorityAddress\n    ) public isOwner notAdded(_authorityAddress) {\n        authorities.push(_authorityAddress);\n\n        // new user object\n        user memory newUser = user(\n            _authorityName,\n            _authorityAddress,\n            \"\",\n            role.authority\n        );\n\n        addressToUser[_authorityAddress] = newUser;\n        numOfAuthorities++;\n    }\n\n    function removeEmployee(address _employeeAddress)\n        public\n        employerOnly(_employeeAddress)\n    {\n        for (uint256 i = 0; i < employees.length; i++) {\n            if (employees[i] == _employeeAddress) {\n                employees[i] = employees[employees.length - 1];\n                employees.pop();\n            }\n        }\n\n        for (uint256 j = 0; j < employerToEmployee[msg.sender].length; j++) {\n            if (employerToEmployee[msg.sender][j] == _employeeAddress) {\n                employerToEmployee[msg.sender][j] = employerToEmployee[\n                    msg.sender\n                ][employerToEmployee[msg.sender].length - 1];\n                employerToEmployee[msg.sender].pop();\n            }\n        }\n\n        delete addressToUser[_employeeAddress];\n        delete employeeToEmployer[_employeeAddress];\n        delete employeeToLeaves[_employeeAddress];\n        delete employeeLeaveBalance[_employeeAddress];\n        numOfEmployees--;\n    }\n\n    ///////////////////// LEAVE FUNCTIONS /////////////////////\n    function applyLeaves(uint256[] memory dates, bytes32[] memory reason)\n        public\n        isEmployee\n    {\n        for (uint256 i = 0; i < dates.length; i++) {\n            leave memory newLeave = leave(\n                numLeaves,\n                dates[i],\n                reason[i],\n                leaveStatus.pending,\n                msg.sender\n            );\n\n            numLeaves++;\n            employeeToLeaves[msg.sender].push(newLeave);\n            allLeaves.push(newLeave);\n        }\n\n        emit LeaveApplied(msg.sender);\n    }\n\n    function cancelLeave(leave memory _leave)\n        public\n        validLeaveStatus(_leave)\n        isEmployeeOfLeave(_leave)\n    {\n        for (uint256 i = 0; i < employeeToLeaves[msg.sender].length; i++) {\n            if (employeeToLeaves[msg.sender][i].id == _leave.id) {\n                employeeToLeaves[msg.sender][i].status = leaveStatus.cancelled;\n            }\n        }\n\n        for (uint256 j = 0; j < allLeaves.length; j++) {\n            if (allLeaves[j].id == _leave.id) {\n                allLeaves[j].status = leaveStatus.cancelled;\n            }\n        }\n\n        emit LeaveCancelled(msg.sender, _leave.id);\n    }\n\n    function approveLeave(leave memory leaveToApprove)\n        public\n        validLeaveId(leaveToApprove.id)\n        validLeaveStatus(leaveToApprove)\n        employerOnly(leaveToApprove.employee)\n        leaveLimitNotExceeded(leaveToApprove.date)\n    {\n        address employeeAddress = leaveToApprove.employee;\n        for (uint256 i = 0; i < employeeToLeaves[employeeAddress].length; i++) {\n            if (employeeToLeaves[employeeAddress][i].id == leaveToApprove.id) {\n                employeeToLeaves[employeeAddress][i].status = leaveStatus\n                    .approved;\n            }\n        }\n\n        for (uint256 j = 0; j < allLeaves.length; j++) {\n            if (allLeaves[j].id == leaveToApprove.id) {\n                allLeaves[j].status = leaveStatus.approved;\n            }\n        }\n\n        datesToEmployeesApplied[msg.sender][leaveToApprove.date]++;\n        employeeLeaveBalance[employeeAddress]--;\n        emit LeaveApproved(employeeAddress, msg.sender, leaveToApprove.id);\n    }\n\n    function rejectLeave(leave memory leaveToReject)\n        public\n        validLeaveId(leaveToReject.id)\n        validLeaveStatus(leaveToReject)\n        employerOnly(leaveToReject.employee)\n    {\n        address employeeAddress = leaveToReject.employee;\n        for (uint256 i = 0; i < employeeToLeaves[employeeAddress].length; i++) {\n            if (employeeToLeaves[employeeAddress][i].id == leaveToReject.id) {\n                employeeToLeaves[employeeAddress][i].status = leaveStatus\n                    .rejected;\n            }\n        }\n\n        for (uint256 j = 0; j < allLeaves.length; j++) {\n            if (allLeaves[j].id == leaveToReject.id) {\n                allLeaves[j].status = leaveStatus.rejected;\n            }\n        }\n\n        emit LeaveRejected(employeeAddress, msg.sender, leaveToReject.id);\n    }\n\n    function setLeaveLimit(uint256 _limit) public isEmployer {\n        employerToLeaveLimit[msg.sender] = _limit;\n        emit LeaveLimitSet(msg.sender, _limit);\n    }\n\n    ///////////////////// USER GETTERS /////////////////////\n    function getUser() public view returns (user memory) {\n        return addressToUser[msg.sender];\n    }\n\n    function getUserNameOf(address _userAddress)\n        public\n        view\n        returns (string memory)\n    {\n        return addressToUser[_userAddress].name;\n    }\n\n    function getAllEmployees() public view returns (address[] memory) {\n        address[] memory employeeArray = new address[](numOfEmployees);\n        for (uint256 i = 0; i < numOfEmployees; i++) {\n            employeeArray[i] = employees[i];\n        }\n\n        return employeeArray;\n    }\n\n    function getAllEmployers() public view returns (address[] memory) {\n        address[] memory employerArray = new address[](numOfEmployers);\n        for (uint256 i = 0; i < numOfEmployers; i++) {\n            employerArray[i] = employers[i];\n        }\n\n        return employerArray;\n    }\n\n    function getAllAuthorities() public view returns (address[] memory) {\n        address[] memory authoritiesArray = new address[](numOfAuthorities);\n        for (uint256 i = 0; i < numOfAuthorities; i++) {\n            authoritiesArray[i] = authorities[i];\n        }\n        return authoritiesArray;\n    }\n\n    function getEmployeesByEmployer(address _employerAddress)\n        public\n        view\n        returns (address[] memory)\n    {\n        return employerToEmployee[_employerAddress];\n    }\n\n    ///////////////////// LEAVE GETTERS /////////////////////\n    function getLeaveBalance() public view returns (uint256) {\n        return employeeLeaveBalance[msg.sender];\n    }\n\n    function getLeaveInformation(uint256 leaveId)\n        public\n        view\n        returns (leave memory)\n    {\n        for (uint256 i = 0; i < allLeaves.length; i++) {\n            if (allLeaves[i].id == leaveId) {\n                return allLeaves[i];\n            }\n        }\n        revert(\"Leave not found\");\n    }\n\n    function getLeaveApplications(address employeeAddress)\n        public\n        view\n        returns (leave[] memory)\n    {\n        return employeeToLeaves[employeeAddress];\n    }\n\n    function getAllLeaves() public view returns (leave[] memory) {\n        leave[] memory leavesArray = new leave[](numLeaves);\n        for (uint256 i = 0; i < numLeaves; i++) {\n            leavesArray[i] = allLeaves[i];\n        }\n        return leavesArray;\n    }\n}\n",
  "sourcePath": "/Users/ryyant/IS4302-project/contracts/ClearLeth.sol",
  "compiler": {
    "name": "solc",
    "version": "0.8.11+commit.d7f03943.Emscripten.clang"
  },
  "schemaVersion": "3.4.4",
  "updatedAt": "2022-04-14T15:58:11.078Z",
  "networkType": "ethereum",
  "devdoc": {
    "kind": "dev",
    "methods": {},
    "version": 1
  },
  "userdoc": {
    "kind": "user",
    "methods": {},
    "version": 1
  }
}