{
  "contractName": "ClearLeth",
  "abi": [
    {
      "inputs": [
        {
          "internalType": "uint256",
          "name": "_leaveAmount",
          "type": "uint256"
        }
      ],
      "stateMutability": "nonpayable",
      "type": "constructor"
    },
    {
      "anonymous": false,
      "inputs": [
        {
          "indexed": false,
          "internalType": "address",
          "name": "employee",
          "type": "address"
        }
      ],
      "name": "LeaveApplied",
      "type": "event"
    },
    {
      "anonymous": false,
      "inputs": [
        {
          "indexed": false,
          "internalType": "address",
          "name": "employee",
          "type": "address"
        },
        {
          "indexed": false,
          "internalType": "address",
          "name": "employer",
          "type": "address"
        },
        {
          "indexed": false,
          "internalType": "uint256",
          "name": "leaveId",
          "type": "uint256"
        }
      ],
      "name": "LeaveApproved",
      "type": "event"
    },
    {
      "anonymous": false,
      "inputs": [
        {
          "indexed": false,
          "internalType": "address",
          "name": "employee",
          "type": "address"
        },
        {
          "indexed": false,
          "internalType": "uint256",
          "name": "leaveId",
          "type": "uint256"
        }
      ],
      "name": "LeaveCancelled",
      "type": "event"
    },
    {
      "anonymous": false,
      "inputs": [
        {
          "indexed": false,
          "internalType": "address",
          "name": "employer",
          "type": "address"
        },
        {
          "indexed": false,
          "internalType": "uint256",
          "name": "limit",
          "type": "uint256"
        }
      ],
      "name": "LeaveLimitSet",
      "type": "event"
    },
    {
      "anonymous": false,
      "inputs": [
        {
          "indexed": false,
          "internalType": "address",
          "name": "employee",
          "type": "address"
        },
        {
          "indexed": false,
          "internalType": "address",
          "name": "employer",
          "type": "address"
        },
        {
          "indexed": false,
          "internalType": "uint256",
          "name": "leaveId",
          "type": "uint256"
        }
      ],
      "name": "LeaveRejected",
      "type": "event"
    },
    {
      "inputs": [
        {
          "internalType": "address",
          "name": "",
          "type": "address"
        }
      ],
      "name": "addressToUser",
      "outputs": [
        {
          "internalType": "string",
          "name": "name",
          "type": "string"
        },
        {
          "internalType": "address",
          "name": "wallet",
          "type": "address"
        },
        {
          "internalType": "string",
          "name": "company",
          "type": "string"
        },
        {
          "internalType": "enum ClearLeth.role",
          "name": "role",
          "type": "uint8"
        }
      ],
      "stateMutability": "view",
      "type": "function",
      "constant": true
    },
    {
      "inputs": [],
      "name": "contractOwner",
      "outputs": [
        {
          "internalType": "address",
          "name": "",
          "type": "address"
        }
      ],
      "stateMutability": "view",
      "type": "function",
      "constant": true
    },
    {
      "inputs": [
        {
          "internalType": "address",
          "name": "",
          "type": "address"
        }
      ],
      "name": "employeeToEmployer",
      "outputs": [
        {
          "internalType": "address",
          "name": "",
          "type": "address"
        }
      ],
      "stateMutability": "view",
      "type": "function",
      "constant": true
    },
    {
      "inputs": [
        {
          "internalType": "address",
          "name": "",
          "type": "address"
        },
        {
          "internalType": "uint256",
          "name": "",
          "type": "uint256"
        }
      ],
      "name": "employerToEmployee",
      "outputs": [
        {
          "internalType": "address",
          "name": "",
          "type": "address"
        }
      ],
      "stateMutability": "view",
      "type": "function",
      "constant": true
    },
    {
      "inputs": [],
      "name": "leaveAmount",
      "outputs": [
        {
          "internalType": "uint256",
          "name": "",
          "type": "uint256"
        }
      ],
      "stateMutability": "view",
      "type": "function",
      "constant": true
    },
    {
      "inputs": [],
      "name": "numLeaves",
      "outputs": [
        {
          "internalType": "uint256",
          "name": "",
          "type": "uint256"
        }
      ],
      "stateMutability": "view",
      "type": "function",
      "constant": true
    },
    {
      "inputs": [],
      "name": "numOfAuthorities",
      "outputs": [
        {
          "internalType": "uint256",
          "name": "",
          "type": "uint256"
        }
      ],
      "stateMutability": "view",
      "type": "function",
      "constant": true
    },
    {
      "inputs": [],
      "name": "numOfEmployees",
      "outputs": [
        {
          "internalType": "uint256",
          "name": "",
          "type": "uint256"
        }
      ],
      "stateMutability": "view",
      "type": "function",
      "constant": true
    },
    {
      "inputs": [],
      "name": "numOfEmployers",
      "outputs": [
        {
          "internalType": "uint256",
          "name": "",
          "type": "uint256"
        }
      ],
      "stateMutability": "view",
      "type": "function",
      "constant": true
    },
    {
      "inputs": [],
      "name": "getUser",
      "outputs": [
        {
          "components": [
            {
              "internalType": "string",
              "name": "name",
              "type": "string"
            },
            {
              "internalType": "address",
              "name": "wallet",
              "type": "address"
            },
            {
              "internalType": "string",
              "name": "company",
              "type": "string"
            },
            {
              "internalType": "enum ClearLeth.role",
              "name": "role",
              "type": "uint8"
            }
          ],
          "internalType": "struct ClearLeth.user",
          "name": "",
          "type": "tuple"
        }
      ],
      "stateMutability": "view",
      "type": "function",
      "constant": true
    },
    {
      "inputs": [
        {
          "internalType": "address",
          "name": "_userAddress",
          "type": "address"
        }
      ],
      "name": "getUserNameOf",
      "outputs": [
        {
          "internalType": "string",
          "name": "",
          "type": "string"
        }
      ],
      "stateMutability": "view",
      "type": "function",
      "constant": true
    },
    {
      "inputs": [
        {
          "internalType": "string",
          "name": "_company",
          "type": "string"
        },
        {
          "internalType": "string",
          "name": "_employerName",
          "type": "string"
        },
        {
          "internalType": "address",
          "name": "_employerAddress",
          "type": "address"
        }
      ],
      "name": "addEmployer",
      "outputs": [],
      "stateMutability": "nonpayable",
      "type": "function"
    },
    {
      "inputs": [
        {
          "internalType": "string",
          "name": "_employeeName",
          "type": "string"
        },
        {
          "internalType": "address",
          "name": "_employeeAddress",
          "type": "address"
        }
      ],
      "name": "addEmployee",
      "outputs": [],
      "stateMutability": "nonpayable",
      "type": "function"
    },
    {
      "inputs": [
        {
          "internalType": "string",
          "name": "_authorityName",
          "type": "string"
        },
        {
          "internalType": "address",
          "name": "_authorityAddress",
          "type": "address"
        }
      ],
      "name": "addAuthority",
      "outputs": [],
      "stateMutability": "nonpayable",
      "type": "function"
    },
    {
      "inputs": [
        {
          "internalType": "address",
          "name": "_employeeAddress",
          "type": "address"
        }
      ],
      "name": "removeEmployee",
      "outputs": [],
      "stateMutability": "nonpayable",
      "type": "function"
    },
    {
      "inputs": [
        {
          "internalType": "address",
          "name": "_employerAddress",
          "type": "address"
        }
      ],
      "name": "getEmployeesByEmployer",
      "outputs": [
        {
          "internalType": "address[]",
          "name": "",
          "type": "address[]"
        }
      ],
      "stateMutability": "view",
      "type": "function",
      "constant": true
    },
    {
      "inputs": [],
      "name": "getAllEmployees",
      "outputs": [
        {
          "internalType": "address[]",
          "name": "",
          "type": "address[]"
        }
      ],
      "stateMutability": "view",
      "type": "function",
      "constant": true
    },
    {
      "inputs": [],
      "name": "getAllEmployers",
      "outputs": [
        {
          "internalType": "address[]",
          "name": "",
          "type": "address[]"
        }
      ],
      "stateMutability": "view",
      "type": "function",
      "constant": true
    },
    {
      "inputs": [],
      "name": "getAllAuthorities",
      "outputs": [
        {
          "internalType": "address[]",
          "name": "",
          "type": "address[]"
        }
      ],
      "stateMutability": "view",
      "type": "function",
      "constant": true
    },
    {
      "inputs": [
        {
          "internalType": "uint256[]",
          "name": "dates",
          "type": "uint256[]"
        },
        {
          "internalType": "bytes32[]",
          "name": "reason",
          "type": "bytes32[]"
        }
      ],
      "name": "applyLeaves",
      "outputs": [],
      "stateMutability": "nonpayable",
      "type": "function"
    },
    {
      "inputs": [
        {
          "components": [
            {
              "internalType": "uint256",
              "name": "id",
              "type": "uint256"
            },
            {
              "internalType": "uint256",
              "name": "date",
              "type": "uint256"
            },
            {
              "internalType": "bytes32",
              "name": "reason",
              "type": "bytes32"
            },
            {
              "internalType": "enum ClearLeth.leaveStatus",
              "name": "status",
              "type": "uint8"
            },
            {
              "internalType": "address",
              "name": "employee",
              "type": "address"
            }
          ],
          "internalType": "struct ClearLeth.leave",
          "name": "_leave",
          "type": "tuple"
        }
      ],
      "name": "cancelLeave",
      "outputs": [],
      "stateMutability": "nonpayable",
      "type": "function"
    },
    {
      "inputs": [
        {
          "components": [
            {
              "internalType": "uint256",
              "name": "id",
              "type": "uint256"
            },
            {
              "internalType": "uint256",
              "name": "date",
              "type": "uint256"
            },
            {
              "internalType": "bytes32",
              "name": "reason",
              "type": "bytes32"
            },
            {
              "internalType": "enum ClearLeth.leaveStatus",
              "name": "status",
              "type": "uint8"
            },
            {
              "internalType": "address",
              "name": "employee",
              "type": "address"
            }
          ],
          "internalType": "struct ClearLeth.leave",
          "name": "leaveToApprove",
          "type": "tuple"
        }
      ],
      "name": "approveLeave",
      "outputs": [],
      "stateMutability": "nonpayable",
      "type": "function"
    },
    {
      "inputs": [
        {
          "components": [
            {
              "internalType": "uint256",
              "name": "id",
              "type": "uint256"
            },
            {
              "internalType": "uint256",
              "name": "date",
              "type": "uint256"
            },
            {
              "internalType": "bytes32",
              "name": "reason",
              "type": "bytes32"
            },
            {
              "internalType": "enum ClearLeth.leaveStatus",
              "name": "status",
              "type": "uint8"
            },
            {
              "internalType": "address",
              "name": "employee",
              "type": "address"
            }
          ],
          "internalType": "struct ClearLeth.leave",
          "name": "leaveToReject",
          "type": "tuple"
        }
      ],
      "name": "rejectLeave",
      "outputs": [],
      "stateMutability": "nonpayable",
      "type": "function"
    },
    {
      "inputs": [],
      "name": "getLeaveBalance",
      "outputs": [
        {
          "internalType": "uint256",
          "name": "",
          "type": "uint256"
        }
      ],
      "stateMutability": "view",
      "type": "function",
      "constant": true
    },
    {
      "inputs": [
        {
          "internalType": "uint256",
          "name": "leaveId",
          "type": "uint256"
        }
      ],
      "name": "getLeaveInformation",
      "outputs": [
        {
          "components": [
            {
              "internalType": "uint256",
              "name": "id",
              "type": "uint256"
            },
            {
              "internalType": "uint256",
              "name": "date",
              "type": "uint256"
            },
            {
              "internalType": "bytes32",
              "name": "reason",
              "type": "bytes32"
            },
            {
              "internalType": "enum ClearLeth.leaveStatus",
              "name": "status",
              "type": "uint8"
            },
            {
              "internalType": "address",
              "name": "employee",
              "type": "address"
            }
          ],
          "internalType": "struct ClearLeth.leave",
          "name": "",
          "type": "tuple"
        }
      ],
      "stateMutability": "view",
      "type": "function",
      "constant": true
    },
    {
      "inputs": [
        {
          "internalType": "address",
          "name": "employeeAddress",
          "type": "address"
        }
      ],
      "name": "getLeaveApplications",
      "outputs": [
        {
          "components": [
            {
              "internalType": "uint256",
              "name": "id",
              "type": "uint256"
            },
            {
              "internalType": "uint256",
              "name": "date",
              "type": "uint256"
            },
            {
              "internalType": "bytes32",
              "name": "reason",
              "type": "bytes32"
            },
            {
              "internalType": "enum ClearLeth.leaveStatus",
              "name": "status",
              "type": "uint8"
            },
            {
              "internalType": "address",
              "name": "employee",
              "type": "address"
            }
          ],
          "internalType": "struct ClearLeth.leave[]",
          "name": "",
          "type": "tuple[]"
        }
      ],
      "stateMutability": "view",
      "type": "function",
      "constant": true
    },
    {
      "inputs": [
        {
          "internalType": "address",
          "name": "employerAddress",
          "type": "address"
        },
        {
          "internalType": "uint256",
          "name": "limit",
          "type": "uint256"
        }
      ],
      "name": "setLeaveLimit",
      "outputs": [],
      "stateMutability": "nonpayable",
      "type": "function"
    }
  ],
  "bytecode": "0x60806040526000600755600060085560006009556000600b553480156200002557600080fd5b5060405162002c9238038062002c9283398101604081905262000048916200023a565b60008054336001600160a01b0319918216811783556001805480820182559084527fb10e2d527612073b26eecdfd717e6a320cf44b4afac2b0732d9fcbe2b7fa0cf60180549092161790556008805491620000a38362000254565b90915550506040805160c0810182526005608082019081526427bbb732b960d91b60a083015281523360208083018290528351808501855260038152624e555360e81b818301528385015260016060840152600091825260048152929020815180519293849362000118928492019062000194565b506020828101516001830180546001600160a01b0319166001600160a01b039092169190911790556040830151805162000159926002850192019062000194565b50606082015160038201805460ff191660018360028111156200018057620001806200027e565b02179055505050600a9190915550620002d1565b828054620001a29062000294565b90600052602060002090601f016020900481019282620001c6576000855562000211565b82601f10620001e157805160ff191683800117855562000211565b8280016001018555821562000211579182015b8281111562000211578251825591602001919060010190620001f4565b506200021f92915062000223565b5090565b5b808211156200021f576000815560010162000224565b6000602082840312156200024d57600080fd5b5051919050565b60006000198214156200027757634e487b7160e01b600052601160045260246000fd5b5060010190565b634e487b7160e01b600052602160045260246000fd5b600181811c90821680620002a957607f821691505b60208210811415620002cb57634e487b7160e01b600052602260045260246000fd5b50919050565b6129b180620002e16000396000f3fe608060405234801561001057600080fd5b50600436106101a95760003560e01c8063ab244e1e116100f9578063d763940911610097578063e69852d011610071578063e69852d01461038d578063e9b37cc0146103ad578063edf53886146103c0578063fedf2c56146103e357600080fd5b8063d763940914610353578063dda89a6e1461037c578063e3366fed1461038557600080fd5b8063ce606ee0116100d3578063ce606ee01461030f578063d023d10f14610322578063d108177a1461032b578063d1ef4f631461033e57600080fd5b8063ab244e1e146102b1578063b8e8ac54146102dc578063bcdd8891146102ef57600080fd5b80636216f27a116101665780637675c14c116101405780637675c14c14610277578063832880e714610280578063839f48e8146102955780639f251f801461029e57600080fd5b80636216f27a1461023a578063687d9b93146102515780636e82ac571461026457600080fd5b806314c671d6146101ae5780631fbabfce146101cc5780633039f608146101e157806330a31e4e146101f457806360bf08671461020757806360c38dff14610227575b600080fd5b6101b66103eb565b6040516101c391906121cb565b60405180910390f35b6101df6101da3660046122eb565b6104b6565b005b6101df6101ef366004612339565b610687565b6101df6102023660046123ba565b610917565b61021a61021536600461242e565b610aaa565b6040516101c391906124ac565b6101df610235366004612339565b610b90565b61024360075481565b6040519081526020016101c3565b6101b661025f36600461242e565b610d45565b6101df6102723660046124ee565b610dbb565b610243600a5481565b610288610e02565b6040516101c39190612579565b61024360085481565b6101df6102ac3660046122eb565b610f95565b6102c46102bf3660046124ee565b611247565b6040516001600160a01b0390911681526020016101c3565b6101df6102ea366004612339565b61127f565b6103026102fd3660046125e5565b611552565b6040516101c391906125fe565b6000546102c4906001600160a01b031681565b61024360095481565b6101df61033936600461242e565b6116a4565b336000908152600e6020526040902054610243565b6102c461036136600461242e565b6005602052600090815260409020546001600160a01b031681565b610243600b5481565b6101b66119e5565b6103a061039b36600461242e565b611aaa565b6040516101c39190612612565b6101df6103bb3660046126b4565b611b4c565b6103d36103ce36600461242e565b611e50565b6040516101c3949392919061276d565b6101b6611f9a565b6060600060085467ffffffffffffffff81111561040a5761040a612218565b604051908082528060200260200182016040528015610433578160200160208202803683370190505b50905060005b6008548110156104b05760018181548110610456576104566127ba565b9060005260206000200160009054906101000a90046001600160a01b0316828281518110610486576104866127ba565b6001600160a01b0390921660209283029190910190910152806104a8816127e6565b915050610439565b50919050565b6000546001600160a01b0316331461052c5760405162461bcd60e51b815260206004820152602e60248201527f4f6e6c792074686520636f6e7472616374206f776e65722063616e2063616c6c60448201526d103a3434b990333ab731ba34b7b760911b60648201526084015b60405180910390fd5b6001600160a01b03808216600090815260046020526040902060010154829116156105695760405162461bcd60e51b815260040161052390612801565b60038054600181019091557fc2575a0e9e593c00f959f8c92f12db2869c3395a3b0502d05e2516446f71f85b0180546001600160a01b0319166001600160a01b03841690811790915560408051608081018252858152336020808301919091528251808201845260008082528385019190915260026060840152938452600481529190922082518051849361060292849291019061205f565b506020828101516001830180546001600160a01b0319166001600160a01b0390921691909117905560408301518051610641926002850192019061205f565b50606082015160038201805460ff1916600183600281111561066557610665612450565b021790555050600980549150600061067c836127e6565b919050555050505050565b8051600b5481106106cf5760405162461bcd60e51b8152602060048201526012602482015271139bdd0815985b1a59081319585d9948125960721b6044820152606401610523565b816000816060015160038111156106e8576106e8612450565b146107055760405162461bcd60e51b815260040161052390612838565b60808301516001600160a01b038082166000908152600560205260409020541633146107435760405162461bcd60e51b815260040161052390612866565b608084015160005b6001600160a01b0382166000908152600d60205260409020548110156108275785516001600160a01b0383166000908152600d60205260409020805483908110610797576107976127ba565b9060005260206000209060040201600001541415610815576001600160a01b0382166000908152600d60205260409020805460039190839081106107dd576107dd6127ba565b906000526020600020906004020160030160006101000a81548160ff0219169083600381111561080f5761080f612450565b02179055505b8061081f816127e6565b91505061074b565b5060005b600c548110156108c2578551600c80548390811061084b5761084b6127ba565b90600052602060002090600402016000015414156108b0576003600c8281548110610878576108786127ba565b906000526020600020906004020160030160006101000a81548160ff021916908360038111156108aa576108aa612450565b02179055505b806108ba816127e6565b91505061082b565b508451604080516001600160a01b0384168152336020820152908101919091527fcfedd8a6cf86a82ac7dd3f04b1e86f248df069f9f15810bf8a52dabc8c7a25af906060015b60405180910390a15050505050565b60013360009081526004602052604090206003015460ff16600281111561094057610940612450565b1461095d5760405162461bcd60e51b8152600401610523906128bb565b6001600160a01b038082166000908152600460205260409020600101548291161561099a5760405162461bcd60e51b815260040161052390612801565b6001805480820182557fb10e2d527612073b26eecdfd717e6a320cf44b4afac2b0732d9fcbe2b7fa0cf60180546001600160a01b0319166001600160a01b038516908117909155604080516080810182528681526020808201849052818301899052606082019490945260009283526004845291208151805192938493610a24928492019061205f565b506020828101516001830180546001600160a01b0319166001600160a01b0390921691909117905560408301518051610a63926002850192019061205f565b50606082015160038201805460ff19166001836002811115610a8757610a87612450565b0217905550506008805491506000610a9e836127e6565b91905055505050505050565b6001600160a01b0381166000908152600d60209081526040808320805482518185028101850190935280835260609492939192909184015b82821015610b8557838290600052602060002090600402016040518060a00160405290816000820154815260200160018201548152602001600282015481526020016003820160009054906101000a900460ff166003811115610b4757610b47612450565b6003811115610b5857610b58612450565b81526003919091015461010090046001600160a01b03166020918201529082526001929092019101610ae2565b505050509050919050565b80600081606001516003811115610ba957610ba9612450565b14610bc65760405162461bcd60e51b815260040161052390612838565b608082015182906001600160a01b03163314610c3f5760405162461bcd60e51b815260206004820152603260248201527f4f6e6c7920656d706c6f796565206f662074686973206c656176652063616e2060448201527131b0b636103a3434b990333ab731ba34b7b760711b6064820152608401610523565b60005b336000908152600d6020526040902054811015610d03578351336000908152600d60205260409020805483908110610c7c57610c7c6127ba565b9060005260206000209060040201600001541415610cf157336000908152600d6020526040902080546001919083908110610cb957610cb96127ba565b906000526020600020906004020160030160006101000a81548160ff02191690836003811115610ceb57610ceb612450565b02179055505b80610cfb816127e6565b915050610c42565b5082516040805133815260208101929092527fb7ebc98aeb0d019f1d38bdecf34a056aa9be46ff8aed7cf80b640ff0073d6ac7910160405180910390a1505050565b6001600160a01b038116600090815260066020908152604091829020805483518184028101840190945280845260609392830182828015610daf57602002820191906000526020600020905b81546001600160a01b03168152600190910190602001808311610d91575b50505050509050919050565b604080516001600160a01b0384168152602081018390527fc687ccbce0cc89ceb74a46d6867e5268d2bb596e3b2b08bf139879cfa6f14bdd91015b60405180910390a15050565b610e0a6120e3565b3360009081526004602052604090819020815160808101909252805482908290610e3390612902565b80601f0160208091040260200160405190810160405280929190818152602001828054610e5f90612902565b8015610eac5780601f10610e8157610100808354040283529160200191610eac565b820191906000526020600020905b815481529060010190602001808311610e8f57829003601f168201915b505050918352505060018201546001600160a01b03166020820152600282018054604090920191610edc90612902565b80601f0160208091040260200160405190810160405280929190818152602001828054610f0890612902565b8015610f555780601f10610f2a57610100808354040283529160200191610f55565b820191906000526020600020905b815481529060010190602001808311610f3857829003601f168201915b5050509183525050600382015460209091019060ff166002811115610f7c57610f7c612450565b6002811115610f8d57610f8d612450565b905250919050565b60013360009081526004602052604090206003015460ff166002811115610fbe57610fbe612450565b14610fdb5760405162461bcd60e51b8152600401610523906128bb565b6001600160a01b03808216600090815260046020526040902060010154829116156110185760405162461bcd60e51b815260040161052390612801565b600280546001810182557f405787fa12a823e0f2b7631cc41b3ba8828b3321ca811111fa75cd3aa3bb5ace0180546001600160a01b0319166001600160a01b038516179055336000908152600460205260408120909101805461107a90612902565b80601f01602080910402602001604051908101604052809291908181526020018280546110a690612902565b80156110f35780601f106110c8576101008083540402835291602001916110f3565b820191906000526020600020905b8154815290600101906020018083116110d657829003601f168201915b5050505050905060006040518060800160405280868152602001336001600160a01b031681526020018381526020016000600281111561113557611135612450565b90526001600160a01b0385166000908152600460209081526040909120825180519394508493919261116c9284929091019061205f565b506020828101516001830180546001600160a01b0319166001600160a01b03909216919091179055604083015180516111ab926002850192019061205f565b50606082015160038201805460ff191660018360028111156111cf576111cf612450565b02179055505033600081815260066020908152604080832080546001810182559084528284200180546001600160a01b038b166001600160a01b03199182168117909255908452600583528184208054909116909417909355600a54600e9091529181209190915560078054925090610a9e836127e6565b6006602052816000526040600020818154811061126357600080fd5b6000918252602090912001546001600160a01b03169150829050565b8051600b5481106112c75760405162461bcd60e51b8152602060048201526012602482015271139bdd0815985b1a59081319585d9948125960721b6044820152606401610523565b816000816060015160038111156112e0576112e0612450565b146112fd5760405162461bcd60e51b815260040161052390612838565b60808301516001600160a01b0380821660009081526005602052604090205416331461133b5760405162461bcd60e51b815260040161052390612866565b608084015160005b6001600160a01b0382166000908152600d602052604090205481101561141f5785516001600160a01b0383166000908152600d6020526040902080548390811061138f5761138f6127ba565b906000526020600020906004020160000154141561140d576001600160a01b0382166000908152600d60205260409020805460029190839081106113d5576113d56127ba565b906000526020600020906004020160030160006101000a81548160ff0219169083600381111561140757611407612450565b02179055505b80611417816127e6565b915050611343565b5060005b600c548110156114ba578551600c805483908110611443576114436127ba565b90600052602060002090600402016000015414156114a8576002600c8281548110611470576114706127ba565b906000526020600020906004020160030160006101000a81548160ff021916908360038111156114a2576114a2612450565b02179055505b806114b2816127e6565b915050611423565b506020808601516000908152600f909152604081208054916114db836127e6565b90915550506001600160a01b0381166000908152600e6020526040812080549161150483612937565b90915550508451604080516001600160a01b0384168152336020820152908101919091527fd77ba574eae3c58a23e6b228fae2d5390d3c715492024b607e5626321c5cc8ff90606001610908565b6040805160a0810182526000808252602082018190529181018290526060810182905260808101829052905b600c548110156116695782600c828154811061159c5761159c6127ba565b906000526020600020906004020160000154141561165757600c81815481106115c7576115c76127ba565b90600052602060002090600402016040518060a00160405290816000820154815260200160018201548152602001600282015481526020016003820160009054906101000a900460ff16600381111561162257611622612450565b600381111561163357611633612450565b81526003919091015461010090046001600160a01b03166020909101529392505050565b80611661816127e6565b91505061157e565b5060405162461bcd60e51b815260206004820152600f60248201526e1319585d99481b9bdd08199bdd5b99608a1b6044820152606401610523565b6001600160a01b0380821660009081526005602052604090205482911633146116df5760405162461bcd60e51b815260040161052390612866565b60005b6002548110156117e457826001600160a01b031660028281548110611709576117096127ba565b6000918252602090912001546001600160a01b031614156117d257600280546117349060019061294e565b81548110611744576117446127ba565b600091825260209091200154600280546001600160a01b039092169183908110611770576117706127ba565b9060005260206000200160006101000a8154816001600160a01b0302191690836001600160a01b0316021790555060028054806117af576117af612965565b600082815260209020810160001990810180546001600160a01b03191690550190555b806117dc816127e6565b9150506116e2565b5060005b3360009081526006602052604090205481101561192a5733600090815260066020526040902080546001600160a01b03851691908390811061182c5761182c6127ba565b6000918252602090912001546001600160a01b031614156119185733600090815260066020526040902080546118649060019061294e565b81548110611874576118746127ba565b60009182526020808320909101543383526006909152604090912080546001600160a01b0390921691839081106118ad576118ad6127ba565b600091825260208083209190910180546001600160a01b0319166001600160a01b0394909416939093179092553381526006909152604090208054806118f5576118f5612965565b600082815260209020810160001990810180546001600160a01b03191690550190555b80611922816127e6565b9150506117e8565b506001600160a01b03821660009081526004602052604081209061194e8282612124565b6001820180546001600160a01b031916905561196e600283016000612124565b50600301805460ff191690556001600160a01b038216600090815260056020908152604080832080546001600160a01b0319169055600d90915281206119b391612161565b6001600160a01b0382166000908152600e6020526040812081905560078054916119dc83612937565b91905055505050565b6060600060075467ffffffffffffffff811115611a0457611a04612218565b604051908082528060200260200182016040528015611a2d578160200160208202803683370190505b50905060005b6007548110156104b05760028181548110611a5057611a506127ba565b9060005260206000200160009054906101000a90046001600160a01b0316828281518110611a8057611a806127ba565b6001600160a01b039092166020928302919091019091015280611aa2816127e6565b915050611a33565b6001600160a01b0381166000908152600460205260409020805460609190611ad190612902565b80601f0160208091040260200160405190810160405280929190818152602001828054611afd90612902565b8015610daf5780601f10611b1f57610100808354040283529160200191610daf565b820191906000526020600020905b815481529060010190602001808311611b2d5750939695505050505050565b3360009081526004602052604081206003015460ff166002811115611b7357611b73612450565b14611bce5760405162461bcd60e51b815260206004820152602560248201527f4f6e6c7920656d706c6f796565732063616e2063616c6c20746869732066756e60448201526431ba34b7b760d91b6064820152608401610523565b60005b8251811015611e1f5760006040518060a00160405280600b548152602001858481518110611c0157611c016127ba565b60200260200101518152602001848481518110611c2057611c206127ba565b6020026020010151815260200160006003811115611c4057611c40612450565b815233602090910152600b80549192506000611c5b836127e6565b9091555050336000908152600d6020908152604080832080546001818101835591855293839020855160049095020193845591840151838301558301516002830155606083015160038084018054869594919260ff1990911691908490811115611cc757611cc7612450565b021790555060809190910151600391820180546001600160a01b0390921661010002610100600160a81b0319909216919091179055600c805460018181018355600092909252835160049091027fdf6966c971051c3d54ec59162606531493a51404a002842f56009d7e5cf4a8c7810191825560208501517fdf6966c971051c3d54ec59162606531493a51404a002842f56009d7e5cf4a8c882015560408501517fdf6966c971051c3d54ec59162606531493a51404a002842f56009d7e5cf4a8c982015560608501517fdf6966c971051c3d54ec59162606531493a51404a002842f56009d7e5cf4a8ca9091018054869593949293919260ff19909116918490811115611dd757611dd7612450565b021790555060809190910151600390910180546001600160a01b0390921661010002610100600160a81b03199092169190911790555080611e17816127e6565b915050611bd1565b506040513381527f7f7280556f364f817076fdba4458633238c3fa6f3199f7c96b08db689033e8f090602001610df6565b600460205260009081526040902080548190611e6b90612902565b80601f0160208091040260200160405190810160405280929190818152602001828054611e9790612902565b8015611ee45780601f10611eb957610100808354040283529160200191611ee4565b820191906000526020600020905b815481529060010190602001808311611ec757829003601f168201915b505050600184015460028501805494956001600160a01b03909216949193509150611f0e90612902565b80601f0160208091040260200160405190810160405280929190818152602001828054611f3a90612902565b8015611f875780601f10611f5c57610100808354040283529160200191611f87565b820191906000526020600020905b815481529060010190602001808311611f6a57829003601f168201915b5050506003909301549192505060ff1684565b6060600060095467ffffffffffffffff811115611fb957611fb9612218565b604051908082528060200260200182016040528015611fe2578160200160208202803683370190505b50905060005b6009548110156104b05760038181548110612005576120056127ba565b9060005260206000200160009054906101000a90046001600160a01b0316828281518110612035576120356127ba565b6001600160a01b039092166020928302919091019091015280612057816127e6565b915050611fe8565b82805461206b90612902565b90600052602060002090601f01602090048101928261208d57600085556120d3565b82601f106120a657805160ff19168380011785556120d3565b828001600101855582156120d3579182015b828111156120d35782518255916020019190600101906120b8565b506120df929150612182565b5090565b60405180608001604052806060815260200160006001600160a01b03168152602001606081526020016000600281111561211f5761211f612450565b905290565b50805461213090612902565b6000825580601f10612140575050565b601f01602090049060005260206000209081019061215e9190612182565b50565b508054600082556004029060005260206000209081019061215e9190612197565b5b808211156120df5760008155600101612183565b5b808211156120df5760008082556001820181905560028201556003810180546001600160a81b0319169055600401612198565b6020808252825182820181905260009190848201906040850190845b8181101561220c5783516001600160a01b0316835292840192918401916001016121e7565b50909695505050505050565b634e487b7160e01b600052604160045260246000fd5b604051601f8201601f1916810167ffffffffffffffff8111828210171561225757612257612218565b604052919050565b600082601f83011261227057600080fd5b813567ffffffffffffffff81111561228a5761228a612218565b61229d601f8201601f191660200161222e565b8181528460208386010111156122b257600080fd5b816020850160208301376000918101602001919091529392505050565b80356001600160a01b03811681146122e657600080fd5b919050565b600080604083850312156122fe57600080fd5b823567ffffffffffffffff81111561231557600080fd5b6123218582860161225f565b925050612330602084016122cf565b90509250929050565b600060a0828403121561234b57600080fd5b60405160a0810181811067ffffffffffffffff8211171561236e5761236e612218565b806040525082358152602083013560208201526040830135604082015260608301356004811061239d57600080fd5b60608201526123ae608084016122cf565b60808201529392505050565b6000806000606084860312156123cf57600080fd5b833567ffffffffffffffff808211156123e757600080fd5b6123f38783880161225f565b9450602086013591508082111561240957600080fd5b506124168682870161225f565b925050612425604085016122cf565b90509250925092565b60006020828403121561244057600080fd5b612449826122cf565b9392505050565b634e487b7160e01b600052602160045260246000fd5b80518252602081015160208301526040810151604083015260608101516004811061249357612493612450565b60608301526080908101516001600160a01b0316910152565b6020808252825182820181905260009190848201906040850190845b8181101561220c576124db838551612466565b9284019260a092909201916001016124c8565b6000806040838503121561250157600080fd5b61250a836122cf565b946020939093013593505050565b6000815180845260005b8181101561253e57602081850181015186830182015201612522565b81811115612550576000602083870101525b50601f01601f19169290920160200192915050565b6003811061257557612575612450565b9052565b60208152600082516080602084015261259560a0840182612518565b60208501516001600160a01b0316604085810191909152850151848203601f190160608601529091506125c88282612518565b91505060608401516125dd6080850182612565565b509392505050565b6000602082840312156125f757600080fd5b5035919050565b60a0810161260c8284612466565b92915050565b6020815260006124496020830184612518565b600067ffffffffffffffff82111561263f5761263f612218565b5060051b60200190565b600082601f83011261265a57600080fd5b8135602061266f61266a83612625565b61222e565b82815260059290921b8401810191818101908684111561268e57600080fd5b8286015b848110156126a95780358352918301918301612692565b509695505050505050565b600080604083850312156126c757600080fd5b823567ffffffffffffffff808211156126df57600080fd5b818501915085601f8301126126f357600080fd5b8135602061270361266a83612625565b82815260059290921b8401810191818101908984111561272257600080fd5b948201945b8386101561274057853582529482019490820190612727565b9650508601359250508082111561275657600080fd5b5061276385828601612649565b9150509250929050565b6080815260006127806080830187612518565b6001600160a01b038616602084015282810360408401526127a18186612518565b9150506127b16060830184612565565b95945050505050565b634e487b7160e01b600052603260045260246000fd5b634e487b7160e01b600052601160045260246000fd5b60006000198214156127fa576127fa6127d0565b5060010190565b6020808252601c908201527f557365722068617320616c7265616479206265656e2061646465642100000000604082015260600190565b6020808252601490820152734c65617665206973206e6f742070656e64696e6760601b604082015260600190565b60208082526035908201527f4f6e6c7920656d706c6f796572206f66207468697320656d706c6f796565206360408201527430b71031b0b636103a3434b990333ab731ba34b7b760591b606082015260800190565b60208082526027908201527f4f6e6c7920616e20656d706c6f7965722063616e2063616c6c207468697320666040820152663ab731ba34b7b760c91b606082015260800190565b600181811c9082168061291657607f821691505b602082108114156104b057634e487b7160e01b600052602260045260246000fd5b600081612946576129466127d0565b506000190190565b600082821015612960576129606127d0565b500390565b634e487b7160e01b600052603160045260246000fdfea26469706673582212207e79cfb1c05d4aaf32e37ecbe31949b9ca9b7bce69e89392e88447df6b36cea264736f6c634300080b0033",
  "immutableReferences": {},
  "source": "// SPDX-License-Identifier: MIT\npragma solidity >=0.4.22 <0.9.0;\n\ncontract ClearLeth {\n    address public contractOwner;\n\n    address[] employers;\n    address[] employees;\n    address[] authorities;\n\n    mapping(address => user) public addressToUser;\n\n    mapping(address => address) public employeeToEmployer;\n    mapping(address => address[]) public employerToEmployee;\n\n    uint256 public numOfEmployees = 0;\n    uint256 public numOfEmployers = 0;\n    uint256 public numOfAuthorities = 0;\n\n    enum role {\n        employee,\n        employer,\n        authority\n    }\n\n    enum leaveStatus {\n        pending,\n        cancelled,\n        approved,\n        rejected\n    }\n\n    struct user {\n        string name;\n        address wallet;\n        string company;\n        role role;\n    }\n\n    struct leave {\n        uint256 id;\n        uint256 date; // UNIX\n        bytes32 reason;\n        leaveStatus status;\n        address employee;\n    }\n\n    uint256 public leaveAmount;\n    uint256 public numLeaves = 0;\n    leave[] allLeaves;\n\n    mapping(address => leave[]) employeeToLeaves;\n    mapping(address => uint256) employeeLeaveBalance;\n    mapping(uint256 => uint256) datesToEmployeesApplied;\n    mapping(address => uint256) employersToLeaveLimit;\n\n    event LeaveApplied(address employee);\n    event LeaveApproved(address employee, address employer, uint256 leaveId);\n    event LeaveCancelled(address employee, uint256 leaveId);\n    event LeaveRejected(address employee, address employer, uint256 leaveId);\n    event LeaveLimitSet(address employer, uint256 limit);\n\n    // @dev Owner of contract will be able to add employers and is an employer\n    // @dev leaveAmount is also set when deployed\n    constructor(uint256 _leaveAmount) {\n        contractOwner = msg.sender;\n        employers.push(msg.sender);\n        numOfEmployers++;\n\n        // new user object\n        user memory newUser = user(\"Owner\", msg.sender, \"NUS\", role.employer);\n\n        addressToUser[msg.sender] = newUser;\n        leaveAmount = _leaveAmount;\n    }\n\n    modifier employerOnly(address employeeAddress) {\n        require(\n            employeeToEmployer[employeeAddress] == msg.sender,\n            \"Only employer of this employee can call this function\"\n        );\n        _;\n    }\n\n    modifier isOwner() {\n        require(\n            contractOwner == msg.sender,\n            \"Only the contract owner can call this function\"\n        );\n        _;\n    }\n\n    modifier isEmployer() {\n        require(\n            addressToUser[msg.sender].role == role.employer,\n            \"Only an employer can call this function\"\n        );\n        _;\n    }\n\n    modifier isEmployee() {\n        require(\n            addressToUser[msg.sender].role == role.employee,\n            \"Only employees can call this function\"\n        );\n        _;\n    }\n\n    modifier isAuthority() {\n        require(\n            addressToUser[msg.sender].role == role.authority,\n            \"Only authorities can call this function\"\n        );\n        _;\n    }\n\n    modifier validLeaveId(uint256 leaveId) {\n        require(leaveId < numLeaves, \"Not Valid Leave Id\");\n        _;\n    }\n\n    modifier validLeaveStatus(leave memory leaveApplication) {\n        require(\n            leaveApplication.status == leaveStatus.pending,\n            \"Leave is not pending\"\n        );\n        _;\n    }\n\n    modifier isEmployeeOfLeave(leave memory _leave) {\n        require(\n            _leave.employee == msg.sender,\n            \"Only employee of this leave can call this function\"\n        );\n        _;\n    }\n\n    // CHECK IF USER HAS ALREADY BEEN ADDED\n    modifier notAdded(address _employerAddress) {\n        require(\n            addressToUser[_employerAddress].wallet == address(0),\n            \"User has already been added!\"\n        );\n        _;\n    }\n\n    function getUser() public view returns (user memory) {\n        return addressToUser[msg.sender];\n    }\n\n    function getUserNameOf(address _userAddress)\n        public\n        view\n        returns (string memory)\n    {\n        return addressToUser[_userAddress].name;\n    }\n\n    function addEmployer(\n        string memory _company,\n        string memory _employerName,\n        address _employerAddress\n    ) public isEmployer notAdded(_employerAddress) {\n        employers.push(_employerAddress);\n\n        // new user object\n        user memory newUser = user(\n            _employerName,\n            _employerAddress,\n            _company,\n            role.employer\n        );\n\n        addressToUser[_employerAddress] = newUser;\n        numOfEmployers++;\n    }\n\n    function addEmployee(string memory _employeeName, address _employeeAddress)\n        public\n        isEmployer\n        notAdded(_employeeAddress)\n    {\n        employees.push(_employeeAddress);\n\n        // new user object\n        string memory company = addressToUser[msg.sender].company;\n        user memory newUser = user(\n            _employeeName,\n            msg.sender,\n            company,\n            role.employee\n        );\n\n        addressToUser[_employeeAddress] = newUser;\n        employerToEmployee[msg.sender].push(_employeeAddress);\n        employeeToEmployer[_employeeAddress] = msg.sender;\n        employeeLeaveBalance[_employeeAddress] = leaveAmount;\n        numOfEmployees++;\n    }\n\n    function addAuthority(\n        string memory _authorityName,\n        address _authorityAddress\n    ) public isOwner notAdded(_authorityAddress) {\n        authorities.push(_authorityAddress);\n\n        // new user object\n        user memory newUser = user(\n            _authorityName,\n            msg.sender,\n            \"\",\n            role.authority\n        );\n\n        addressToUser[_authorityAddress] = newUser;\n        numOfAuthorities++;\n    }\n\n    // @dev would be better if we just update mapping employees to false\n    // then when we do getEmployees if wont appear\n    function removeEmployee(address _employeeAddress)\n        public\n        employerOnly(_employeeAddress)\n    {\n        for (uint256 i = 0; i < employees.length; i++) {\n            if (employees[i] == _employeeAddress) {\n                employees[i] = employees[employees.length - 1];\n                employees.pop();\n            }\n        }\n\n        for (uint256 j = 0; j < employerToEmployee[msg.sender].length; j++) {\n            if (employerToEmployee[msg.sender][j] == _employeeAddress) {\n                employerToEmployee[msg.sender][j] = employerToEmployee[\n                    msg.sender\n                ][employerToEmployee[msg.sender].length - 1];\n                employerToEmployee[msg.sender].pop();\n            }\n        }\n\n        delete addressToUser[_employeeAddress];\n        delete employeeToEmployer[_employeeAddress];\n        delete employeeToLeaves[_employeeAddress];\n        delete employeeLeaveBalance[_employeeAddress];\n        numOfEmployees--;\n    }\n\n    function getEmployeesByEmployer(address _employerAddress)\n        public\n        view\n        returns (address[] memory)\n    {\n        return employerToEmployee[_employerAddress];\n    }\n\n    // @dev transfer complexity to view function no gas\n    function getAllEmployees() public view returns (address[] memory) {\n        address[] memory employeeArray = new address[](numOfEmployees);\n        for (uint256 i = 0; i < numOfEmployees; i++) {\n            employeeArray[i] = employees[i];\n        }\n\n        return employeeArray;\n    }\n\n    // @dev transfer complexity to view function no gas\n    function getAllEmployers() public view returns (address[] memory) {\n        address[] memory employerArray = new address[](numOfEmployers);\n        for (uint256 i = 0; i < numOfEmployers; i++) {\n            employerArray[i] = employers[i];\n        }\n\n        return employerArray;\n    }\n\n    // @dev transfer complexity to view function no gas\n    function getAllAuthorities() public view returns (address[] memory) {\n        address[] memory authoritiesArray = new address[](numOfAuthorities);\n        for (uint256 i = 0; i < numOfAuthorities; i++) {\n            authoritiesArray[i] = authorities[i];\n        }\n        return authoritiesArray;\n    }\n\n    function applyLeaves(uint256[] memory dates, bytes32[] memory reason)\n        public\n        isEmployee\n    {\n        for (uint256 i = 0; i < dates.length; i++) {\n            leave memory newLeave = leave(\n                numLeaves,\n                dates[i],\n                reason[i],\n                leaveStatus.pending,\n                msg.sender\n            );\n\n            numLeaves++;\n            employeeToLeaves[msg.sender].push(newLeave);\n            allLeaves.push(newLeave);\n        }\n\n        emit LeaveApplied(msg.sender);\n    }\n\n    function cancelLeave(leave memory _leave)\n        public\n        validLeaveStatus(_leave)\n        isEmployeeOfLeave(_leave)\n    {\n        for (uint256 i = 0; i < employeeToLeaves[msg.sender].length; i++) {\n            if (employeeToLeaves[msg.sender][i].id == _leave.id) {\n                employeeToLeaves[msg.sender][i].status = leaveStatus.cancelled;\n            }\n        }\n        emit LeaveCancelled(msg.sender, _leave.id);\n    }\n\n    function approveLeave(leave memory leaveToApprove)\n        public\n        validLeaveId(leaveToApprove.id)\n        validLeaveStatus(leaveToApprove)\n        employerOnly(leaveToApprove.employee)\n    {\n        address employeeAddress = leaveToApprove.employee;\n        for (uint256 i = 0; i < employeeToLeaves[employeeAddress].length; i++) {\n            if (employeeToLeaves[employeeAddress][i].id == leaveToApprove.id) {\n                employeeToLeaves[employeeAddress][i].status = leaveStatus\n                    .approved;\n            }\n        }\n\n        for (uint256 j = 0; j < allLeaves.length; j++) {\n            if (allLeaves[j].id == leaveToApprove.id) {\n                allLeaves[j].status = leaveStatus.approved;\n            }\n        }\n\n        datesToEmployeesApplied[leaveToApprove.date]++;\n        employeeLeaveBalance[employeeAddress]--;\n        emit LeaveApproved(employeeAddress, msg.sender, leaveToApprove.id);\n    }\n\n    function rejectLeave(leave memory leaveToReject)\n        public\n        validLeaveId(leaveToReject.id)\n        validLeaveStatus(leaveToReject)\n        employerOnly(leaveToReject.employee)\n    {\n        address employeeAddress = leaveToReject.employee;\n        for (uint256 i = 0; i < employeeToLeaves[employeeAddress].length; i++) {\n            if (employeeToLeaves[employeeAddress][i].id == leaveToReject.id) {\n                employeeToLeaves[employeeAddress][i].status = leaveStatus\n                    .rejected;\n            }\n        }\n\n        for (uint256 j = 0; j < allLeaves.length; j++) {\n            if (allLeaves[j].id == leaveToReject.id) {\n                allLeaves[j].status = leaveStatus.rejected;\n            }\n        }\n        emit LeaveRejected(employeeAddress, msg.sender, leaveToReject.id);\n    }\n\n    function getLeaveBalance() public view returns (uint256) {\n        return employeeLeaveBalance[msg.sender];\n    }\n\n    // this method i think cannot return a struct? - ryan\n    function getLeaveInformation(uint256 leaveId)\n        public\n        view\n        returns (leave memory)\n    {\n        for (uint256 i = 0; i < allLeaves.length; i++) {\n            if (allLeaves[i].id == leaveId) {\n                return allLeaves[i];\n            }\n        }\n        revert(\"Leave not found\");\n    }\n\n    function getLeaveApplications(address employeeAddress)\n        public\n        view\n        returns (leave[] memory)\n    {\n        return employeeToLeaves[employeeAddress];\n    }\n\n    function setLeaveLimit(address employerAddress, uint256 limit) public {\n        emit LeaveLimitSet(employerAddress, limit);\n    }\n}\n",
  "sourcePath": "/Users/ryyant/IS4302-project/contracts/ClearLeth.sol",
  "compiler": {
    "name": "solc",
    "version": "0.8.11+commit.d7f03943.Emscripten.clang"
  },
  "schemaVersion": "3.4.4",
  "updatedAt": "2022-04-13T05:44:23.297Z",
  "networkType": "ethereum",
  "devdoc": {
    "kind": "dev",
    "methods": {},
    "version": 1
  },
  "userdoc": {
    "kind": "user",
    "methods": {},
    "version": 1
  }
}