{
  "contractName": "ClearLeth",
  "abi": [
    {
      "inputs": [
        {
          "internalType": "uint256",
          "name": "_leaveAmount",
          "type": "uint256"
        }
      ],
      "stateMutability": "nonpayable",
      "type": "constructor"
    },
    {
      "anonymous": false,
      "inputs": [
        {
          "indexed": false,
          "internalType": "address",
          "name": "employee",
          "type": "address"
        }
      ],
      "name": "LeaveApplied",
      "type": "event"
    },
    {
      "anonymous": false,
      "inputs": [
        {
          "indexed": false,
          "internalType": "address",
          "name": "employee",
          "type": "address"
        },
        {
          "indexed": false,
          "internalType": "address",
          "name": "employer",
          "type": "address"
        },
        {
          "indexed": false,
          "internalType": "uint256",
          "name": "leaveId",
          "type": "uint256"
        }
      ],
      "name": "LeaveApproved",
      "type": "event"
    },
    {
      "anonymous": false,
      "inputs": [
        {
          "indexed": false,
          "internalType": "address",
          "name": "employee",
          "type": "address"
        },
        {
          "indexed": false,
          "internalType": "uint256",
          "name": "leaveId",
          "type": "uint256"
        }
      ],
      "name": "LeaveCancelled",
      "type": "event"
    },
    {
      "anonymous": false,
      "inputs": [
        {
          "indexed": false,
          "internalType": "address",
          "name": "employer",
          "type": "address"
        },
        {
          "indexed": false,
          "internalType": "uint256",
          "name": "limit",
          "type": "uint256"
        }
      ],
      "name": "LeaveLimitSet",
      "type": "event"
    },
    {
      "anonymous": false,
      "inputs": [
        {
          "indexed": false,
          "internalType": "address",
          "name": "employee",
          "type": "address"
        },
        {
          "indexed": false,
          "internalType": "address",
          "name": "employer",
          "type": "address"
        },
        {
          "indexed": false,
          "internalType": "uint256",
          "name": "leaveId",
          "type": "uint256"
        }
      ],
      "name": "LeaveRejected",
      "type": "event"
    },
    {
      "inputs": [
        {
          "internalType": "address",
          "name": "",
          "type": "address"
        }
      ],
      "name": "addressToUser",
      "outputs": [
        {
          "internalType": "string",
          "name": "name",
          "type": "string"
        },
        {
          "internalType": "address",
          "name": "wallet",
          "type": "address"
        },
        {
          "internalType": "string",
          "name": "company",
          "type": "string"
        },
        {
          "internalType": "enum ClearLeth.role",
          "name": "role",
          "type": "uint8"
        }
      ],
      "stateMutability": "view",
      "type": "function",
      "constant": true
    },
    {
      "inputs": [],
      "name": "contractOwner",
      "outputs": [
        {
          "internalType": "address",
          "name": "",
          "type": "address"
        }
      ],
      "stateMutability": "view",
      "type": "function",
      "constant": true
    },
    {
      "inputs": [
        {
          "internalType": "address",
          "name": "",
          "type": "address"
        }
      ],
      "name": "employeeToEmployer",
      "outputs": [
        {
          "internalType": "address",
          "name": "",
          "type": "address"
        }
      ],
      "stateMutability": "view",
      "type": "function",
      "constant": true
    },
    {
      "inputs": [
        {
          "internalType": "address",
          "name": "",
          "type": "address"
        },
        {
          "internalType": "uint256",
          "name": "",
          "type": "uint256"
        }
      ],
      "name": "employerToEmployee",
      "outputs": [
        {
          "internalType": "address",
          "name": "",
          "type": "address"
        }
      ],
      "stateMutability": "view",
      "type": "function",
      "constant": true
    },
    {
      "inputs": [],
      "name": "leaveAmount",
      "outputs": [
        {
          "internalType": "uint256",
          "name": "",
          "type": "uint256"
        }
      ],
      "stateMutability": "view",
      "type": "function",
      "constant": true
    },
    {
      "inputs": [],
      "name": "numLeaves",
      "outputs": [
        {
          "internalType": "uint256",
          "name": "",
          "type": "uint256"
        }
      ],
      "stateMutability": "view",
      "type": "function",
      "constant": true
    },
    {
      "inputs": [],
      "name": "numOfAuthorities",
      "outputs": [
        {
          "internalType": "uint256",
          "name": "",
          "type": "uint256"
        }
      ],
      "stateMutability": "view",
      "type": "function",
      "constant": true
    },
    {
      "inputs": [],
      "name": "numOfEmployees",
      "outputs": [
        {
          "internalType": "uint256",
          "name": "",
          "type": "uint256"
        }
      ],
      "stateMutability": "view",
      "type": "function",
      "constant": true
    },
    {
      "inputs": [],
      "name": "numOfEmployers",
      "outputs": [
        {
          "internalType": "uint256",
          "name": "",
          "type": "uint256"
        }
      ],
      "stateMutability": "view",
      "type": "function",
      "constant": true
    },
    {
      "inputs": [],
      "name": "getUserName",
      "outputs": [
        {
          "internalType": "string",
          "name": "",
          "type": "string"
        }
      ],
      "stateMutability": "view",
      "type": "function",
      "constant": true
    },
    {
      "inputs": [
        {
          "internalType": "address",
          "name": "_userAddress",
          "type": "address"
        }
      ],
      "name": "getUserNameOf",
      "outputs": [
        {
          "internalType": "string",
          "name": "",
          "type": "string"
        }
      ],
      "stateMutability": "view",
      "type": "function",
      "constant": true
    },
    {
      "inputs": [],
      "name": "getUserCompany",
      "outputs": [
        {
          "internalType": "string",
          "name": "",
          "type": "string"
        }
      ],
      "stateMutability": "view",
      "type": "function",
      "constant": true
    },
    {
      "inputs": [],
      "name": "getUserWallet",
      "outputs": [
        {
          "internalType": "address",
          "name": "",
          "type": "address"
        }
      ],
      "stateMutability": "view",
      "type": "function",
      "constant": true
    },
    {
      "inputs": [],
      "name": "getUserRole",
      "outputs": [
        {
          "internalType": "enum ClearLeth.role",
          "name": "",
          "type": "uint8"
        }
      ],
      "stateMutability": "view",
      "type": "function",
      "constant": true
    },
    {
      "inputs": [
        {
          "internalType": "string",
          "name": "_company",
          "type": "string"
        },
        {
          "internalType": "string",
          "name": "_employerName",
          "type": "string"
        },
        {
          "internalType": "address",
          "name": "_employerAddress",
          "type": "address"
        }
      ],
      "name": "addEmployer",
      "outputs": [],
      "stateMutability": "nonpayable",
      "type": "function"
    },
    {
      "inputs": [
        {
          "internalType": "string",
          "name": "_employeeName",
          "type": "string"
        },
        {
          "internalType": "address",
          "name": "_employeeAddress",
          "type": "address"
        }
      ],
      "name": "addEmployee",
      "outputs": [],
      "stateMutability": "nonpayable",
      "type": "function"
    },
    {
      "inputs": [
        {
          "internalType": "string",
          "name": "_authorityName",
          "type": "string"
        },
        {
          "internalType": "address",
          "name": "_authorityAddress",
          "type": "address"
        }
      ],
      "name": "addAuthority",
      "outputs": [],
      "stateMutability": "nonpayable",
      "type": "function"
    },
    {
      "inputs": [
        {
          "internalType": "address",
          "name": "_employeeAddress",
          "type": "address"
        }
      ],
      "name": "removeEmployee",
      "outputs": [],
      "stateMutability": "nonpayable",
      "type": "function"
    },
    {
      "inputs": [
        {
          "internalType": "address",
          "name": "_employerAddress",
          "type": "address"
        }
      ],
      "name": "getEmployeesByEmployer",
      "outputs": [
        {
          "internalType": "address[]",
          "name": "",
          "type": "address[]"
        }
      ],
      "stateMutability": "view",
      "type": "function",
      "constant": true
    },
    {
      "inputs": [],
      "name": "getAllEmployees",
      "outputs": [
        {
          "internalType": "address[]",
          "name": "",
          "type": "address[]"
        }
      ],
      "stateMutability": "view",
      "type": "function",
      "constant": true
    },
    {
      "inputs": [],
      "name": "getAllEmployers",
      "outputs": [
        {
          "internalType": "address[]",
          "name": "",
          "type": "address[]"
        }
      ],
      "stateMutability": "view",
      "type": "function",
      "constant": true
    },
    {
      "inputs": [],
      "name": "getAllAuthorities",
      "outputs": [
        {
          "internalType": "address[]",
          "name": "",
          "type": "address[]"
        }
      ],
      "stateMutability": "view",
      "type": "function",
      "constant": true
    },
    {
      "inputs": [
        {
          "internalType": "uint256[]",
          "name": "dates",
          "type": "uint256[]"
        },
        {
          "internalType": "bytes32[]",
          "name": "reason",
          "type": "bytes32[]"
        }
      ],
      "name": "applyLeaves",
      "outputs": [],
      "stateMutability": "nonpayable",
      "type": "function"
    },
    {
      "inputs": [
        {
          "components": [
            {
              "internalType": "uint256",
              "name": "id",
              "type": "uint256"
            },
            {
              "internalType": "uint256",
              "name": "date",
              "type": "uint256"
            },
            {
              "internalType": "bytes32",
              "name": "reason",
              "type": "bytes32"
            },
            {
              "internalType": "enum ClearLeth.leaveStatus",
              "name": "status",
              "type": "uint8"
            },
            {
              "internalType": "address",
              "name": "employee",
              "type": "address"
            }
          ],
          "internalType": "struct ClearLeth.leave",
          "name": "_leave",
          "type": "tuple"
        }
      ],
      "name": "cancelLeave",
      "outputs": [],
      "stateMutability": "nonpayable",
      "type": "function"
    },
    {
      "inputs": [
        {
          "components": [
            {
              "internalType": "uint256",
              "name": "id",
              "type": "uint256"
            },
            {
              "internalType": "uint256",
              "name": "date",
              "type": "uint256"
            },
            {
              "internalType": "bytes32",
              "name": "reason",
              "type": "bytes32"
            },
            {
              "internalType": "enum ClearLeth.leaveStatus",
              "name": "status",
              "type": "uint8"
            },
            {
              "internalType": "address",
              "name": "employee",
              "type": "address"
            }
          ],
          "internalType": "struct ClearLeth.leave",
          "name": "leaveToApprove",
          "type": "tuple"
        }
      ],
      "name": "approveLeave",
      "outputs": [],
      "stateMutability": "nonpayable",
      "type": "function"
    },
    {
      "inputs": [
        {
          "components": [
            {
              "internalType": "uint256",
              "name": "id",
              "type": "uint256"
            },
            {
              "internalType": "uint256",
              "name": "date",
              "type": "uint256"
            },
            {
              "internalType": "bytes32",
              "name": "reason",
              "type": "bytes32"
            },
            {
              "internalType": "enum ClearLeth.leaveStatus",
              "name": "status",
              "type": "uint8"
            },
            {
              "internalType": "address",
              "name": "employee",
              "type": "address"
            }
          ],
          "internalType": "struct ClearLeth.leave",
          "name": "leaveToReject",
          "type": "tuple"
        }
      ],
      "name": "rejectLeave",
      "outputs": [],
      "stateMutability": "nonpayable",
      "type": "function"
    },
    {
      "inputs": [],
      "name": "getLeaveBalance",
      "outputs": [
        {
          "internalType": "uint256",
          "name": "",
          "type": "uint256"
        }
      ],
      "stateMutability": "view",
      "type": "function",
      "constant": true
    },
    {
      "inputs": [
        {
          "internalType": "uint256",
          "name": "leaveId",
          "type": "uint256"
        }
      ],
      "name": "getLeaveInformation",
      "outputs": [
        {
          "components": [
            {
              "internalType": "uint256",
              "name": "id",
              "type": "uint256"
            },
            {
              "internalType": "uint256",
              "name": "date",
              "type": "uint256"
            },
            {
              "internalType": "bytes32",
              "name": "reason",
              "type": "bytes32"
            },
            {
              "internalType": "enum ClearLeth.leaveStatus",
              "name": "status",
              "type": "uint8"
            },
            {
              "internalType": "address",
              "name": "employee",
              "type": "address"
            }
          ],
          "internalType": "struct ClearLeth.leave",
          "name": "",
          "type": "tuple"
        }
      ],
      "stateMutability": "view",
      "type": "function",
      "constant": true
    },
    {
      "inputs": [
        {
          "internalType": "address",
          "name": "employeeAddress",
          "type": "address"
        }
      ],
      "name": "getLeaveApplications",
      "outputs": [
        {
          "components": [
            {
              "internalType": "uint256",
              "name": "id",
              "type": "uint256"
            },
            {
              "internalType": "uint256",
              "name": "date",
              "type": "uint256"
            },
            {
              "internalType": "bytes32",
              "name": "reason",
              "type": "bytes32"
            },
            {
              "internalType": "enum ClearLeth.leaveStatus",
              "name": "status",
              "type": "uint8"
            },
            {
              "internalType": "address",
              "name": "employee",
              "type": "address"
            }
          ],
          "internalType": "struct ClearLeth.leave[]",
          "name": "",
          "type": "tuple[]"
        }
      ],
      "stateMutability": "view",
      "type": "function",
      "constant": true
    },
    {
      "inputs": [
        {
          "internalType": "address",
          "name": "employerAddress",
          "type": "address"
        },
        {
          "internalType": "uint256",
          "name": "limit",
          "type": "uint256"
        }
      ],
      "name": "setLeaveLimit",
      "outputs": [],
      "stateMutability": "nonpayable",
      "type": "function"
    }
  ],
  "bytecode": "0x60806040526000600755600060085560006009556000600b553480156200002557600080fd5b5060405162002b8e38038062002b8e83398101604081905262000048916200023a565b60008054336001600160a01b0319918216811783556001805480820182559084527fb10e2d527612073b26eecdfd717e6a320cf44b4afac2b0732d9fcbe2b7fa0cf60180549092161790556008805491620000a38362000254565b90915550506040805160c0810182526005608082019081526427bbb732b960d91b60a083015281523360208083018290528351808501855260038152624e555360e81b818301528385015260016060840152600091825260048152929020815180519293849362000118928492019062000194565b506020828101516001830180546001600160a01b0319166001600160a01b039092169190911790556040830151805162000159926002850192019062000194565b50606082015160038201805460ff191660018360028111156200018057620001806200027e565b02179055505050600a9190915550620002d1565b828054620001a29062000294565b90600052602060002090601f016020900481019282620001c6576000855562000211565b82601f10620001e157805160ff191683800117855562000211565b8280016001018555821562000211579182015b8281111562000211578251825591602001919060010190620001f4565b506200021f92915062000223565b5090565b5b808211156200021f576000815560010162000224565b6000602082840312156200024d57600080fd5b5051919050565b60006000198214156200027757634e487b7160e01b600052601160045260246000fd5b5060010190565b634e487b7160e01b600052602160045260246000fd5b600181811c90821680620002a957607f821691505b60208210811415620002cb57634e487b7160e01b600052602260045260246000fd5b50919050565b6128ad80620002e16000396000f3fe608060405234801561001057600080fd5b50600436106101da5760003560e01c8063ab244e1e11610104578063d1ef4f63116100a2578063e69852d011610071578063e69852d014610406578063e9b37cc014610419578063edf538861461042c578063fedf2c561461044f57600080fd5b8063d1ef4f63146103b7578063d7639409146103cc578063dda89a6e146103f5578063e3366fed146103fe57600080fd5b8063bf04a10d116100de578063bf04a10d14610365578063ce606ee014610388578063d023d10f1461039b578063d108177a146103a457600080fd5b8063ab244e1e1461031f578063b8e8ac5414610332578063bcdd88911461034557600080fd5b806360bf08671161017c5780636e82ac571161014b5780636e82ac57146102e75780637675c14c146102fa578063839f48e8146103035780639f251f801461030c57600080fd5b806360bf08671461028a57806360c38dff146102aa5780636216f27a146102bd578063687d9b93146102d457600080fd5b80632b5e0065116101b85780632b5e0065146102275780633039f6081461025c57806330a31e4e1461026f578063382dbfb61461028257600080fd5b806312958f1c146101df57806314c671d6146101fd5780631fbabfce14610212575b600080fd5b6101e7610457565b6040516101f49190612172565b60405180910390f35b6102056104f8565b6040516101f4919061218c565b6102256102203660046122ac565b6105c3565b005b336000908152600460205260409020600101546001600160a01b03165b6040516001600160a01b0390911681526020016101f4565b61022561026a3660046122fa565b610794565b61022561027d36600461237b565b610a24565b6101e7610bb7565b61029d6102983660046123ef565b610bd8565b6040516101f49190612466565b6102256102b83660046122fa565b610cbe565b6102c660075481565b6040519081526020016101f4565b6102056102e23660046123ef565b610e73565b6102256102f53660046124a8565b610ee9565b6102c6600a5481565b6102c660085481565b61022561031a3660046122ac565b610f30565b61024461032d3660046124a8565b6111e2565b6102256103403660046122fa565b61121a565b6103586103533660046124d2565b6114ed565b6040516101f491906124eb565b3360009081526004602052604090206003015460ff166040516101f49190612513565b600054610244906001600160a01b031681565b6102c660095481565b6102256103b23660046123ef565b61163f565b336000908152600e60205260409020546102c6565b6102446103da3660046123ef565b6005602052600090815260409020546001600160a01b031681565b6102c6600b5481565b610205611980565b6101e76104143660046123ef565b611a45565b6102256104273660046125b0565b611ae7565b61043f61043a3660046123ef565b611deb565b6040516101f49493929190612669565b610205611f35565b336000908152600460205260409020805460609190610475906126b6565b80601f01602080910402602001604051908101604052809291908181526020018280546104a1906126b6565b80156104ee5780601f106104c3576101008083540402835291602001916104ee565b820191906000526020600020905b8154815290600101906020018083116104d157829003601f168201915b5050505050905090565b6060600060085467ffffffffffffffff811115610517576105176121d9565b604051908082528060200260200182016040528015610540578160200160208202803683370190505b50905060005b6008548110156105bd5760018181548110610563576105636126eb565b9060005260206000200160009054906101000a90046001600160a01b0316828281518110610593576105936126eb565b6001600160a01b0390921660209283029190910190910152806105b581612717565b915050610546565b50919050565b6000546001600160a01b031633146106395760405162461bcd60e51b815260206004820152602e60248201527f4f6e6c792074686520636f6e7472616374206f776e65722063616e2063616c6c60448201526d103a3434b990333ab731ba34b7b760911b60648201526084015b60405180910390fd5b6001600160a01b03808216600090815260046020526040902060010154829116156106765760405162461bcd60e51b815260040161063090612732565b60038054600181019091557fc2575a0e9e593c00f959f8c92f12db2869c3395a3b0502d05e2516446f71f85b0180546001600160a01b0319166001600160a01b03841690811790915560408051608081018252858152336020808301919091528251808201845260008082528385019190915260026060840152938452600481529190922082518051849361070f928492910190611ffa565b506020828101516001830180546001600160a01b0319166001600160a01b039092169190911790556040830151805161074e9260028501920190611ffa565b50606082015160038201805460ff191660018360028111156107725761077261240a565b021790555050600980549150600061078983612717565b919050555050505050565b8051600b5481106107dc5760405162461bcd60e51b8152602060048201526012602482015271139bdd0815985b1a59081319585d9948125960721b6044820152606401610630565b816000816060015160038111156107f5576107f561240a565b146108125760405162461bcd60e51b815260040161063090612769565b60808301516001600160a01b038082166000908152600560205260409020541633146108505760405162461bcd60e51b815260040161063090612797565b608084015160005b6001600160a01b0382166000908152600d60205260409020548110156109345785516001600160a01b0383166000908152600d602052604090208054839081106108a4576108a46126eb565b9060005260206000209060040201600001541415610922576001600160a01b0382166000908152600d60205260409020805460039190839081106108ea576108ea6126eb565b906000526020600020906004020160030160006101000a81548160ff0219169083600381111561091c5761091c61240a565b02179055505b8061092c81612717565b915050610858565b5060005b600c548110156109cf578551600c805483908110610958576109586126eb565b90600052602060002090600402016000015414156109bd576003600c8281548110610985576109856126eb565b906000526020600020906004020160030160006101000a81548160ff021916908360038111156109b7576109b761240a565b02179055505b806109c781612717565b915050610938565b508451604080516001600160a01b0384168152336020820152908101919091527fcfedd8a6cf86a82ac7dd3f04b1e86f248df069f9f15810bf8a52dabc8c7a25af906060015b60405180910390a15050505050565b60013360009081526004602052604090206003015460ff166002811115610a4d57610a4d61240a565b14610a6a5760405162461bcd60e51b8152600401610630906127ec565b6001600160a01b0380821660009081526004602052604090206001015482911615610aa75760405162461bcd60e51b815260040161063090612732565b6001805480820182557fb10e2d527612073b26eecdfd717e6a320cf44b4afac2b0732d9fcbe2b7fa0cf60180546001600160a01b0319166001600160a01b038516908117909155604080516080810182528681526020808201849052818301899052606082019490945260009283526004845291208151805192938493610b319284920190611ffa565b506020828101516001830180546001600160a01b0319166001600160a01b0390921691909117905560408301518051610b709260028501920190611ffa565b50606082015160038201805460ff19166001836002811115610b9457610b9461240a565b0217905550506008805491506000610bab83612717565b91905055505050505050565b336000908152600460205260409020600201805460609190610475906126b6565b6001600160a01b0381166000908152600d60209081526040808320805482518185028101850190935280835260609492939192909184015b82821015610cb357838290600052602060002090600402016040518060a00160405290816000820154815260200160018201548152602001600282015481526020016003820160009054906101000a900460ff166003811115610c7557610c7561240a565b6003811115610c8657610c8661240a565b81526003919091015461010090046001600160a01b03166020918201529082526001929092019101610c10565b505050509050919050565b80600081606001516003811115610cd757610cd761240a565b14610cf45760405162461bcd60e51b815260040161063090612769565b608082015182906001600160a01b03163314610d6d5760405162461bcd60e51b815260206004820152603260248201527f4f6e6c7920656d706c6f796565206f662074686973206c656176652063616e2060448201527131b0b636103a3434b990333ab731ba34b7b760711b6064820152608401610630565b60005b336000908152600d6020526040902054811015610e31578351336000908152600d60205260409020805483908110610daa57610daa6126eb565b9060005260206000209060040201600001541415610e1f57336000908152600d6020526040902080546001919083908110610de757610de76126eb565b906000526020600020906004020160030160006101000a81548160ff02191690836003811115610e1957610e1961240a565b02179055505b80610e2981612717565b915050610d70565b5082516040805133815260208101929092527fb7ebc98aeb0d019f1d38bdecf34a056aa9be46ff8aed7cf80b640ff0073d6ac7910160405180910390a1505050565b6001600160a01b038116600090815260066020908152604091829020805483518184028101840190945280845260609392830182828015610edd57602002820191906000526020600020905b81546001600160a01b03168152600190910190602001808311610ebf575b50505050509050919050565b604080516001600160a01b0384168152602081018390527fc687ccbce0cc89ceb74a46d6867e5268d2bb596e3b2b08bf139879cfa6f14bdd91015b60405180910390a15050565b60013360009081526004602052604090206003015460ff166002811115610f5957610f5961240a565b14610f765760405162461bcd60e51b8152600401610630906127ec565b6001600160a01b0380821660009081526004602052604090206001015482911615610fb35760405162461bcd60e51b815260040161063090612732565b600280546001810182557f405787fa12a823e0f2b7631cc41b3ba8828b3321ca811111fa75cd3aa3bb5ace0180546001600160a01b0319166001600160a01b0385161790553360009081526004602052604081209091018054611015906126b6565b80601f0160208091040260200160405190810160405280929190818152602001828054611041906126b6565b801561108e5780601f106110635761010080835404028352916020019161108e565b820191906000526020600020905b81548152906001019060200180831161107157829003601f168201915b5050505050905060006040518060800160405280868152602001336001600160a01b03168152602001838152602001600060028111156110d0576110d061240a565b90526001600160a01b0385166000908152600460209081526040909120825180519394508493919261110792849290910190611ffa565b506020828101516001830180546001600160a01b0319166001600160a01b03909216919091179055604083015180516111469260028501920190611ffa565b50606082015160038201805460ff1916600183600281111561116a5761116a61240a565b02179055505033600081815260066020908152604080832080546001810182559084528284200180546001600160a01b038b166001600160a01b03199182168117909255908452600583528184208054909116909417909355600a54600e9091529181209190915560078054925090610bab83612717565b600660205281600052604060002081815481106111fe57600080fd5b6000918252602090912001546001600160a01b03169150829050565b8051600b5481106112625760405162461bcd60e51b8152602060048201526012602482015271139bdd0815985b1a59081319585d9948125960721b6044820152606401610630565b8160008160600151600381111561127b5761127b61240a565b146112985760405162461bcd60e51b815260040161063090612769565b60808301516001600160a01b038082166000908152600560205260409020541633146112d65760405162461bcd60e51b815260040161063090612797565b608084015160005b6001600160a01b0382166000908152600d60205260409020548110156113ba5785516001600160a01b0383166000908152600d6020526040902080548390811061132a5761132a6126eb565b90600052602060002090600402016000015414156113a8576001600160a01b0382166000908152600d6020526040902080546002919083908110611370576113706126eb565b906000526020600020906004020160030160006101000a81548160ff021916908360038111156113a2576113a261240a565b02179055505b806113b281612717565b9150506112de565b5060005b600c54811015611455578551600c8054839081106113de576113de6126eb565b9060005260206000209060040201600001541415611443576002600c828154811061140b5761140b6126eb565b906000526020600020906004020160030160006101000a81548160ff0219169083600381111561143d5761143d61240a565b02179055505b8061144d81612717565b9150506113be565b506020808601516000908152600f9091526040812080549161147683612717565b90915550506001600160a01b0381166000908152600e6020526040812080549161149f83612833565b90915550508451604080516001600160a01b0384168152336020820152908101919091527fd77ba574eae3c58a23e6b228fae2d5390d3c715492024b607e5626321c5cc8ff90606001610a15565b6040805160a0810182526000808252602082018190529181018290526060810182905260808101829052905b600c548110156116045782600c8281548110611537576115376126eb565b90600052602060002090600402016000015414156115f257600c8181548110611562576115626126eb565b90600052602060002090600402016040518060a00160405290816000820154815260200160018201548152602001600282015481526020016003820160009054906101000a900460ff1660038111156115bd576115bd61240a565b60038111156115ce576115ce61240a565b81526003919091015461010090046001600160a01b03166020909101529392505050565b806115fc81612717565b915050611519565b5060405162461bcd60e51b815260206004820152600f60248201526e1319585d99481b9bdd08199bdd5b99608a1b6044820152606401610630565b6001600160a01b03808216600090815260056020526040902054829116331461167a5760405162461bcd60e51b815260040161063090612797565b60005b60025481101561177f57826001600160a01b0316600282815481106116a4576116a46126eb565b6000918252602090912001546001600160a01b0316141561176d57600280546116cf9060019061284a565b815481106116df576116df6126eb565b600091825260209091200154600280546001600160a01b03909216918390811061170b5761170b6126eb565b9060005260206000200160006101000a8154816001600160a01b0302191690836001600160a01b03160217905550600280548061174a5761174a612861565b600082815260209020810160001990810180546001600160a01b03191690550190555b8061177781612717565b91505061167d565b5060005b336000908152600660205260409020548110156118c55733600090815260066020526040902080546001600160a01b0385169190839081106117c7576117c76126eb565b6000918252602090912001546001600160a01b031614156118b35733600090815260066020526040902080546117ff9060019061284a565b8154811061180f5761180f6126eb565b60009182526020808320909101543383526006909152604090912080546001600160a01b039092169183908110611848576118486126eb565b600091825260208083209190910180546001600160a01b0319166001600160a01b03949094169390931790925533815260069091526040902080548061189057611890612861565b600082815260209020810160001990810180546001600160a01b03191690550190555b806118bd81612717565b915050611783565b506001600160a01b0382166000908152600460205260408120906118e9828261207e565b6001820180546001600160a01b031916905561190960028301600061207e565b50600301805460ff191690556001600160a01b038216600090815260056020908152604080832080546001600160a01b0319169055600d909152812061194e916120bb565b6001600160a01b0382166000908152600e60205260408120819055600780549161197783612833565b91905055505050565b6060600060075467ffffffffffffffff81111561199f5761199f6121d9565b6040519080825280602002602001820160405280156119c8578160200160208202803683370190505b50905060005b6007548110156105bd57600281815481106119eb576119eb6126eb565b9060005260206000200160009054906101000a90046001600160a01b0316828281518110611a1b57611a1b6126eb565b6001600160a01b039092166020928302919091019091015280611a3d81612717565b9150506119ce565b6001600160a01b0381166000908152600460205260409020805460609190611a6c906126b6565b80601f0160208091040260200160405190810160405280929190818152602001828054611a98906126b6565b8015610edd5780601f10611aba57610100808354040283529160200191610edd565b820191906000526020600020905b815481529060010190602001808311611ac85750939695505050505050565b3360009081526004602052604081206003015460ff166002811115611b0e57611b0e61240a565b14611b695760405162461bcd60e51b815260206004820152602560248201527f4f6e6c7920656d706c6f796565732063616e2063616c6c20746869732066756e60448201526431ba34b7b760d91b6064820152608401610630565b60005b8251811015611dba5760006040518060a00160405280600b548152602001858481518110611b9c57611b9c6126eb565b60200260200101518152602001848481518110611bbb57611bbb6126eb565b6020026020010151815260200160006003811115611bdb57611bdb61240a565b815233602090910152600b80549192506000611bf683612717565b9091555050336000908152600d6020908152604080832080546001818101835591855293839020855160049095020193845591840151838301558301516002830155606083015160038084018054869594919260ff1990911691908490811115611c6257611c6261240a565b021790555060809190910151600391820180546001600160a01b0390921661010002610100600160a81b0319909216919091179055600c805460018181018355600092909252835160049091027fdf6966c971051c3d54ec59162606531493a51404a002842f56009d7e5cf4a8c7810191825560208501517fdf6966c971051c3d54ec59162606531493a51404a002842f56009d7e5cf4a8c882015560408501517fdf6966c971051c3d54ec59162606531493a51404a002842f56009d7e5cf4a8c982015560608501517fdf6966c971051c3d54ec59162606531493a51404a002842f56009d7e5cf4a8ca9091018054869593949293919260ff19909116918490811115611d7257611d7261240a565b021790555060809190910151600390910180546001600160a01b0390921661010002610100600160a81b03199092169190911790555080611db281612717565b915050611b6c565b506040513381527f7f7280556f364f817076fdba4458633238c3fa6f3199f7c96b08db689033e8f090602001610f24565b600460205260009081526040902080548190611e06906126b6565b80601f0160208091040260200160405190810160405280929190818152602001828054611e32906126b6565b8015611e7f5780601f10611e5457610100808354040283529160200191611e7f565b820191906000526020600020905b815481529060010190602001808311611e6257829003601f168201915b505050600184015460028501805494956001600160a01b03909216949193509150611ea9906126b6565b80601f0160208091040260200160405190810160405280929190818152602001828054611ed5906126b6565b8015611f225780601f10611ef757610100808354040283529160200191611f22565b820191906000526020600020905b815481529060010190602001808311611f0557829003601f168201915b5050506003909301549192505060ff1684565b6060600060095467ffffffffffffffff811115611f5457611f546121d9565b604051908082528060200260200182016040528015611f7d578160200160208202803683370190505b50905060005b6009548110156105bd5760038181548110611fa057611fa06126eb565b9060005260206000200160009054906101000a90046001600160a01b0316828281518110611fd057611fd06126eb565b6001600160a01b039092166020928302919091019091015280611ff281612717565b915050611f83565b828054612006906126b6565b90600052602060002090601f016020900481019282612028576000855561206e565b82601f1061204157805160ff191683800117855561206e565b8280016001018555821561206e579182015b8281111561206e578251825591602001919060010190612053565b5061207a9291506120dc565b5090565b50805461208a906126b6565b6000825580601f1061209a575050565b601f0160209004906000526020600020908101906120b891906120dc565b50565b50805460008255600402906000526020600020908101906120b891906120f1565b5b8082111561207a57600081556001016120dd565b5b8082111561207a5760008082556001820181905560028201556003810180546001600160a81b03191690556004016120f2565b6000815180845260005b8181101561214b5760208185018101518683018201520161212f565b8181111561215d576000602083870101525b50601f01601f19169290920160200192915050565b6020815260006121856020830184612125565b9392505050565b6020808252825182820181905260009190848201906040850190845b818110156121cd5783516001600160a01b0316835292840192918401916001016121a8565b50909695505050505050565b634e487b7160e01b600052604160045260246000fd5b604051601f8201601f1916810167ffffffffffffffff81118282101715612218576122186121d9565b604052919050565b600082601f83011261223157600080fd5b813567ffffffffffffffff81111561224b5761224b6121d9565b61225e601f8201601f19166020016121ef565b81815284602083860101111561227357600080fd5b816020850160208301376000918101602001919091529392505050565b80356001600160a01b03811681146122a757600080fd5b919050565b600080604083850312156122bf57600080fd5b823567ffffffffffffffff8111156122d657600080fd5b6122e285828601612220565b9250506122f160208401612290565b90509250929050565b600060a0828403121561230c57600080fd5b60405160a0810181811067ffffffffffffffff8211171561232f5761232f6121d9565b806040525082358152602083013560208201526040830135604082015260608301356004811061235e57600080fd5b606082015261236f60808401612290565b60808201529392505050565b60008060006060848603121561239057600080fd5b833567ffffffffffffffff808211156123a857600080fd5b6123b487838801612220565b945060208601359150808211156123ca57600080fd5b506123d786828701612220565b9250506123e660408501612290565b90509250925092565b60006020828403121561240157600080fd5b61218582612290565b634e487b7160e01b600052602160045260246000fd5b80518252602081015160208301526040810151604083015260608101516004811061244d5761244d61240a565b60608301526080908101516001600160a01b0316910152565b6020808252825182820181905260009190848201906040850190845b818110156121cd57612495838551612420565b9284019260a09290920191600101612482565b600080604083850312156124bb57600080fd5b6124c483612290565b946020939093013593505050565b6000602082840312156124e457600080fd5b5035919050565b60a081016124f98284612420565b92915050565b6003811061250f5761250f61240a565b9052565b602081016124f982846124ff565b600067ffffffffffffffff82111561253b5761253b6121d9565b5060051b60200190565b600082601f83011261255657600080fd5b8135602061256b61256683612521565b6121ef565b82815260059290921b8401810191818101908684111561258a57600080fd5b8286015b848110156125a5578035835291830191830161258e565b509695505050505050565b600080604083850312156125c357600080fd5b823567ffffffffffffffff808211156125db57600080fd5b818501915085601f8301126125ef57600080fd5b813560206125ff61256683612521565b82815260059290921b8401810191818101908984111561261e57600080fd5b948201945b8386101561263c57853582529482019490820190612623565b9650508601359250508082111561265257600080fd5b5061265f85828601612545565b9150509250929050565b60808152600061267c6080830187612125565b6001600160a01b0386166020840152828103604084015261269d8186612125565b9150506126ad60608301846124ff565b95945050505050565b600181811c908216806126ca57607f821691505b602082108114156105bd57634e487b7160e01b600052602260045260246000fd5b634e487b7160e01b600052603260045260246000fd5b634e487b7160e01b600052601160045260246000fd5b600060001982141561272b5761272b612701565b5060010190565b6020808252601c908201527f557365722068617320616c7265616479206265656e2061646465642100000000604082015260600190565b6020808252601490820152734c65617665206973206e6f742070656e64696e6760601b604082015260600190565b60208082526035908201527f4f6e6c7920656d706c6f796572206f66207468697320656d706c6f796565206360408201527430b71031b0b636103a3434b990333ab731ba34b7b760591b606082015260800190565b60208082526027908201527f4f6e6c7920616e20656d706c6f7965722063616e2063616c6c207468697320666040820152663ab731ba34b7b760c91b606082015260800190565b60008161284257612842612701565b506000190190565b60008282101561285c5761285c612701565b500390565b634e487b7160e01b600052603160045260246000fdfea2646970667358221220b392226471c5b13a061214182d0e270eb770811177cc8b1cbc5541b2e0a62cec64736f6c634300080b0033",
  "immutableReferences": {},
  "source": "// SPDX-License-Identifier: MIT\npragma solidity >=0.4.22 <0.9.0;\n\ncontract ClearLeth {\n    address public contractOwner;\n\n    address[] employers;\n    address[] employees;\n    address[] authorities;\n\n    mapping(address => user) public addressToUser;\n\n    mapping(address => address) public employeeToEmployer;\n    mapping(address => address[]) public employerToEmployee;\n\n    uint256 public numOfEmployees = 0;\n    uint256 public numOfEmployers = 0;\n    uint256 public numOfAuthorities = 0;\n\n    enum role {\n        employee,\n        employer,\n        authority\n    }\n\n    enum leaveStatus {\n        pending,\n        cancelled,\n        approved,\n        rejected\n    }\n\n    struct user {\n        string name;\n        address wallet;\n        string company;\n        role role;\n    }\n\n    struct leave {\n        uint256 id;\n        uint256 date; // UNIX\n        bytes32 reason;\n        leaveStatus status;\n        address employee;\n    }\n\n    uint256 public leaveAmount;\n    uint256 public numLeaves = 0;\n    leave[] allLeaves;\n\n    mapping(address => leave[]) employeeToLeaves;\n    mapping(address => uint256) employeeLeaveBalance;\n    mapping(uint256 => uint256) datesToEmployeesApplied;\n    mapping(address => uint256) employersToLeaveLimit;\n\n    event LeaveApplied(address employee);\n    event LeaveApproved(address employee, address employer, uint256 leaveId);\n    event LeaveCancelled(address employee, uint256 leaveId);\n    event LeaveRejected(address employee, address employer, uint256 leaveId);\n    event LeaveLimitSet(address employer, uint256 limit);\n\n    // @dev Owner of contract will be able to add employers and is an employer\n    // @dev leaveAmount is also set when deployed\n    constructor(uint256 _leaveAmount) {\n        contractOwner = msg.sender;\n        employers.push(msg.sender);\n        numOfEmployers++;\n\n        // new user object\n        user memory newUser = user(\"Owner\", msg.sender, \"NUS\", role.employer);\n\n        addressToUser[msg.sender] = newUser;\n        leaveAmount = _leaveAmount;\n    }\n\n    modifier employerOnly(address employeeAddress) {\n        require(\n            employeeToEmployer[employeeAddress] == msg.sender,\n            \"Only employer of this employee can call this function\"\n        );\n        _;\n    }\n\n    // modifier notSelf(address toAdd) {\n    //     require(\n    //         toAdd != msg.sender,\n    //         \"You cannot add yourself!\"\n    //     );\n    //     _;\n    //}\n\n    modifier isOwner() {\n        require(\n            contractOwner == msg.sender,\n            \"Only the contract owner can call this function\"\n        );\n        _;\n    }\n\n    modifier isEmployer() {\n        require(\n            addressToUser[msg.sender].role == role.employer,\n            \"Only an employer can call this function\"\n        );\n        _;\n    }\n\n    modifier isEmployee() {\n        require(\n            addressToUser[msg.sender].role == role.employee,\n            \"Only employees can call this function\"\n        );\n        _;\n    }\n\n    modifier isAuthority() {\n        require(\n            addressToUser[msg.sender].role == role.authority,\n            \"Only authorities can call this function\"\n        );\n        _;\n    }\n\n    modifier validLeaveId(uint256 leaveId) {\n        require(leaveId < numLeaves, \"Not Valid Leave Id\");\n        _;\n    }\n\n    modifier validLeaveStatus(leave memory leaveApplication) {\n        require(\n            leaveApplication.status == leaveStatus.pending,\n            \"Leave is not pending\"\n        );\n        _;\n    }\n\n    modifier isEmployeeOfLeave(leave memory _leave) {\n        require(\n            _leave.employee == msg.sender,\n            \"Only employee of this leave can call this function\"\n        );\n        _;\n    }\n\n    // CHECK IF USER HAS ALREADY BEEN ADDED\n    modifier notAdded(address _employerAddress) {\n        require(\n            addressToUser[_employerAddress].wallet == address(0), \n            \"User has already been added!\"\n        );\n        _;\n    } \n\n\n    function getUserName() public view returns (string memory) {\n        return addressToUser[msg.sender].name;\n    }\n\n    function getUserNameOf(address _userAddress) public view returns (string memory) {\n        return addressToUser[_userAddress].name;\n    }\n\n    function getUserCompany() public view returns (string memory) {\n        return addressToUser[msg.sender].company;\n    }\n\n    function getUserWallet() public view returns (address) {\n        return addressToUser[msg.sender].wallet;\n    }\n\n    function getUserRole() public view returns (role) {\n        return addressToUser[msg.sender].role;\n    }\n\n    function addEmployer(\n        string memory _company,\n        string memory _employerName,\n        address _employerAddress\n    ) public isEmployer notAdded(_employerAddress) {\n        employers.push(_employerAddress);\n\n        // new user object\n        user memory newUser = user(\n            _employerName,\n            _employerAddress,\n            _company,\n            role.employer\n        );\n\n        addressToUser[_employerAddress] = newUser;\n        numOfEmployers++;\n    }\n\n    function addEmployee(string memory _employeeName, address _employeeAddress)\n        public\n        isEmployer notAdded(_employeeAddress)\n    {\n        employees.push(_employeeAddress);\n\n        // new user object\n        string memory company = addressToUser[msg.sender].company;\n        user memory newUser = user(\n            _employeeName,\n            msg.sender,\n            company,\n            role.employee\n        );\n\n        addressToUser[_employeeAddress] = newUser;\n        employerToEmployee[msg.sender].push(_employeeAddress);\n        employeeToEmployer[_employeeAddress] = msg.sender;\n        employeeLeaveBalance[_employeeAddress] = leaveAmount;\n        numOfEmployees++;\n    }\n\n    function addAuthority(\n        string memory _authorityName,\n        address _authorityAddress\n    ) public isOwner notAdded(_authorityAddress) {\n        authorities.push(_authorityAddress);\n\n        // new user object\n        user memory newUser = user(\n            _authorityName,\n            msg.sender,\n            \"\",\n            role.authority\n        );\n\n        addressToUser[_authorityAddress] = newUser;\n        numOfAuthorities++;\n    }\n\n    // @dev would be better if we just update mapping employees to false\n    // then when we do getEmployees if wont appear\n    function removeEmployee(address _employeeAddress)\n        public\n        employerOnly(_employeeAddress)\n    {\n        for (uint256 i = 0; i < employees.length; i++) {\n            if (employees[i] == _employeeAddress) {\n                employees[i] = employees[employees.length - 1];\n                employees.pop();\n            }\n        }\n\n        for (uint256 j = 0; j < employerToEmployee[msg.sender].length; j++) {\n            if (employerToEmployee[msg.sender][j] == _employeeAddress) {\n                employerToEmployee[msg.sender][j] = employerToEmployee[\n                    msg.sender\n                ][employerToEmployee[msg.sender].length - 1];\n                employerToEmployee[msg.sender].pop();\n            }\n        }\n\n        delete addressToUser[_employeeAddress];\n        delete employeeToEmployer[_employeeAddress];\n        delete employeeToLeaves[_employeeAddress];\n        delete employeeLeaveBalance[_employeeAddress];\n        numOfEmployees--;\n    }\n\n    function getEmployeesByEmployer(address _employerAddress)\n        public\n        view\n        returns (address[] memory)\n    {\n        return employerToEmployee[_employerAddress];\n    }\n\n    // @dev transfer complexity to view function no gas\n    function getAllEmployees() public view returns (address[] memory) {\n        address[] memory employeeArray = new address[](numOfEmployees);\n        for (uint256 i = 0; i < numOfEmployees; i++) {\n            employeeArray[i] = employees[i];\n        }\n\n        return employeeArray;\n    }\n\n    // @dev transfer complexity to view function no gas\n    function getAllEmployers() public view returns (address[] memory) {\n        address[] memory employerArray = new address[](numOfEmployers);\n        for (uint256 i = 0; i < numOfEmployers; i++) {\n            employerArray[i] = employers[i];\n        }\n\n        return employerArray;\n    }\n\n    // @dev transfer complexity to view function no gas\n    function getAllAuthorities() public view returns (address[] memory) {\n        address[] memory authoritiesArray = new address[](numOfAuthorities);\n        for (uint256 i = 0; i < numOfAuthorities; i++) {\n            authoritiesArray[i] = authorities[i];\n        }\n        return authoritiesArray;\n    }\n\n    function applyLeaves(uint256[] memory dates, bytes32[] memory reason)\n        public\n        isEmployee\n    {\n        for (uint256 i = 0; i < dates.length; i++) {\n            leave memory newLeave = leave(\n                numLeaves,\n                dates[i],\n                reason[i],\n                leaveStatus.pending,\n                msg.sender\n            );\n\n            numLeaves++;\n            employeeToLeaves[msg.sender].push(newLeave);\n            allLeaves.push(newLeave);\n        }\n\n        emit LeaveApplied(msg.sender);\n    }\n\n    function cancelLeave(leave memory _leave)\n        public\n        validLeaveStatus(_leave)\n        isEmployeeOfLeave(_leave)\n    {\n        for (uint256 i = 0; i < employeeToLeaves[msg.sender].length; i++) {\n            if (employeeToLeaves[msg.sender][i].id == _leave.id) {\n                employeeToLeaves[msg.sender][i].status = leaveStatus.cancelled;\n            }\n        }\n        emit LeaveCancelled(msg.sender, _leave.id);\n    }\n\n    function approveLeave(leave memory leaveToApprove)\n        public\n        validLeaveId(leaveToApprove.id)\n        validLeaveStatus(leaveToApprove)\n        employerOnly(leaveToApprove.employee)\n    {\n        address employeeAddress = leaveToApprove.employee;\n        for (uint256 i = 0; i < employeeToLeaves[employeeAddress].length; i++) {\n            if (employeeToLeaves[employeeAddress][i].id == leaveToApprove.id) {\n                employeeToLeaves[employeeAddress][i].status = leaveStatus\n                    .approved;\n            }\n        }\n\n        for (uint256 j = 0; j < allLeaves.length; j++) {\n            if (allLeaves[j].id == leaveToApprove.id) {\n                allLeaves[j].status = leaveStatus.approved;\n            }\n        }\n\n        datesToEmployeesApplied[leaveToApprove.date]++;\n        employeeLeaveBalance[employeeAddress]--;\n        emit LeaveApproved(employeeAddress, msg.sender, leaveToApprove.id);\n    }\n\n    function rejectLeave(leave memory leaveToReject)\n        public\n        validLeaveId(leaveToReject.id)\n        validLeaveStatus(leaveToReject)\n        employerOnly(leaveToReject.employee)\n    {\n        address employeeAddress = leaveToReject.employee;\n        for (uint256 i = 0; i < employeeToLeaves[employeeAddress].length; i++) {\n            if (employeeToLeaves[employeeAddress][i].id == leaveToReject.id) {\n                employeeToLeaves[employeeAddress][i].status = leaveStatus\n                    .rejected;\n            }\n        }\n\n        for (uint256 j = 0; j < allLeaves.length; j++) {\n            if (allLeaves[j].id == leaveToReject.id) {\n                allLeaves[j].status = leaveStatus.rejected;\n            }\n        }\n        emit LeaveRejected(employeeAddress, msg.sender, leaveToReject.id);\n    }\n\n    function getLeaveBalance() public view returns (uint256) {\n        return employeeLeaveBalance[msg.sender];\n    }\n\n    // this method i think cannot return a struct? - ryan\n    function getLeaveInformation(uint256 leaveId)\n        public\n        view\n        returns (leave memory)\n    {\n        for (uint256 i = 0; i < allLeaves.length; i++) {\n            if (allLeaves[i].id == leaveId) {\n                return allLeaves[i];\n            }\n        }\n        revert(\"Leave not found\");\n    }\n\n    function getLeaveApplications(address employeeAddress)\n        public\n        view\n        returns (leave[] memory)\n    {\n        return employeeToLeaves[employeeAddress];\n    }\n\n    function setLeaveLimit(address employerAddress, uint256 limit) public {\n        emit LeaveLimitSet(employerAddress, limit);\n    }\n}\n",
  "sourcePath": "/Users/ryyant/IS4302-project/contracts/ClearLeth.sol",
  "compiler": {
    "name": "solc",
    "version": "0.8.11+commit.d7f03943.Emscripten.clang"
  },
  "schemaVersion": "3.4.4",
  "updatedAt": "2022-04-10T16:35:26.025Z",
  "networkType": "ethereum",
  "devdoc": {
    "kind": "dev",
    "methods": {},
    "version": 1
  },
  "userdoc": {
    "kind": "user",
    "methods": {},
    "version": 1
  }
}