{
  "contractName": "ClearLeth",
  "abi": [
    {
      "inputs": [
        {
          "internalType": "uint256",
          "name": "_leaveAmount",
          "type": "uint256"
        }
      ],
      "stateMutability": "nonpayable",
      "type": "constructor"
    },
    {
      "anonymous": false,
      "inputs": [
        {
          "indexed": false,
          "internalType": "address",
          "name": "employee",
          "type": "address"
        },
        {
          "indexed": false,
          "internalType": "uint256",
          "name": "date",
          "type": "uint256"
        }
      ],
      "name": "LeaveApplied",
      "type": "event"
    },
    {
      "anonymous": false,
      "inputs": [
        {
          "indexed": false,
          "internalType": "address",
          "name": "employee",
          "type": "address"
        },
        {
          "indexed": false,
          "internalType": "address",
          "name": "employer",
          "type": "address"
        },
        {
          "indexed": false,
          "internalType": "uint256",
          "name": "leaveId",
          "type": "uint256"
        }
      ],
      "name": "LeaveApproved",
      "type": "event"
    },
    {
      "anonymous": false,
      "inputs": [
        {
          "indexed": false,
          "internalType": "address",
          "name": "employee",
          "type": "address"
        },
        {
          "indexed": false,
          "internalType": "uint256",
          "name": "leaveId",
          "type": "uint256"
        }
      ],
      "name": "LeaveCancelled",
      "type": "event"
    },
    {
      "anonymous": false,
      "inputs": [
        {
          "indexed": false,
          "internalType": "address",
          "name": "employer",
          "type": "address"
        },
        {
          "indexed": false,
          "internalType": "uint256",
          "name": "limit",
          "type": "uint256"
        }
      ],
      "name": "LeaveLimitSet",
      "type": "event"
    },
    {
      "anonymous": false,
      "inputs": [
        {
          "indexed": false,
          "internalType": "address",
          "name": "employee",
          "type": "address"
        },
        {
          "indexed": false,
          "internalType": "address",
          "name": "employer",
          "type": "address"
        },
        {
          "indexed": false,
          "internalType": "uint256",
          "name": "leaveId",
          "type": "uint256"
        }
      ],
      "name": "LeaveRejected",
      "type": "event"
    },
    {
      "inputs": [
        {
          "internalType": "address",
          "name": "",
          "type": "address"
        }
      ],
      "name": "addressToUser",
      "outputs": [
        {
          "internalType": "string",
          "name": "name",
          "type": "string"
        },
        {
          "internalType": "address",
          "name": "wallet",
          "type": "address"
        },
        {
          "internalType": "string",
          "name": "company",
          "type": "string"
        },
        {
          "internalType": "enum ClearLeth.role",
          "name": "role",
          "type": "uint8"
        }
      ],
      "stateMutability": "view",
      "type": "function",
      "constant": true
    },
    {
      "inputs": [],
      "name": "contractOwner",
      "outputs": [
        {
          "internalType": "address",
          "name": "",
          "type": "address"
        }
      ],
      "stateMutability": "view",
      "type": "function",
      "constant": true
    },
    {
      "inputs": [
        {
          "internalType": "address",
          "name": "",
          "type": "address"
        }
      ],
      "name": "employeeToEmployer",
      "outputs": [
        {
          "internalType": "address",
          "name": "",
          "type": "address"
        }
      ],
      "stateMutability": "view",
      "type": "function",
      "constant": true
    },
    {
      "inputs": [
        {
          "internalType": "address",
          "name": "",
          "type": "address"
        },
        {
          "internalType": "uint256",
          "name": "",
          "type": "uint256"
        }
      ],
      "name": "employerToEmployee",
      "outputs": [
        {
          "internalType": "address",
          "name": "",
          "type": "address"
        }
      ],
      "stateMutability": "view",
      "type": "function",
      "constant": true
    },
    {
      "inputs": [],
      "name": "leaveAmount",
      "outputs": [
        {
          "internalType": "uint256",
          "name": "",
          "type": "uint256"
        }
      ],
      "stateMutability": "view",
      "type": "function",
      "constant": true
    },
    {
      "inputs": [],
      "name": "numLeaves",
      "outputs": [
        {
          "internalType": "uint256",
          "name": "",
          "type": "uint256"
        }
      ],
      "stateMutability": "view",
      "type": "function",
      "constant": true
    },
    {
      "inputs": [],
      "name": "numOfAuthorities",
      "outputs": [
        {
          "internalType": "uint256",
          "name": "",
          "type": "uint256"
        }
      ],
      "stateMutability": "view",
      "type": "function",
      "constant": true
    },
    {
      "inputs": [],
      "name": "numOfEmployees",
      "outputs": [
        {
          "internalType": "uint256",
          "name": "",
          "type": "uint256"
        }
      ],
      "stateMutability": "view",
      "type": "function",
      "constant": true
    },
    {
      "inputs": [],
      "name": "numOfEmployers",
      "outputs": [
        {
          "internalType": "uint256",
          "name": "",
          "type": "uint256"
        }
      ],
      "stateMutability": "view",
      "type": "function",
      "constant": true
    },
    {
      "inputs": [],
      "name": "getUserName",
      "outputs": [
        {
          "internalType": "string",
          "name": "",
          "type": "string"
        }
      ],
      "stateMutability": "view",
      "type": "function",
      "constant": true
    },
    {
      "inputs": [],
      "name": "getUserCompany",
      "outputs": [
        {
          "internalType": "string",
          "name": "",
          "type": "string"
        }
      ],
      "stateMutability": "view",
      "type": "function",
      "constant": true
    },
    {
      "inputs": [],
      "name": "getUserWallet",
      "outputs": [
        {
          "internalType": "address",
          "name": "",
          "type": "address"
        }
      ],
      "stateMutability": "view",
      "type": "function",
      "constant": true
    },
    {
      "inputs": [],
      "name": "getUserRole",
      "outputs": [
        {
          "internalType": "enum ClearLeth.role",
          "name": "",
          "type": "uint8"
        }
      ],
      "stateMutability": "view",
      "type": "function",
      "constant": true
    },
    {
      "inputs": [
        {
          "internalType": "string",
          "name": "_company",
          "type": "string"
        },
        {
          "internalType": "string",
          "name": "_employerName",
          "type": "string"
        },
        {
          "internalType": "address",
          "name": "_employerAddress",
          "type": "address"
        }
      ],
      "name": "addEmployer",
      "outputs": [],
      "stateMutability": "nonpayable",
      "type": "function"
    },
    {
      "inputs": [
        {
          "internalType": "string",
          "name": "_employeeName",
          "type": "string"
        },
        {
          "internalType": "address",
          "name": "_employeeAddress",
          "type": "address"
        }
      ],
      "name": "addEmployee",
      "outputs": [],
      "stateMutability": "nonpayable",
      "type": "function"
    },
    {
      "inputs": [
        {
          "internalType": "string",
          "name": "_authorityName",
          "type": "string"
        },
        {
          "internalType": "address",
          "name": "_authorityAddress",
          "type": "address"
        }
      ],
      "name": "addAuthority",
      "outputs": [],
      "stateMutability": "nonpayable",
      "type": "function"
    },
    {
      "inputs": [
        {
          "internalType": "address",
          "name": "_employeeAddress",
          "type": "address"
        }
      ],
      "name": "removeEmployee",
      "outputs": [],
      "stateMutability": "nonpayable",
      "type": "function"
    },
    {
      "inputs": [
        {
          "internalType": "address",
          "name": "_employerAddress",
          "type": "address"
        }
      ],
      "name": "getEmployeesByEmployer",
      "outputs": [
        {
          "internalType": "address[]",
          "name": "",
          "type": "address[]"
        }
      ],
      "stateMutability": "view",
      "type": "function",
      "constant": true
    },
    {
      "inputs": [],
      "name": "getAllEmployees",
      "outputs": [
        {
          "internalType": "address[]",
          "name": "",
          "type": "address[]"
        }
      ],
      "stateMutability": "view",
      "type": "function",
      "constant": true
    },
    {
      "inputs": [],
      "name": "getAllEmployers",
      "outputs": [
        {
          "internalType": "address[]",
          "name": "",
          "type": "address[]"
        }
      ],
      "stateMutability": "view",
      "type": "function",
      "constant": true
    },
    {
      "inputs": [],
      "name": "getAllAuthorities",
      "outputs": [
        {
          "internalType": "address[]",
          "name": "",
          "type": "address[]"
        }
      ],
      "stateMutability": "view",
      "type": "function",
      "constant": true
    },
    {
      "inputs": [
        {
          "internalType": "uint256",
          "name": "date",
          "type": "uint256"
        },
        {
          "internalType": "bytes32",
          "name": "reason",
          "type": "bytes32"
        }
      ],
      "name": "applyLeave",
      "outputs": [],
      "stateMutability": "nonpayable",
      "type": "function"
    },
    {
      "inputs": [
        {
          "components": [
            {
              "internalType": "uint256",
              "name": "id",
              "type": "uint256"
            },
            {
              "internalType": "uint256",
              "name": "date",
              "type": "uint256"
            },
            {
              "internalType": "bytes32",
              "name": "reason",
              "type": "bytes32"
            },
            {
              "internalType": "enum ClearLeth.leaveStatus",
              "name": "status",
              "type": "uint8"
            },
            {
              "internalType": "address",
              "name": "employee",
              "type": "address"
            }
          ],
          "internalType": "struct ClearLeth.leave",
          "name": "_leave",
          "type": "tuple"
        }
      ],
      "name": "cancelLeave",
      "outputs": [],
      "stateMutability": "nonpayable",
      "type": "function"
    },
    {
      "inputs": [
        {
          "components": [
            {
              "internalType": "uint256",
              "name": "id",
              "type": "uint256"
            },
            {
              "internalType": "uint256",
              "name": "date",
              "type": "uint256"
            },
            {
              "internalType": "bytes32",
              "name": "reason",
              "type": "bytes32"
            },
            {
              "internalType": "enum ClearLeth.leaveStatus",
              "name": "status",
              "type": "uint8"
            },
            {
              "internalType": "address",
              "name": "employee",
              "type": "address"
            }
          ],
          "internalType": "struct ClearLeth.leave",
          "name": "leaveToApprove",
          "type": "tuple"
        }
      ],
      "name": "approveLeave",
      "outputs": [],
      "stateMutability": "nonpayable",
      "type": "function"
    },
    {
      "inputs": [
        {
          "components": [
            {
              "internalType": "uint256",
              "name": "id",
              "type": "uint256"
            },
            {
              "internalType": "uint256",
              "name": "date",
              "type": "uint256"
            },
            {
              "internalType": "bytes32",
              "name": "reason",
              "type": "bytes32"
            },
            {
              "internalType": "enum ClearLeth.leaveStatus",
              "name": "status",
              "type": "uint8"
            },
            {
              "internalType": "address",
              "name": "employee",
              "type": "address"
            }
          ],
          "internalType": "struct ClearLeth.leave",
          "name": "leaveToReject",
          "type": "tuple"
        }
      ],
      "name": "rejectLeave",
      "outputs": [],
      "stateMutability": "nonpayable",
      "type": "function"
    },
    {
      "inputs": [],
      "name": "getLeaveBalance",
      "outputs": [
        {
          "internalType": "uint256",
          "name": "",
          "type": "uint256"
        }
      ],
      "stateMutability": "view",
      "type": "function",
      "constant": true
    },
    {
      "inputs": [
        {
          "internalType": "uint256",
          "name": "leaveId",
          "type": "uint256"
        }
      ],
      "name": "getLeaveInformation",
      "outputs": [
        {
          "components": [
            {
              "internalType": "uint256",
              "name": "id",
              "type": "uint256"
            },
            {
              "internalType": "uint256",
              "name": "date",
              "type": "uint256"
            },
            {
              "internalType": "bytes32",
              "name": "reason",
              "type": "bytes32"
            },
            {
              "internalType": "enum ClearLeth.leaveStatus",
              "name": "status",
              "type": "uint8"
            },
            {
              "internalType": "address",
              "name": "employee",
              "type": "address"
            }
          ],
          "internalType": "struct ClearLeth.leave",
          "name": "",
          "type": "tuple"
        }
      ],
      "stateMutability": "view",
      "type": "function",
      "constant": true
    },
    {
      "inputs": [
        {
          "internalType": "address",
          "name": "employeeAddress",
          "type": "address"
        }
      ],
      "name": "getLeaveApplications",
      "outputs": [
        {
          "components": [
            {
              "internalType": "uint256",
              "name": "id",
              "type": "uint256"
            },
            {
              "internalType": "uint256",
              "name": "date",
              "type": "uint256"
            },
            {
              "internalType": "bytes32",
              "name": "reason",
              "type": "bytes32"
            },
            {
              "internalType": "enum ClearLeth.leaveStatus",
              "name": "status",
              "type": "uint8"
            },
            {
              "internalType": "address",
              "name": "employee",
              "type": "address"
            }
          ],
          "internalType": "struct ClearLeth.leave[]",
          "name": "",
          "type": "tuple[]"
        }
      ],
      "stateMutability": "view",
      "type": "function",
      "constant": true
    },
    {
      "inputs": [
        {
          "internalType": "address",
          "name": "employerAddress",
          "type": "address"
        },
        {
          "internalType": "uint256",
          "name": "limit",
          "type": "uint256"
        }
      ],
      "name": "setLeaveLimit",
      "outputs": [],
      "stateMutability": "nonpayable",
      "type": "function"
    }
  ],
  "bytecode": "0x60806040526000600755600060085560006009556000600b553480156200002557600080fd5b50604051620028583803806200285883398101604081905262000048916200023a565b60008054336001600160a01b0319918216811783556001805480820182559084527fb10e2d527612073b26eecdfd717e6a320cf44b4afac2b0732d9fcbe2b7fa0cf60180549092161790556008805491620000a38362000254565b90915550506040805160c0810182526005608082019081526427bbb732b960d91b60a083015281523360208083018290528351808501855260038152624e555360e81b818301528385015260016060840152600091825260048152929020815180519293849362000118928492019062000194565b506020828101516001830180546001600160a01b0319166001600160a01b039092169190911790556040830151805162000159926002850192019062000194565b50606082015160038201805460ff191660018360028111156200018057620001806200027e565b02179055505050600a9190915550620002d1565b828054620001a29062000294565b90600052602060002090601f016020900481019282620001c6576000855562000211565b82601f10620001e157805160ff191683800117855562000211565b8280016001018555821562000211579182015b8281111562000211578251825591602001919060010190620001f4565b506200021f92915062000223565b5090565b5b808211156200021f576000815560010162000224565b6000602082840312156200024d57600080fd5b5051919050565b60006000198214156200027757634e487b7160e01b600052601160045260246000fd5b5060010190565b634e487b7160e01b600052602160045260246000fd5b600181811c90821680620002a957607f821691505b60208210811415620002cb57634e487b7160e01b600052602260045260246000fd5b50919050565b61257780620002e16000396000f3fe608060405234801561001057600080fd5b50600436106101cf5760003560e01c8063839f48e811610104578063d023d10f116100a2578063dda89a6e11610071578063dda89a6e146103fd578063e3366fed14610406578063edf538861461040e578063fedf2c561461043157600080fd5b8063d023d10f146103a3578063d108177a146103ac578063d1ef4f63146103bf578063d7639409146103d457600080fd5b8063b8e8ac54116100de578063b8e8ac541461033a578063bcdd88911461034d578063bf04a10d1461036d578063ce606ee01461039057600080fd5b8063839f48e81461030b5780639f251f8014610314578063ab244e1e1461032757600080fd5b80635dc2e731116101715780636216f27a1161014b5780636216f27a146102c5578063687d9b93146102dc5780636e82ac57146102ef5780637675c14c1461030257600080fd5b80635dc2e7311461027f57806360bf08671461029257806360c38dff146102b257600080fd5b80632b5e0065116101ad5780632b5e00651461021c5780633039f6081461025157806330a31e4e14610264578063382dbfb61461027757600080fd5b806312958f1c146101d457806314c671d6146101f25780631fbabfce14610207575b600080fd5b6101dc610439565b6040516101e99190611fad565b60405180910390f35b6101fa6104da565b6040516101e99190611fc7565b61021a6102153660046120d3565b6105a5565b005b336000908152600460205260409020600101546001600160a01b03165b6040516001600160a01b0390911681526020016101e9565b61021a61025f366004612121565b610738565b61021a6102723660046121a2565b6109c8565b6101dc610b1d565b61021a61028d366004612216565b610b3e565b6102a56102a0366004612238565b610dff565b6040516101e991906122af565b61021a6102c0366004612121565b610ee5565b6102ce60075481565b6040519081526020016101e9565b6101fa6102ea366004612238565b611092565b61021a6102fd3660046122f1565b611108565b6102ce600a5481565b6102ce60085481565b61021a6103223660046120d3565b61114e565b6102396103353660046122f1565b6113c3565b61021a610348366004612121565b6113fb565b61036061035b36600461231b565b6116ce565b6040516101e99190612334565b3360009081526004602052604090206003015460ff166040516101e9919061235c565b600054610239906001600160a01b031681565b6102ce60095481565b61021a6103ba366004612238565b611820565b336000908152600e60205260409020546102ce565b6102396103e2366004612238565b6005602052600090815260409020546001600160a01b031681565b6102ce600b5481565b6101fa611b61565b61042161041c366004612238565b611c26565b6040516101e9949392919061236a565b6101fa611d70565b336000908152600460205260409020805460609190610457906123b7565b80601f0160208091040260200160405190810160405280929190818152602001828054610483906123b7565b80156104d05780601f106104a5576101008083540402835291602001916104d0565b820191906000526020600020905b8154815290600101906020018083116104b357829003601f168201915b5050505050905090565b6060600060085467ffffffffffffffff8111156104f9576104f9612014565b604051908082528060200260200182016040528015610522578160200160208202803683370190505b50905060005b60085481101561059f5760018181548110610545576105456123ec565b9060005260206000200160009054906101000a90046001600160a01b0316828281518110610575576105756123ec565b6001600160a01b03909216602092830291909101909101528061059781612418565b915050610528565b50919050565b6000546001600160a01b0316331461061b5760405162461bcd60e51b815260206004820152602e60248201527f4f6e6c792074686520636f6e7472616374206f776e65722063616e2063616c6c60448201526d103a3434b990333ab731ba34b7b760911b60648201526084015b60405180910390fd5b60038054600181019091557fc2575a0e9e593c00f959f8c92f12db2869c3395a3b0502d05e2516446f71f85b0180546001600160a01b0319166001600160a01b0383169081179091556040805160808101825284815233602080830191909152825180820184526000808252838501919091526002606084015293845260048152919092208251805184936106b4928492910190611e35565b506020828101516001830180546001600160a01b0319166001600160a01b03909216919091179055604083015180516106f39260028501920190611e35565b50606082015160038201805460ff1916600183600281111561071757610717612253565b021790555050600980549150600061072e83612418565b9190505550505050565b8051600b5481106107805760405162461bcd60e51b8152602060048201526012602482015271139bdd0815985b1a59081319585d9948125960721b6044820152606401610612565b8160008160600151600381111561079957610799612253565b146107b65760405162461bcd60e51b815260040161061290612433565b60808301516001600160a01b038082166000908152600560205260409020541633146107f45760405162461bcd60e51b815260040161061290612461565b608084015160005b6001600160a01b0382166000908152600d60205260409020548110156108d85785516001600160a01b0383166000908152600d60205260409020805483908110610848576108486123ec565b90600052602060002090600402016000015414156108c6576001600160a01b0382166000908152600d602052604090208054600391908390811061088e5761088e6123ec565b906000526020600020906004020160030160006101000a81548160ff021916908360038111156108c0576108c0612253565b02179055505b806108d081612418565b9150506107fc565b5060005b600c54811015610973578551600c8054839081106108fc576108fc6123ec565b9060005260206000209060040201600001541415610961576003600c8281548110610929576109296123ec565b906000526020600020906004020160030160006101000a81548160ff0219169083600381111561095b5761095b612253565b02179055505b8061096b81612418565b9150506108dc565b508451604080516001600160a01b0384168152336020820152908101919091527fcfedd8a6cf86a82ac7dd3f04b1e86f248df069f9f15810bf8a52dabc8c7a25af906060015b60405180910390a15050505050565b60013360009081526004602052604090206003015460ff1660028111156109f1576109f1612253565b14610a0e5760405162461bcd60e51b8152600401610612906124b6565b6001805480820182557fb10e2d527612073b26eecdfd717e6a320cf44b4afac2b0732d9fcbe2b7fa0cf60180546001600160a01b0319166001600160a01b038416908117909155604080516080810182528581526020808201849052818301889052606082019490945260009283526004845291208151805192938493610a989284920190611e35565b506020828101516001830180546001600160a01b0319166001600160a01b0390921691909117905560408301518051610ad79260028501920190611e35565b50606082015160038201805460ff19166001836002811115610afb57610afb612253565b0217905550506008805491506000610b1283612418565b919050555050505050565b336000908152600460205260409020600201805460609190610457906123b7565b3360009081526004602052604081206003015460ff166002811115610b6557610b65612253565b14610bc05760405162461bcd60e51b815260206004820152602560248201527f4f6e6c7920656d706c6f796565732063616e2063616c6c20746869732066756e60448201526431ba34b7b760d91b6064820152608401610612565b60006040518060a00160405280600b54815260200184815260200183815260200160006003811115610bf457610bf4612253565b815233602090910152600b80549192506000610c0f83612418565b9091555050336000908152600d6020908152604080832080546001818101835591855293839020855160049095020193845591840151838301558301516002830155606083015160038084018054869594919260ff1990911691908490811115610c7b57610c7b612253565b021790555060809190910151600391820180546001600160a01b0390921661010002610100600160a81b0319909216919091179055600c805460018181018355600092909252835160049091027fdf6966c971051c3d54ec59162606531493a51404a002842f56009d7e5cf4a8c7810191825560208501517fdf6966c971051c3d54ec59162606531493a51404a002842f56009d7e5cf4a8c882015560408501517fdf6966c971051c3d54ec59162606531493a51404a002842f56009d7e5cf4a8c982015560608501517fdf6966c971051c3d54ec59162606531493a51404a002842f56009d7e5cf4a8ca9091018054869593949293919260ff19909116918490811115610d8b57610d8b612253565b021790555060809190910151600390910180546001600160a01b0390921661010002610100600160a81b031990921691909117905560408051338152602081018590527f5b1c7e0d74c949689e7dda74fc61f454bbf5895102bb71b95a7af806102cf0cb91015b60405180910390a1505050565b6001600160a01b0381166000908152600d60209081526040808320805482518185028101850190935280835260609492939192909184015b82821015610eda57838290600052602060002090600402016040518060a00160405290816000820154815260200160018201548152602001600282015481526020016003820160009054906101000a900460ff166003811115610e9c57610e9c612253565b6003811115610ead57610ead612253565b81526003919091015461010090046001600160a01b03166020918201529082526001929092019101610e37565b505050509050919050565b80600081606001516003811115610efe57610efe612253565b14610f1b5760405162461bcd60e51b815260040161061290612433565b608082015182906001600160a01b03163314610f945760405162461bcd60e51b815260206004820152603260248201527f4f6e6c7920656d706c6f796565206f662074686973206c656176652063616e2060448201527131b0b636103a3434b990333ab731ba34b7b760711b6064820152608401610612565b60005b336000908152600d6020526040902054811015611058578351336000908152600d60205260409020805483908110610fd157610fd16123ec565b906000526020600020906004020160000154141561104657336000908152600d602052604090208054600191908390811061100e5761100e6123ec565b906000526020600020906004020160030160006101000a81548160ff0219169083600381111561104057611040612253565b02179055505b8061105081612418565b915050610f97565b5082516040805133815260208101929092527fb7ebc98aeb0d019f1d38bdecf34a056aa9be46ff8aed7cf80b640ff0073d6ac79101610df2565b6001600160a01b0381166000908152600660209081526040918290208054835181840281018401909452808452606093928301828280156110fc57602002820191906000526020600020905b81546001600160a01b031681526001909101906020018083116110de575b50505050509050919050565b604080516001600160a01b0384168152602081018390527fc687ccbce0cc89ceb74a46d6867e5268d2bb596e3b2b08bf139879cfa6f14bdd910160405180910390a15050565b60013360009081526004602052604090206003015460ff16600281111561117757611177612253565b146111945760405162461bcd60e51b8152600401610612906124b6565b600280546001810182557f405787fa12a823e0f2b7631cc41b3ba8828b3321ca811111fa75cd3aa3bb5ace0180546001600160a01b0319166001600160a01b03841617905533600090815260046020526040812090910180546111f6906123b7565b80601f0160208091040260200160405190810160405280929190818152602001828054611222906123b7565b801561126f5780601f106112445761010080835404028352916020019161126f565b820191906000526020600020905b81548152906001019060200180831161125257829003601f168201915b5050505050905060006040518060800160405280858152602001336001600160a01b03168152602001838152602001600060028111156112b1576112b1612253565b90526001600160a01b038416600090815260046020908152604090912082518051939450849391926112e892849290910190611e35565b506020828101516001830180546001600160a01b0319166001600160a01b03909216919091179055604083015180516113279260028501920190611e35565b50606082015160038201805460ff1916600183600281111561134b5761134b612253565b02179055505033600081815260066020908152604080832080546001810182559084528284200180546001600160a01b038a166001600160a01b03199182168117909255908452600583528184208054909116909417909355600a54600e9091529181209190915560078054925090610b1283612418565b600660205281600052604060002081815481106113df57600080fd5b6000918252602090912001546001600160a01b03169150829050565b8051600b5481106114435760405162461bcd60e51b8152602060048201526012602482015271139bdd0815985b1a59081319585d9948125960721b6044820152606401610612565b8160008160600151600381111561145c5761145c612253565b146114795760405162461bcd60e51b815260040161061290612433565b60808301516001600160a01b038082166000908152600560205260409020541633146114b75760405162461bcd60e51b815260040161061290612461565b608084015160005b6001600160a01b0382166000908152600d602052604090205481101561159b5785516001600160a01b0383166000908152600d6020526040902080548390811061150b5761150b6123ec565b9060005260206000209060040201600001541415611589576001600160a01b0382166000908152600d6020526040902080546002919083908110611551576115516123ec565b906000526020600020906004020160030160006101000a81548160ff0219169083600381111561158357611583612253565b02179055505b8061159381612418565b9150506114bf565b5060005b600c54811015611636578551600c8054839081106115bf576115bf6123ec565b9060005260206000209060040201600001541415611624576002600c82815481106115ec576115ec6123ec565b906000526020600020906004020160030160006101000a81548160ff0219169083600381111561161e5761161e612253565b02179055505b8061162e81612418565b91505061159f565b506020808601516000908152600f9091526040812080549161165783612418565b90915550506001600160a01b0381166000908152600e60205260408120805491611680836124fd565b90915550508451604080516001600160a01b0384168152336020820152908101919091527fd77ba574eae3c58a23e6b228fae2d5390d3c715492024b607e5626321c5cc8ff906060016109b9565b6040805160a0810182526000808252602082018190529181018290526060810182905260808101829052905b600c548110156117e55782600c8281548110611718576117186123ec565b90600052602060002090600402016000015414156117d357600c8181548110611743576117436123ec565b90600052602060002090600402016040518060a00160405290816000820154815260200160018201548152602001600282015481526020016003820160009054906101000a900460ff16600381111561179e5761179e612253565b60038111156117af576117af612253565b81526003919091015461010090046001600160a01b03166020909101529392505050565b806117dd81612418565b9150506116fa565b5060405162461bcd60e51b815260206004820152600f60248201526e1319585d99481b9bdd08199bdd5b99608a1b6044820152606401610612565b6001600160a01b03808216600090815260056020526040902054829116331461185b5760405162461bcd60e51b815260040161061290612461565b60005b60025481101561196057826001600160a01b031660028281548110611885576118856123ec565b6000918252602090912001546001600160a01b0316141561194e57600280546118b090600190612514565b815481106118c0576118c06123ec565b600091825260209091200154600280546001600160a01b0390921691839081106118ec576118ec6123ec565b9060005260206000200160006101000a8154816001600160a01b0302191690836001600160a01b03160217905550600280548061192b5761192b61252b565b600082815260209020810160001990810180546001600160a01b03191690550190555b8061195881612418565b91505061185e565b5060005b33600090815260066020526040902054811015611aa65733600090815260066020526040902080546001600160a01b0385169190839081106119a8576119a86123ec565b6000918252602090912001546001600160a01b03161415611a945733600090815260066020526040902080546119e090600190612514565b815481106119f0576119f06123ec565b60009182526020808320909101543383526006909152604090912080546001600160a01b039092169183908110611a2957611a296123ec565b600091825260208083209190910180546001600160a01b0319166001600160a01b039490941693909317909255338152600690915260409020805480611a7157611a7161252b565b600082815260209020810160001990810180546001600160a01b03191690550190555b80611a9e81612418565b915050611964565b506001600160a01b038216600090815260046020526040812090611aca8282611eb9565b6001820180546001600160a01b0319169055611aea600283016000611eb9565b50600301805460ff191690556001600160a01b038216600090815260056020908152604080832080546001600160a01b0319169055600d9091528120611b2f91611ef6565b6001600160a01b0382166000908152600e602052604081208190556007805491611b58836124fd565b91905055505050565b6060600060075467ffffffffffffffff811115611b8057611b80612014565b604051908082528060200260200182016040528015611ba9578160200160208202803683370190505b50905060005b60075481101561059f5760028181548110611bcc57611bcc6123ec565b9060005260206000200160009054906101000a90046001600160a01b0316828281518110611bfc57611bfc6123ec565b6001600160a01b039092166020928302919091019091015280611c1e81612418565b915050611baf565b600460205260009081526040902080548190611c41906123b7565b80601f0160208091040260200160405190810160405280929190818152602001828054611c6d906123b7565b8015611cba5780601f10611c8f57610100808354040283529160200191611cba565b820191906000526020600020905b815481529060010190602001808311611c9d57829003601f168201915b505050600184015460028501805494956001600160a01b03909216949193509150611ce4906123b7565b80601f0160208091040260200160405190810160405280929190818152602001828054611d10906123b7565b8015611d5d5780601f10611d3257610100808354040283529160200191611d5d565b820191906000526020600020905b815481529060010190602001808311611d4057829003601f168201915b5050506003909301549192505060ff1684565b6060600060095467ffffffffffffffff811115611d8f57611d8f612014565b604051908082528060200260200182016040528015611db8578160200160208202803683370190505b50905060005b60095481101561059f5760038181548110611ddb57611ddb6123ec565b9060005260206000200160009054906101000a90046001600160a01b0316828281518110611e0b57611e0b6123ec565b6001600160a01b039092166020928302919091019091015280611e2d81612418565b915050611dbe565b828054611e41906123b7565b90600052602060002090601f016020900481019282611e635760008555611ea9565b82601f10611e7c57805160ff1916838001178555611ea9565b82800160010185558215611ea9579182015b82811115611ea9578251825591602001919060010190611e8e565b50611eb5929150611f17565b5090565b508054611ec5906123b7565b6000825580601f10611ed5575050565b601f016020900490600052602060002090810190611ef39190611f17565b50565b5080546000825560040290600052602060002090810190611ef39190611f2c565b5b80821115611eb55760008155600101611f18565b5b80821115611eb55760008082556001820181905560028201556003810180546001600160a81b0319169055600401611f2d565b6000815180845260005b81811015611f8657602081850181015186830182015201611f6a565b81811115611f98576000602083870101525b50601f01601f19169290920160200192915050565b602081526000611fc06020830184611f60565b9392505050565b6020808252825182820181905260009190848201906040850190845b818110156120085783516001600160a01b031683529284019291840191600101611fe3565b50909695505050505050565b634e487b7160e01b600052604160045260246000fd5b600082601f83011261203b57600080fd5b813567ffffffffffffffff8082111561205657612056612014565b604051601f8301601f19908116603f0116810190828211818310171561207e5761207e612014565b8160405283815286602085880101111561209757600080fd5b836020870160208301376000602085830101528094505050505092915050565b80356001600160a01b03811681146120ce57600080fd5b919050565b600080604083850312156120e657600080fd5b823567ffffffffffffffff8111156120fd57600080fd5b6121098582860161202a565b925050612118602084016120b7565b90509250929050565b600060a0828403121561213357600080fd5b60405160a0810181811067ffffffffffffffff8211171561215657612156612014565b806040525082358152602083013560208201526040830135604082015260608301356004811061218557600080fd5b6060820152612196608084016120b7565b60808201529392505050565b6000806000606084860312156121b757600080fd5b833567ffffffffffffffff808211156121cf57600080fd5b6121db8783880161202a565b945060208601359150808211156121f157600080fd5b506121fe8682870161202a565b92505061220d604085016120b7565b90509250925092565b6000806040838503121561222957600080fd5b50508035926020909101359150565b60006020828403121561224a57600080fd5b611fc0826120b7565b634e487b7160e01b600052602160045260246000fd5b80518252602081015160208301526040810151604083015260608101516004811061229657612296612253565b60608301526080908101516001600160a01b0316910152565b6020808252825182820181905260009190848201906040850190845b81811015612008576122de838551612269565b9284019260a092909201916001016122cb565b6000806040838503121561230457600080fd5b61230d836120b7565b946020939093013593505050565b60006020828403121561232d57600080fd5b5035919050565b60a081016123428284612269565b92915050565b6003811061235857612358612253565b9052565b602081016123428284612348565b60808152600061237d6080830187611f60565b6001600160a01b0386166020840152828103604084015261239e8186611f60565b9150506123ae6060830184612348565b95945050505050565b600181811c908216806123cb57607f821691505b6020821081141561059f57634e487b7160e01b600052602260045260246000fd5b634e487b7160e01b600052603260045260246000fd5b634e487b7160e01b600052601160045260246000fd5b600060001982141561242c5761242c612402565b5060010190565b6020808252601490820152734c65617665206973206e6f742070656e64696e6760601b604082015260600190565b60208082526035908201527f4f6e6c7920656d706c6f796572206f66207468697320656d706c6f796565206360408201527430b71031b0b636103a3434b990333ab731ba34b7b760591b606082015260800190565b60208082526027908201527f4f6e6c7920616e20656d706c6f7965722063616e2063616c6c207468697320666040820152663ab731ba34b7b760c91b606082015260800190565b60008161250c5761250c612402565b506000190190565b60008282101561252657612526612402565b500390565b634e487b7160e01b600052603160045260246000fdfea26469706673582212203290fbc57f1eb92f9d85a83102d9c7ce7d4ac2203038c5510252fee01f6e188364736f6c634300080b0033",
  "immutableReferences": {},
  "source": "// SPDX-License-Identifier: MIT\npragma solidity >=0.4.22 <0.9.0;\n\ncontract ClearLeth {\n    address public contractOwner;\n\n    address[] employers;\n    address[] employees;\n    address[] authorities;\n\n    mapping(address => user) public addressToUser;\n\n    mapping(address => address) public employeeToEmployer;\n    mapping(address => address[]) public employerToEmployee;\n\n    uint256 public numOfEmployees = 0;\n    uint256 public numOfEmployers = 0;\n    uint256 public numOfAuthorities = 0;\n\n    enum role {\n        employee,\n        employer,\n        authority\n    }\n\n    enum leaveStatus {\n        pending,\n        cancelled,\n        approved,\n        rejected\n    }\n\n    struct user {\n        string name;\n        address wallet;\n        string company;\n        role role;\n    }\n\n    struct leave {\n        uint256 id;\n        uint256 date; // UNIX\n        bytes32 reason;\n        leaveStatus status;\n        address employee;\n    }\n\n    uint256 public leaveAmount;\n    uint256 public numLeaves = 0;\n    leave[] allLeaves;\n\n    mapping(address => leave[]) employeeToLeaves;\n    mapping(address => uint256) employeeLeaveBalance;\n    mapping(uint256 => uint256) datesToEmployeesApplied;\n    mapping(address => uint256) employersToLeaveLimit;\n\n    event LeaveApplied(address employee, uint256 date);\n    event LeaveApproved(address employee, address employer, uint256 leaveId);\n    event LeaveCancelled(address employee, uint256 leaveId);\n    event LeaveRejected(address employee, address employer, uint256 leaveId);\n    event LeaveLimitSet(address employer, uint256 limit);\n\n    // @dev Owner of contract will be able to add employers and is an employer\n    // @dev leaveAmount is also set when deployed\n    constructor(uint256 _leaveAmount) {\n        contractOwner = msg.sender;\n        employers.push(msg.sender);\n        numOfEmployers++;\n\n        // new user object\n        user memory newUser = user(\"Owner\", msg.sender, \"NUS\", role.employer);\n\n        addressToUser[msg.sender] = newUser;\n        leaveAmount = _leaveAmount;\n    }\n\n    modifier employerOnly(address employeeAddress) {\n        require(\n            employeeToEmployer[employeeAddress] == msg.sender,\n            \"Only employer of this employee can call this function\"\n        );\n        _;\n    }\n\n    // modifier notSelf(address toAdd) {\n    //     require(\n    //         toAdd != msg.sender,\n    //         \"You cannot add yourself!\"\n    //     );\n    //     _;\n    //}\n\n    modifier isOwner() {\n        require(\n            contractOwner == msg.sender,\n            \"Only the contract owner can call this function\"\n        );\n        _;\n    }\n\n    modifier isEmployer() {\n        require(\n            addressToUser[msg.sender].role == role.employer,\n            \"Only an employer can call this function\"\n        );\n        _;\n    }\n\n    modifier isEmployee() {\n        require(\n            addressToUser[msg.sender].role == role.employee,\n            \"Only employees can call this function\"\n        );\n        _;\n    }\n\n    modifier isAuthority() {\n        require(\n            addressToUser[msg.sender].role == role.authority,\n            \"Only authorities can call this function\"\n        );\n        _;\n    }\n\n    modifier validLeaveId(uint256 leaveId) {\n        require(leaveId < numLeaves, \"Not Valid Leave Id\");\n        _;\n    }\n\n    modifier validLeaveStatus(leave memory leaveApplication) {\n        require(\n            leaveApplication.status == leaveStatus.pending,\n            \"Leave is not pending\"\n        );\n        _;\n    }\n\n    modifier isEmployeeOfLeave(leave memory _leave) {\n        require(\n            _leave.employee == msg.sender,\n            \"Only employee of this leave can call this function\"\n        );\n        _;\n    }\n\n    function getUserName() public view returns (string memory) {\n        return addressToUser[msg.sender].name;\n    }\n\n    function getUserCompany() public view returns (string memory) {\n        return addressToUser[msg.sender].company;\n    }\n\n    function getUserWallet() public view returns (address) {\n        return addressToUser[msg.sender].wallet;\n    }\n\n    function getUserRole() public view returns (role) {\n        return addressToUser[msg.sender].role;\n    }\n\n    function addEmployer(string memory _company, string memory _employerName, address _employerAddress) public isEmployer {\n        employers.push(_employerAddress);\n\n        // new user object\n        user memory newUser = user(_employerName, _employerAddress, _company, role.employer);\n\n        addressToUser[_employerAddress] = newUser;\n        numOfEmployers++;\n    }\n\n    function addEmployee(string memory _employeeName, address _employeeAddress) public isEmployer {\n        employees.push(_employeeAddress);\n\n        // new user object\n        string memory company = addressToUser[msg.sender].company;\n        user memory newUser = user(_employeeName, msg.sender, company, role.employee);\n\n        addressToUser[_employeeAddress] = newUser;\n        employerToEmployee[msg.sender].push(_employeeAddress);\n        employeeToEmployer[_employeeAddress] = msg.sender;\n        employeeLeaveBalance[_employeeAddress] = leaveAmount;\n        numOfEmployees++;\n    }\n\n    function addAuthority(string memory _authorityName, address _authorityAddress) public isOwner {\n        authorities.push(_authorityAddress);\n\n        // new user object\n        user memory newUser = user(_authorityName, msg.sender, \"\", role.authority);\n\n        addressToUser[_authorityAddress] = newUser;\n        numOfAuthorities++;\n    }\n\n    // @dev would be better if we just update mapping employees to false\n    // then when we do getEmployees if wont appear\n    function removeEmployee(address _employeeAddress)\n        public\n        employerOnly(_employeeAddress)\n    {\n        for (uint256 i = 0; i < employees.length; i++) {\n            if (employees[i] == _employeeAddress) {\n                employees[i] = employees[employees.length - 1];\n                employees.pop();\n            }\n        }\n\n        for (uint256 j = 0; j < employerToEmployee[msg.sender].length; j++) {\n            if (employerToEmployee[msg.sender][j] == _employeeAddress) {\n                employerToEmployee[msg.sender][j] = employerToEmployee[\n                    msg.sender\n                ][employerToEmployee[msg.sender].length - 1];\n                employerToEmployee[msg.sender].pop();\n            }\n        }\n\n        delete addressToUser[_employeeAddress];\n        delete employeeToEmployer[_employeeAddress];\n        delete employeeToLeaves[_employeeAddress];\n        delete employeeLeaveBalance[_employeeAddress];\n        numOfEmployees--;\n    }\n\n    function getEmployeesByEmployer(address _employerAddress)\n        public\n        view\n        returns (address[] memory)\n    {\n        return employerToEmployee[_employerAddress];\n    }\n\n    // @dev transfer complexity to view function no gas\n    function getAllEmployees() public view returns (address[] memory) {\n        address[] memory employeeArray = new address[](numOfEmployees);\n        for (uint256 i = 0; i < numOfEmployees; i++) {\n            employeeArray[i] = employees[i];\n        }\n\n        return employeeArray;\n    }\n\n    // @dev transfer complexity to view function no gas\n    function getAllEmployers() public view returns (address[] memory) {\n        address[] memory employerArray = new address[](numOfEmployers);\n        for (uint256 i = 0; i < numOfEmployers; i++) {\n            employerArray[i] = employers[i];\n        }\n\n        return employerArray;\n    }\n\n    // @dev transfer complexity to view function no gas\n    function getAllAuthorities() public view returns (address[] memory) {\n        address[] memory authoritiesArray = new address[](numOfAuthorities);\n        for (uint256 i = 0; i < numOfAuthorities; i++) {\n            authoritiesArray[i] = authorities[i];\n        }\n        return authoritiesArray;\n    }\n\n    function applyLeave(uint256 date, bytes32 reason) public isEmployee {\n        leave memory newLeave = leave(\n            numLeaves,\n            date,\n            reason,\n            leaveStatus.pending,\n            msg.sender\n        );\n\n        numLeaves++;\n        employeeToLeaves[msg.sender].push(newLeave);\n        allLeaves.push(newLeave);\n        emit LeaveApplied(msg.sender, date);\n    }\n\n    function cancelLeave(leave memory _leave)\n        public\n        validLeaveStatus(_leave)\n        isEmployeeOfLeave(_leave)\n    {\n        for (uint256 i = 0; i < employeeToLeaves[msg.sender].length; i++) {\n            if (employeeToLeaves[msg.sender][i].id == _leave.id) {\n                employeeToLeaves[msg.sender][i].status = leaveStatus.cancelled;\n            }\n        }\n        emit LeaveCancelled(msg.sender, _leave.id);\n    }\n\n    function approveLeave(leave memory leaveToApprove)\n        public\n        validLeaveId(leaveToApprove.id)\n        validLeaveStatus(leaveToApprove)\n        employerOnly(leaveToApprove.employee)\n    {\n        address employeeAddress = leaveToApprove.employee;\n        for (uint256 i = 0; i < employeeToLeaves[employeeAddress].length; i++) {\n            if (employeeToLeaves[employeeAddress][i].id == leaveToApprove.id) {\n                employeeToLeaves[employeeAddress][i].status = leaveStatus\n                    .approved;\n            }\n        }\n\n        for (uint256 j = 0; j < allLeaves.length; j++) {\n            if (allLeaves[j].id == leaveToApprove.id) {\n                allLeaves[j].status = leaveStatus.approved;\n            }\n        }\n\n        datesToEmployeesApplied[leaveToApprove.date]++;\n        employeeLeaveBalance[employeeAddress]--;\n        emit LeaveApproved(employeeAddress, msg.sender, leaveToApprove.id);\n    }\n\n    function rejectLeave(leave memory leaveToReject)\n        public\n        validLeaveId(leaveToReject.id)\n        validLeaveStatus(leaveToReject)\n        employerOnly(leaveToReject.employee)\n    {\n        address employeeAddress = leaveToReject.employee;\n        for (uint256 i = 0; i < employeeToLeaves[employeeAddress].length; i++) {\n            if (employeeToLeaves[employeeAddress][i].id == leaveToReject.id) {\n                employeeToLeaves[employeeAddress][i].status = leaveStatus\n                    .rejected;\n            }\n        }\n\n        for (uint256 j = 0; j < allLeaves.length; j++) {\n            if (allLeaves[j].id == leaveToReject.id) {\n                allLeaves[j].status = leaveStatus.rejected;\n            }\n        }\n        emit LeaveRejected(employeeAddress, msg.sender, leaveToReject.id);\n    }\n\n    function getLeaveBalance() public view returns (uint256) {\n        return employeeLeaveBalance[msg.sender];\n    }\n\n// this method i think cannot return a struct? - ryan\n    function getLeaveInformation(uint256 leaveId)\n        public\n        view\n        returns (leave memory)\n    {\n        for (uint256 i = 0; i < allLeaves.length; i++) {\n            if (allLeaves[i].id == leaveId) {\n                return allLeaves[i];\n            }\n        }\n        revert(\"Leave not found\");\n    }\n\n    function getLeaveApplications(address employeeAddress)\n        public\n        view\n        returns (leave[] memory)\n    {\n        return employeeToLeaves[employeeAddress];\n    }\n\n    function setLeaveLimit(address employerAddress, uint256 limit) public {\n        emit LeaveLimitSet(employerAddress, limit);\n    }\n}\n",
  "sourcePath": "/Users/ryyant/IS4302-project/contracts/ClearLeth.sol",
  "compiler": {
    "name": "solc",
    "version": "0.8.11+commit.d7f03943.Emscripten.clang"
  },
  "schemaVersion": "3.4.4",
  "updatedAt": "2022-04-08T08:55:42.165Z",
  "networkType": "ethereum",
  "devdoc": {
    "kind": "dev",
    "methods": {},
    "version": 1
  },
  "userdoc": {
    "kind": "user",
    "methods": {},
    "version": 1
  }
}