{
  "contractName": "ClearLeth",
  "abi": [
    {
      "inputs": [
        {
          "internalType": "uint256",
          "name": "_leaveAmount",
          "type": "uint256"
        }
      ],
      "stateMutability": "nonpayable",
      "type": "constructor"
    },
    {
      "anonymous": false,
      "inputs": [
        {
          "indexed": false,
          "internalType": "address",
          "name": "employee",
          "type": "address"
        }
      ],
      "name": "LeaveApplied",
      "type": "event"
    },
    {
      "anonymous": false,
      "inputs": [
        {
          "indexed": false,
          "internalType": "address",
          "name": "employee",
          "type": "address"
        },
        {
          "indexed": false,
          "internalType": "address",
          "name": "employer",
          "type": "address"
        },
        {
          "indexed": false,
          "internalType": "uint256",
          "name": "leaveId",
          "type": "uint256"
        }
      ],
      "name": "LeaveApproved",
      "type": "event"
    },
    {
      "anonymous": false,
      "inputs": [
        {
          "indexed": false,
          "internalType": "address",
          "name": "employee",
          "type": "address"
        },
        {
          "indexed": false,
          "internalType": "uint256",
          "name": "leaveId",
          "type": "uint256"
        }
      ],
      "name": "LeaveCancelled",
      "type": "event"
    },
    {
      "anonymous": false,
      "inputs": [
        {
          "indexed": false,
          "internalType": "address",
          "name": "employer",
          "type": "address"
        },
        {
          "indexed": false,
          "internalType": "uint256",
          "name": "limit",
          "type": "uint256"
        }
      ],
      "name": "LeaveLimitSet",
      "type": "event"
    },
    {
      "anonymous": false,
      "inputs": [
        {
          "indexed": false,
          "internalType": "address",
          "name": "employee",
          "type": "address"
        },
        {
          "indexed": false,
          "internalType": "address",
          "name": "employer",
          "type": "address"
        },
        {
          "indexed": false,
          "internalType": "uint256",
          "name": "leaveId",
          "type": "uint256"
        }
      ],
      "name": "LeaveRejected",
      "type": "event"
    },
    {
      "inputs": [
        {
          "internalType": "address",
          "name": "",
          "type": "address"
        }
      ],
      "name": "addressToUser",
      "outputs": [
        {
          "internalType": "string",
          "name": "name",
          "type": "string"
        },
        {
          "internalType": "address",
          "name": "wallet",
          "type": "address"
        },
        {
          "internalType": "string",
          "name": "company",
          "type": "string"
        },
        {
          "internalType": "enum ClearLeth.role",
          "name": "role",
          "type": "uint8"
        }
      ],
      "stateMutability": "view",
      "type": "function",
      "constant": true
    },
    {
      "inputs": [],
      "name": "contractOwner",
      "outputs": [
        {
          "internalType": "address",
          "name": "",
          "type": "address"
        }
      ],
      "stateMutability": "view",
      "type": "function",
      "constant": true
    },
    {
      "inputs": [
        {
          "internalType": "address",
          "name": "",
          "type": "address"
        }
      ],
      "name": "employeeToEmployer",
      "outputs": [
        {
          "internalType": "address",
          "name": "",
          "type": "address"
        }
      ],
      "stateMutability": "view",
      "type": "function",
      "constant": true
    },
    {
      "inputs": [
        {
          "internalType": "address",
          "name": "",
          "type": "address"
        },
        {
          "internalType": "uint256",
          "name": "",
          "type": "uint256"
        }
      ],
      "name": "employerToEmployee",
      "outputs": [
        {
          "internalType": "address",
          "name": "",
          "type": "address"
        }
      ],
      "stateMutability": "view",
      "type": "function",
      "constant": true
    },
    {
      "inputs": [],
      "name": "leaveAmount",
      "outputs": [
        {
          "internalType": "uint256",
          "name": "",
          "type": "uint256"
        }
      ],
      "stateMutability": "view",
      "type": "function",
      "constant": true
    },
    {
      "inputs": [],
      "name": "numLeaves",
      "outputs": [
        {
          "internalType": "uint256",
          "name": "",
          "type": "uint256"
        }
      ],
      "stateMutability": "view",
      "type": "function",
      "constant": true
    },
    {
      "inputs": [],
      "name": "numOfAuthorities",
      "outputs": [
        {
          "internalType": "uint256",
          "name": "",
          "type": "uint256"
        }
      ],
      "stateMutability": "view",
      "type": "function",
      "constant": true
    },
    {
      "inputs": [],
      "name": "numOfEmployees",
      "outputs": [
        {
          "internalType": "uint256",
          "name": "",
          "type": "uint256"
        }
      ],
      "stateMutability": "view",
      "type": "function",
      "constant": true
    },
    {
      "inputs": [],
      "name": "numOfEmployers",
      "outputs": [
        {
          "internalType": "uint256",
          "name": "",
          "type": "uint256"
        }
      ],
      "stateMutability": "view",
      "type": "function",
      "constant": true
    },
    {
      "inputs": [
        {
          "internalType": "string",
          "name": "_company",
          "type": "string"
        },
        {
          "internalType": "string",
          "name": "_employerName",
          "type": "string"
        },
        {
          "internalType": "address",
          "name": "_employerAddress",
          "type": "address"
        },
        {
          "internalType": "uint256",
          "name": "_leaveLimit",
          "type": "uint256"
        }
      ],
      "name": "addEmployer",
      "outputs": [],
      "stateMutability": "nonpayable",
      "type": "function"
    },
    {
      "inputs": [
        {
          "internalType": "string",
          "name": "_employeeName",
          "type": "string"
        },
        {
          "internalType": "address",
          "name": "_employeeAddress",
          "type": "address"
        }
      ],
      "name": "addEmployee",
      "outputs": [],
      "stateMutability": "nonpayable",
      "type": "function"
    },
    {
      "inputs": [
        {
          "internalType": "string",
          "name": "_authorityName",
          "type": "string"
        },
        {
          "internalType": "address",
          "name": "_authorityAddress",
          "type": "address"
        }
      ],
      "name": "addAuthority",
      "outputs": [],
      "stateMutability": "nonpayable",
      "type": "function"
    },
    {
      "inputs": [
        {
          "internalType": "address",
          "name": "_employeeAddress",
          "type": "address"
        }
      ],
      "name": "removeEmployee",
      "outputs": [],
      "stateMutability": "nonpayable",
      "type": "function"
    },
    {
      "inputs": [
        {
          "internalType": "uint256[]",
          "name": "dates",
          "type": "uint256[]"
        },
        {
          "internalType": "bytes32[]",
          "name": "reason",
          "type": "bytes32[]"
        }
      ],
      "name": "applyLeaves",
      "outputs": [],
      "stateMutability": "nonpayable",
      "type": "function"
    },
    {
      "inputs": [
        {
          "components": [
            {
              "internalType": "uint256",
              "name": "id",
              "type": "uint256"
            },
            {
              "internalType": "uint256",
              "name": "date",
              "type": "uint256"
            },
            {
              "internalType": "bytes32",
              "name": "reason",
              "type": "bytes32"
            },
            {
              "internalType": "enum ClearLeth.leaveStatus",
              "name": "status",
              "type": "uint8"
            },
            {
              "internalType": "address",
              "name": "employee",
              "type": "address"
            }
          ],
          "internalType": "struct ClearLeth.leave",
          "name": "_leave",
          "type": "tuple"
        }
      ],
      "name": "cancelLeave",
      "outputs": [],
      "stateMutability": "nonpayable",
      "type": "function"
    },
    {
      "inputs": [
        {
          "components": [
            {
              "internalType": "uint256",
              "name": "id",
              "type": "uint256"
            },
            {
              "internalType": "uint256",
              "name": "date",
              "type": "uint256"
            },
            {
              "internalType": "bytes32",
              "name": "reason",
              "type": "bytes32"
            },
            {
              "internalType": "enum ClearLeth.leaveStatus",
              "name": "status",
              "type": "uint8"
            },
            {
              "internalType": "address",
              "name": "employee",
              "type": "address"
            }
          ],
          "internalType": "struct ClearLeth.leave",
          "name": "leaveToApprove",
          "type": "tuple"
        }
      ],
      "name": "approveLeave",
      "outputs": [],
      "stateMutability": "nonpayable",
      "type": "function"
    },
    {
      "inputs": [
        {
          "components": [
            {
              "internalType": "uint256",
              "name": "id",
              "type": "uint256"
            },
            {
              "internalType": "uint256",
              "name": "date",
              "type": "uint256"
            },
            {
              "internalType": "bytes32",
              "name": "reason",
              "type": "bytes32"
            },
            {
              "internalType": "enum ClearLeth.leaveStatus",
              "name": "status",
              "type": "uint8"
            },
            {
              "internalType": "address",
              "name": "employee",
              "type": "address"
            }
          ],
          "internalType": "struct ClearLeth.leave",
          "name": "leaveToReject",
          "type": "tuple"
        }
      ],
      "name": "rejectLeave",
      "outputs": [],
      "stateMutability": "nonpayable",
      "type": "function"
    },
    {
      "inputs": [
        {
          "internalType": "uint256",
          "name": "_limit",
          "type": "uint256"
        }
      ],
      "name": "setLeaveLimit",
      "outputs": [],
      "stateMutability": "nonpayable",
      "type": "function"
    },
    {
      "inputs": [],
      "name": "getUser",
      "outputs": [
        {
          "components": [
            {
              "internalType": "string",
              "name": "name",
              "type": "string"
            },
            {
              "internalType": "address",
              "name": "wallet",
              "type": "address"
            },
            {
              "internalType": "string",
              "name": "company",
              "type": "string"
            },
            {
              "internalType": "enum ClearLeth.role",
              "name": "role",
              "type": "uint8"
            }
          ],
          "internalType": "struct ClearLeth.user",
          "name": "",
          "type": "tuple"
        }
      ],
      "stateMutability": "view",
      "type": "function",
      "constant": true
    },
    {
      "inputs": [
        {
          "internalType": "address",
          "name": "_userAddress",
          "type": "address"
        }
      ],
      "name": "getUserNameOf",
      "outputs": [
        {
          "internalType": "string",
          "name": "",
          "type": "string"
        }
      ],
      "stateMutability": "view",
      "type": "function",
      "constant": true
    },
    {
      "inputs": [],
      "name": "getAllEmployees",
      "outputs": [
        {
          "internalType": "address[]",
          "name": "",
          "type": "address[]"
        }
      ],
      "stateMutability": "view",
      "type": "function",
      "constant": true
    },
    {
      "inputs": [],
      "name": "getAllEmployers",
      "outputs": [
        {
          "internalType": "address[]",
          "name": "",
          "type": "address[]"
        }
      ],
      "stateMutability": "view",
      "type": "function",
      "constant": true
    },
    {
      "inputs": [],
      "name": "getAllAuthorities",
      "outputs": [
        {
          "internalType": "address[]",
          "name": "",
          "type": "address[]"
        }
      ],
      "stateMutability": "view",
      "type": "function",
      "constant": true
    },
    {
      "inputs": [
        {
          "internalType": "address",
          "name": "_employerAddress",
          "type": "address"
        }
      ],
      "name": "getEmployeesByEmployer",
      "outputs": [
        {
          "internalType": "address[]",
          "name": "",
          "type": "address[]"
        }
      ],
      "stateMutability": "view",
      "type": "function",
      "constant": true
    },
    {
      "inputs": [],
      "name": "getLeaveBalance",
      "outputs": [
        {
          "internalType": "uint256",
          "name": "",
          "type": "uint256"
        }
      ],
      "stateMutability": "view",
      "type": "function",
      "constant": true
    },
    {
      "inputs": [
        {
          "internalType": "uint256",
          "name": "leaveId",
          "type": "uint256"
        }
      ],
      "name": "getLeaveInformation",
      "outputs": [
        {
          "components": [
            {
              "internalType": "uint256",
              "name": "id",
              "type": "uint256"
            },
            {
              "internalType": "uint256",
              "name": "date",
              "type": "uint256"
            },
            {
              "internalType": "bytes32",
              "name": "reason",
              "type": "bytes32"
            },
            {
              "internalType": "enum ClearLeth.leaveStatus",
              "name": "status",
              "type": "uint8"
            },
            {
              "internalType": "address",
              "name": "employee",
              "type": "address"
            }
          ],
          "internalType": "struct ClearLeth.leave",
          "name": "",
          "type": "tuple"
        }
      ],
      "stateMutability": "view",
      "type": "function",
      "constant": true
    },
    {
      "inputs": [
        {
          "internalType": "address",
          "name": "employeeAddress",
          "type": "address"
        }
      ],
      "name": "getLeaveApplications",
      "outputs": [
        {
          "components": [
            {
              "internalType": "uint256",
              "name": "id",
              "type": "uint256"
            },
            {
              "internalType": "uint256",
              "name": "date",
              "type": "uint256"
            },
            {
              "internalType": "bytes32",
              "name": "reason",
              "type": "bytes32"
            },
            {
              "internalType": "enum ClearLeth.leaveStatus",
              "name": "status",
              "type": "uint8"
            },
            {
              "internalType": "address",
              "name": "employee",
              "type": "address"
            }
          ],
          "internalType": "struct ClearLeth.leave[]",
          "name": "",
          "type": "tuple[]"
        }
      ],
      "stateMutability": "view",
      "type": "function",
      "constant": true
    },
    {
      "inputs": [],
      "name": "getAllLeaves",
      "outputs": [
        {
          "components": [
            {
              "internalType": "uint256",
              "name": "id",
              "type": "uint256"
            },
            {
              "internalType": "uint256",
              "name": "date",
              "type": "uint256"
            },
            {
              "internalType": "bytes32",
              "name": "reason",
              "type": "bytes32"
            },
            {
              "internalType": "enum ClearLeth.leaveStatus",
              "name": "status",
              "type": "uint8"
            },
            {
              "internalType": "address",
              "name": "employee",
              "type": "address"
            }
          ],
          "internalType": "struct ClearLeth.leave[]",
          "name": "",
          "type": "tuple[]"
        }
      ],
      "stateMutability": "view",
      "type": "function",
      "constant": true
    }
  ],
  "bytecode": "0x60806040526000600755600060085560006009556000600b553480156200002557600080fd5b5060405162002f6338038062002f6383398101604081905262000048916200023a565b60008054336001600160a01b0319918216811783556001805480820182559084527fb10e2d527612073b26eecdfd717e6a320cf44b4afac2b0732d9fcbe2b7fa0cf60180549092161790556008805491620000a38362000254565b90915550506040805160c0810182526005608082019081526427bbb732b960d91b60a083015281523360208083018290528351808501855260038152624e555360e81b818301528385015260016060840152600091825260048152929020815180519293849362000118928492019062000194565b506020828101516001830180546001600160a01b0319166001600160a01b039092169190911790556040830151805162000159926002850192019062000194565b50606082015160038201805460ff191660018360028111156200018057620001806200027e565b02179055505050600a9190915550620002d1565b828054620001a29062000294565b90600052602060002090601f016020900481019282620001c6576000855562000211565b82601f10620001e157805160ff191683800117855562000211565b8280016001018555821562000211579182015b8281111562000211578251825591602001919060010190620001f4565b506200021f92915062000223565b5090565b5b808211156200021f576000815560010162000224565b6000602082840312156200024d57600080fd5b5051919050565b60006000198214156200027757634e487b7160e01b600052601160045260246000fd5b5060010190565b634e487b7160e01b600052602160045260246000fd5b600181811c90821680620002a957607f821691505b60208210811415620002cb57634e487b7160e01b600052602260045260246000fd5b50919050565b612c8280620002e16000396000f3fe608060405234801561001057600080fd5b50600436106101c45760003560e01c8063ab244e1e116100f9578063d763940911610097578063e69852d011610071578063e69852d0146103b0578063e9b37cc0146103d0578063edf53886146103e3578063fedf2c561461040657600080fd5b8063d763940914610376578063dda89a6e1461039f578063e3366fed146103a857600080fd5b8063ce606ee0116100d3578063ce606ee014610332578063d023d10f14610345578063d108177a1461034e578063d1ef4f631461036157600080fd5b8063ab244e1e146102d4578063b8e8ac54146102ff578063bcdd88911461031257600080fd5b8063687d9b9311610166578063832880e711610140578063832880e714610290578063839f48e8146102a557806393abcc09146102ae5780639f251f80146102c157600080fd5b8063687d9b9314610261578063724d57e4146102745780637675c14c1461028757600080fd5b806360bf0867116101a257806360bf08671461020f57806360c38dff1461022f5780636216f27a14610242578063681218191461025957600080fd5b806314c671d6146101c95780631fbabfce146101e75780633039f608146101fc575b600080fd5b6101d161040e565b6040516101de919061247c565b60405180910390f35b6101fa6101f536600461259c565b6104d9565b005b6101fa61020a3660046125ea565b6106a8565b61022261021d36600461266b565b610938565b6040516101de91906126e9565b6101fa61023d3660046125ea565b610a1e565b61024b60075481565b6040519081526020016101de565b610222610bd3565b6101d161026f36600461266b565b610d29565b6101fa61028236600461272b565b610d9f565b61024b600a5481565b610298610e33565b6040516101de91906127a5565b61024b60085481565b6101fa6102bc366004612811565b610fc6565b6101fa6102cf36600461259c565b611173565b6102e76102e236600461288d565b611431565b6040516001600160a01b0390911681526020016101de565b6101fa61030d3660046125ea565b611469565b61032561032036600461272b565b6117fc565b6040516101de91906128b7565b6000546102e7906001600160a01b031681565b61024b60095481565b6101fa61035c36600461266b565b61194e565b336000908152600e602052604090205461024b565b6102e761038436600461266b565b6005602052600090815260409020546001600160a01b031681565b61024b600b5481565b6101d1611c8f565b6103c36103be36600461266b565b611d54565b6040516101de91906128cb565b6101fa6103de36600461296d565b611df6565b6103f66103f136600461266b565b612101565b6040516101de9493929190612a26565b6101d161224b565b6060600060085467ffffffffffffffff81111561042d5761042d6124c9565b604051908082528060200260200182016040528015610456578160200160208202803683370190505b50905060005b6008548110156104d3576001818154811061047957610479612a73565b9060005260206000200160009054906101000a90046001600160a01b03168282815181106104a9576104a9612a73565b6001600160a01b0390921660209283029190910190910152806104cb81612a9f565b91505061045c565b50919050565b6000546001600160a01b0316331461054f5760405162461bcd60e51b815260206004820152602e60248201527f4f6e6c792074686520636f6e7472616374206f776e65722063616e2063616c6c60448201526d103a3434b990333ab731ba34b7b760911b60648201526084015b60405180910390fd5b6001600160a01b038082166000908152600460205260409020600101548291161561058c5760405162461bcd60e51b815260040161054690612aba565b60038054600181019091557fc2575a0e9e593c00f959f8c92f12db2869c3395a3b0502d05e2516446f71f85b0180546001600160a01b0319166001600160a01b03841690811790915560408051608081018252858152602080820184905282518082018452600080825283850191909152600260608401529384526004815291909220825180518493610623928492910190612310565b506020828101516001830180546001600160a01b0319166001600160a01b03909216919091179055604083015180516106629260028501920190612310565b50606082015160038201805460ff191660018360028111156106865761068661268d565b021790555050600980549150600061069d83612a9f565b919050555050505050565b8051600b5481106106f05760405162461bcd60e51b8152602060048201526012602482015271139bdd0815985b1a59081319585d9948125960721b6044820152606401610546565b816000816060015160038111156107095761070961268d565b146107265760405162461bcd60e51b815260040161054690612af1565b60808301516001600160a01b038082166000908152600560205260409020541633146107645760405162461bcd60e51b815260040161054690612b1f565b608084015160005b6001600160a01b0382166000908152600d60205260409020548110156108485785516001600160a01b0383166000908152600d602052604090208054839081106107b8576107b8612a73565b9060005260206000209060040201600001541415610836576001600160a01b0382166000908152600d60205260409020805460039190839081106107fe576107fe612a73565b906000526020600020906004020160030160006101000a81548160ff021916908360038111156108305761083061268d565b02179055505b8061084081612a9f565b91505061076c565b5060005b600c548110156108e3578551600c80548390811061086c5761086c612a73565b90600052602060002090600402016000015414156108d1576003600c828154811061089957610899612a73565b906000526020600020906004020160030160006101000a81548160ff021916908360038111156108cb576108cb61268d565b02179055505b806108db81612a9f565b91505061084c565b508451604080516001600160a01b0384168152336020820152908101919091527fcfedd8a6cf86a82ac7dd3f04b1e86f248df069f9f15810bf8a52dabc8c7a25af906060015b60405180910390a15050505050565b6001600160a01b0381166000908152600d60209081526040808320805482518185028101850190935280835260609492939192909184015b82821015610a1357838290600052602060002090600402016040518060a00160405290816000820154815260200160018201548152602001600282015481526020016003820160009054906101000a900460ff1660038111156109d5576109d561268d565b60038111156109e6576109e661268d565b81526003919091015461010090046001600160a01b03166020918201529082526001929092019101610970565b505050509050919050565b80600081606001516003811115610a3757610a3761268d565b14610a545760405162461bcd60e51b815260040161054690612af1565b608082015182906001600160a01b03163314610acd5760405162461bcd60e51b815260206004820152603260248201527f4f6e6c7920656d706c6f796565206f662074686973206c656176652063616e2060448201527131b0b636103a3434b990333ab731ba34b7b760711b6064820152608401610546565b60005b336000908152600d6020526040902054811015610b91578351336000908152600d60205260409020805483908110610b0a57610b0a612a73565b9060005260206000209060040201600001541415610b7f57336000908152600d6020526040902080546001919083908110610b4757610b47612a73565b906000526020600020906004020160030160006101000a81548160ff02191690836003811115610b7957610b7961268d565b02179055505b80610b8981612a9f565b915050610ad0565b5082516040805133815260208101929092527fb7ebc98aeb0d019f1d38bdecf34a056aa9be46ff8aed7cf80b640ff0073d6ac7910160405180910390a1505050565b60606000600b5467ffffffffffffffff811115610bf257610bf26124c9565b604051908082528060200260200182016040528015610c4b57816020015b6040805160a081018252600080825260208083018290529282018190526060820181905260808201528252600019909201910181610c105790505b50905060005b600b548110156104d357600c8181548110610c6e57610c6e612a73565b90600052602060002090600402016040518060a00160405290816000820154815260200160018201548152602001600282015481526020016003820160009054906101000a900460ff166003811115610cc957610cc961268d565b6003811115610cda57610cda61268d565b81526003919091015461010090046001600160a01b03166020909101528251839083908110610d0b57610d0b612a73565b60200260200101819052508080610d2190612a9f565b915050610c51565b6001600160a01b038116600090815260066020908152604091829020805483518184028101840190945280845260609392830182828015610d9357602002820191906000526020600020905b81546001600160a01b03168152600190910190602001808311610d75575b50505050509050919050565b60013360009081526004602052604090206003015460ff166002811115610dc857610dc861268d565b14610de55760405162461bcd60e51b815260040161054690612b74565b33600081815260106020908152604091829020849055815192835282018390527fc687ccbce0cc89ceb74a46d6867e5268d2bb596e3b2b08bf139879cfa6f14bdd910160405180910390a150565b610e3b612394565b3360009081526004602052604090819020815160808101909252805482908290610e6490612bbb565b80601f0160208091040260200160405190810160405280929190818152602001828054610e9090612bbb565b8015610edd5780601f10610eb257610100808354040283529160200191610edd565b820191906000526020600020905b815481529060010190602001808311610ec057829003601f168201915b505050918352505060018201546001600160a01b03166020820152600282018054604090920191610f0d90612bbb565b80601f0160208091040260200160405190810160405280929190818152602001828054610f3990612bbb565b8015610f865780601f10610f5b57610100808354040283529160200191610f86565b820191906000526020600020905b815481529060010190602001808311610f6957829003601f168201915b5050509183525050600382015460209091019060ff166002811115610fad57610fad61268d565b6002811115610fbe57610fbe61268d565b905250919050565b60013360009081526004602052604090206003015460ff166002811115610fef57610fef61268d565b1461100c5760405162461bcd60e51b815260040161054690612b74565b6001600160a01b03808316600090815260046020526040902060010154839116156110495760405162461bcd60e51b815260040161054690612aba565b6001805480820182557fb10e2d527612073b26eecdfd717e6a320cf44b4afac2b0732d9fcbe2b7fa0cf60180546001600160a01b0319166001600160a01b0386169081179091556040805160808101825287815260208082018490528183018a90526060820194909452600092835260048452912081518051929384936110d39284920190612310565b506020828101516001830180546001600160a01b0319166001600160a01b03909216919091179055604083015180516111129260028501920190612310565b50606082015160038201805460ff191660018360028111156111365761113661268d565b021790555050506001600160a01b0384166000908152601060205260408120849055600880549161116683612a9f565b9190505550505050505050565b60013360009081526004602052604090206003015460ff16600281111561119c5761119c61268d565b146111b95760405162461bcd60e51b815260040161054690612b74565b6001600160a01b03808216600090815260046020526040902060010154829116156111f65760405162461bcd60e51b815260040161054690612aba565b600280546001810182557f405787fa12a823e0f2b7631cc41b3ba8828b3321ca811111fa75cd3aa3bb5ace0180546001600160a01b0319166001600160a01b038516179055336000908152600460205260408120909101805461125890612bbb565b80601f016020809104026020016040519081016040528092919081815260200182805461128490612bbb565b80156112d15780601f106112a6576101008083540402835291602001916112d1565b820191906000526020600020905b8154815290600101906020018083116112b457829003601f168201915b5050505050905060006040518060800160405280868152602001856001600160a01b03168152602001838152602001600060028111156113135761131361268d565b90526001600160a01b0385166000908152600460209081526040909120825180519394508493919261134a92849290910190612310565b506020828101516001830180546001600160a01b0319166001600160a01b03909216919091179055604083015180516113899260028501920190612310565b50606082015160038201805460ff191660018360028111156113ad576113ad61268d565b02179055505033600081815260066020908152604080832080546001810182559084528284200180546001600160a01b038b166001600160a01b03199182168117909255908452600583528184208054909116909417909355600a54600e909152918120919091556007805492509061142583612a9f565b91905055505050505050565b6006602052816000526040600020818154811061144d57600080fd5b6000918252602090912001546001600160a01b03169150829050565b8051600b5481106114b15760405162461bcd60e51b8152602060048201526012602482015271139bdd0815985b1a59081319585d9948125960721b6044820152606401610546565b816000816060015160038111156114ca576114ca61268d565b146114e75760405162461bcd60e51b815260040161054690612af1565b60808301516001600160a01b038082166000908152600560205260409020541633146115255760405162461bcd60e51b815260040161054690612b1f565b33600090815260106020908152604080832054601190925290912054106115c05760405162461bcd60e51b815260206004820152604360248201527f4c65617665204c696d697420666f7220656d706c6f7965722077696c6c20626560448201527f2065786365656465642069662074686973206c6561766520697320617070726f6064820152621d995960ea1b608482015260a401610546565b608084015160005b6001600160a01b0382166000908152600d60205260409020548110156116a45785516001600160a01b0383166000908152600d6020526040902080548390811061161457611614612a73565b9060005260206000209060040201600001541415611692576001600160a01b0382166000908152600d602052604090208054600291908390811061165a5761165a612a73565b906000526020600020906004020160030160006101000a81548160ff0219169083600381111561168c5761168c61268d565b02179055505b8061169c81612a9f565b9150506115c8565b5060005b600c5481101561173f578551600c8054839081106116c8576116c8612a73565b906000526020600020906004020160000154141561172d576002600c82815481106116f5576116f5612a73565b906000526020600020906004020160030160006101000a81548160ff021916908360038111156117275761172761268d565b02179055505b8061173781612a9f565b9150506116a8565b506020808601516000908152600f9091526040812080549161176083612a9f565b90915550506001600160a01b0381166000908152600e6020526040812080549161178983612bf0565b90915550503360009081526011602052604081208054600192906117ae908490612c07565b90915550508451604080516001600160a01b0384168152336020820152908101919091527fd77ba574eae3c58a23e6b228fae2d5390d3c715492024b607e5626321c5cc8ff90606001610929565b6040805160a0810182526000808252602082018190529181018290526060810182905260808101829052905b600c548110156119135782600c828154811061184657611846612a73565b906000526020600020906004020160000154141561190157600c818154811061187157611871612a73565b90600052602060002090600402016040518060a00160405290816000820154815260200160018201548152602001600282015481526020016003820160009054906101000a900460ff1660038111156118cc576118cc61268d565b60038111156118dd576118dd61268d565b81526003919091015461010090046001600160a01b03166020909101529392505050565b8061190b81612a9f565b915050611828565b5060405162461bcd60e51b815260206004820152600f60248201526e1319585d99481b9bdd08199bdd5b99608a1b6044820152606401610546565b6001600160a01b0380821660009081526005602052604090205482911633146119895760405162461bcd60e51b815260040161054690612b1f565b60005b600254811015611a8e57826001600160a01b0316600282815481106119b3576119b3612a73565b6000918252602090912001546001600160a01b03161415611a7c57600280546119de90600190612c1f565b815481106119ee576119ee612a73565b600091825260209091200154600280546001600160a01b039092169183908110611a1a57611a1a612a73565b9060005260206000200160006101000a8154816001600160a01b0302191690836001600160a01b031602179055506002805480611a5957611a59612c36565b600082815260209020810160001990810180546001600160a01b03191690550190555b80611a8681612a9f565b91505061198c565b5060005b33600090815260066020526040902054811015611bd45733600090815260066020526040902080546001600160a01b038516919083908110611ad657611ad6612a73565b6000918252602090912001546001600160a01b03161415611bc2573360009081526006602052604090208054611b0e90600190612c1f565b81548110611b1e57611b1e612a73565b60009182526020808320909101543383526006909152604090912080546001600160a01b039092169183908110611b5757611b57612a73565b600091825260208083209190910180546001600160a01b0319166001600160a01b039490941693909317909255338152600690915260409020805480611b9f57611b9f612c36565b600082815260209020810160001990810180546001600160a01b03191690550190555b80611bcc81612a9f565b915050611a92565b506001600160a01b038216600090815260046020526040812090611bf882826123d5565b6001820180546001600160a01b0319169055611c186002830160006123d5565b50600301805460ff191690556001600160a01b038216600090815260056020908152604080832080546001600160a01b0319169055600d9091528120611c5d91612412565b6001600160a01b0382166000908152600e602052604081208190556007805491611c8683612bf0565b91905055505050565b6060600060075467ffffffffffffffff811115611cae57611cae6124c9565b604051908082528060200260200182016040528015611cd7578160200160208202803683370190505b50905060005b6007548110156104d35760028181548110611cfa57611cfa612a73565b9060005260206000200160009054906101000a90046001600160a01b0316828281518110611d2a57611d2a612a73565b6001600160a01b039092166020928302919091019091015280611d4c81612a9f565b915050611cdd565b6001600160a01b0381166000908152600460205260409020805460609190611d7b90612bbb565b80601f0160208091040260200160405190810160405280929190818152602001828054611da790612bbb565b8015610d935780601f10611dc957610100808354040283529160200191610d93565b820191906000526020600020905b815481529060010190602001808311611dd75750939695505050505050565b3360009081526004602052604081206003015460ff166002811115611e1d57611e1d61268d565b14611e785760405162461bcd60e51b815260206004820152602560248201527f4f6e6c7920656d706c6f796565732063616e2063616c6c20746869732066756e60448201526431ba34b7b760d91b6064820152608401610546565b60005b82518110156120c95760006040518060a00160405280600b548152602001858481518110611eab57611eab612a73565b60200260200101518152602001848481518110611eca57611eca612a73565b6020026020010151815260200160006003811115611eea57611eea61268d565b815233602090910152600b80549192506000611f0583612a9f565b9091555050336000908152600d6020908152604080832080546001818101835591855293839020855160049095020193845591840151838301558301516002830155606083015160038084018054869594919260ff1990911691908490811115611f7157611f7161268d565b021790555060809190910151600391820180546001600160a01b0390921661010002610100600160a81b0319909216919091179055600c805460018181018355600092909252835160049091027fdf6966c971051c3d54ec59162606531493a51404a002842f56009d7e5cf4a8c7810191825560208501517fdf6966c971051c3d54ec59162606531493a51404a002842f56009d7e5cf4a8c882015560408501517fdf6966c971051c3d54ec59162606531493a51404a002842f56009d7e5cf4a8c982015560608501517fdf6966c971051c3d54ec59162606531493a51404a002842f56009d7e5cf4a8ca9091018054869593949293919260ff199091169184908111156120815761208161268d565b021790555060809190910151600390910180546001600160a01b0390921661010002610100600160a81b031990921691909117905550806120c181612a9f565b915050611e7b565b506040513381527f7f7280556f364f817076fdba4458633238c3fa6f3199f7c96b08db689033e8f09060200160405180910390a15050565b60046020526000908152604090208054819061211c90612bbb565b80601f016020809104026020016040519081016040528092919081815260200182805461214890612bbb565b80156121955780601f1061216a57610100808354040283529160200191612195565b820191906000526020600020905b81548152906001019060200180831161217857829003601f168201915b505050600184015460028501805494956001600160a01b039092169491935091506121bf90612bbb565b80601f01602080910402602001604051908101604052809291908181526020018280546121eb90612bbb565b80156122385780601f1061220d57610100808354040283529160200191612238565b820191906000526020600020905b81548152906001019060200180831161221b57829003601f168201915b5050506003909301549192505060ff1684565b6060600060095467ffffffffffffffff81111561226a5761226a6124c9565b604051908082528060200260200182016040528015612293578160200160208202803683370190505b50905060005b6009548110156104d357600381815481106122b6576122b6612a73565b9060005260206000200160009054906101000a90046001600160a01b03168282815181106122e6576122e6612a73565b6001600160a01b03909216602092830291909101909101528061230881612a9f565b915050612299565b82805461231c90612bbb565b90600052602060002090601f01602090048101928261233e5760008555612384565b82601f1061235757805160ff1916838001178555612384565b82800160010185558215612384579182015b82811115612384578251825591602001919060010190612369565b50612390929150612433565b5090565b60405180608001604052806060815260200160006001600160a01b0316815260200160608152602001600060028111156123d0576123d061268d565b905290565b5080546123e190612bbb565b6000825580601f106123f1575050565b601f01602090049060005260206000209081019061240f9190612433565b50565b508054600082556004029060005260206000209081019061240f9190612448565b5b808211156123905760008155600101612434565b5b808211156123905760008082556001820181905560028201556003810180546001600160a81b0319169055600401612449565b6020808252825182820181905260009190848201906040850190845b818110156124bd5783516001600160a01b031683529284019291840191600101612498565b50909695505050505050565b634e487b7160e01b600052604160045260246000fd5b604051601f8201601f1916810167ffffffffffffffff81118282101715612508576125086124c9565b604052919050565b600082601f83011261252157600080fd5b813567ffffffffffffffff81111561253b5761253b6124c9565b61254e601f8201601f19166020016124df565b81815284602083860101111561256357600080fd5b816020850160208301376000918101602001919091529392505050565b80356001600160a01b038116811461259757600080fd5b919050565b600080604083850312156125af57600080fd5b823567ffffffffffffffff8111156125c657600080fd5b6125d285828601612510565b9250506125e160208401612580565b90509250929050565b600060a082840312156125fc57600080fd5b60405160a0810181811067ffffffffffffffff8211171561261f5761261f6124c9565b806040525082358152602083013560208201526040830135604082015260608301356004811061264e57600080fd5b606082015261265f60808401612580565b60808201529392505050565b60006020828403121561267d57600080fd5b61268682612580565b9392505050565b634e487b7160e01b600052602160045260246000fd5b8051825260208101516020830152604081015160408301526060810151600481106126d0576126d061268d565b60608301526080908101516001600160a01b0316910152565b6020808252825182820181905260009190848201906040850190845b818110156124bd576127188385516126a3565b9284019260a09290920191600101612705565b60006020828403121561273d57600080fd5b5035919050565b6000815180845260005b8181101561276a5760208185018101518683018201520161274e565b8181111561277c576000602083870101525b50601f01601f19169290920160200192915050565b600381106127a1576127a161268d565b9052565b6020815260008251608060208401526127c160a0840182612744565b60208501516001600160a01b0316604085810191909152850151848203601f190160608601529091506127f48282612744565b91505060608401516128096080850182612791565b509392505050565b6000806000806080858703121561282757600080fd5b843567ffffffffffffffff8082111561283f57600080fd5b61284b88838901612510565b9550602087013591508082111561286157600080fd5b5061286e87828801612510565b93505061287d60408601612580565b9396929550929360600135925050565b600080604083850312156128a057600080fd5b6128a983612580565b946020939093013593505050565b60a081016128c582846126a3565b92915050565b6020815260006126866020830184612744565b600067ffffffffffffffff8211156128f8576128f86124c9565b5060051b60200190565b600082601f83011261291357600080fd5b81356020612928612923836128de565b6124df565b82815260059290921b8401810191818101908684111561294757600080fd5b8286015b84811015612962578035835291830191830161294b565b509695505050505050565b6000806040838503121561298057600080fd5b823567ffffffffffffffff8082111561299857600080fd5b818501915085601f8301126129ac57600080fd5b813560206129bc612923836128de565b82815260059290921b840181019181810190898411156129db57600080fd5b948201945b838610156129f9578535825294820194908201906129e0565b96505086013592505080821115612a0f57600080fd5b50612a1c85828601612902565b9150509250929050565b608081526000612a396080830187612744565b6001600160a01b03861660208401528281036040840152612a5a8186612744565b915050612a6a6060830184612791565b95945050505050565b634e487b7160e01b600052603260045260246000fd5b634e487b7160e01b600052601160045260246000fd5b6000600019821415612ab357612ab3612a89565b5060010190565b6020808252601c908201527f557365722068617320616c7265616479206265656e2061646465642100000000604082015260600190565b6020808252601490820152734c65617665206973206e6f742070656e64696e6760601b604082015260600190565b60208082526035908201527f4f6e6c7920656d706c6f796572206f66207468697320656d706c6f796565206360408201527430b71031b0b636103a3434b990333ab731ba34b7b760591b606082015260800190565b60208082526027908201527f4f6e6c7920616e20656d706c6f7965722063616e2063616c6c207468697320666040820152663ab731ba34b7b760c91b606082015260800190565b600181811c90821680612bcf57607f821691505b602082108114156104d357634e487b7160e01b600052602260045260246000fd5b600081612bff57612bff612a89565b506000190190565b60008219821115612c1a57612c1a612a89565b500190565b600082821015612c3157612c31612a89565b500390565b634e487b7160e01b600052603160045260246000fdfea2646970667358221220302ce18c637775430b0a43ff8c1179dc757ca2128c5f75040ac516ccf8a401ac64736f6c634300080b0033",
  "immutableReferences": {},
  "source": "// SPDX-License-Identifier: MIT\npragma solidity >=0.4.22 <0.9.0;\n\ncontract ClearLeth {\n    ///////////////////// USERS ATTRIBUTES /////////////////////\n    address public contractOwner;\n\n    address[] employers;\n    address[] employees;\n    address[] authorities;\n\n    mapping(address => user) public addressToUser;\n\n    mapping(address => address) public employeeToEmployer;\n    mapping(address => address[]) public employerToEmployee;\n\n    uint256 public numOfEmployees = 0;\n    uint256 public numOfEmployers = 0;\n    uint256 public numOfAuthorities = 0;\n\n    enum role {\n        employee,\n        employer,\n        authority\n    }\n\n    struct user {\n        string name;\n        address wallet;\n        string company;\n        role role;\n    }\n\n    ///////////////////// LEAVE ATTRIBUTES /////////////////////\n    struct leave {\n        uint256 id;\n        uint256 date; // unix timestamp\n        bytes32 reason;\n        leaveStatus status;\n        address employee;\n    }\n\n    enum leaveStatus {\n        pending,\n        cancelled,\n        approved,\n        rejected\n    }\n\n    uint256 public leaveAmount;\n    uint256 public numLeaves = 0;\n    leave[] allLeaves;\n\n    mapping(address => leave[]) employeeToLeaves;\n    mapping(address => uint256) employeeLeaveBalance;\n    mapping(uint256 => uint256) datesToEmployeesApplied;\n    mapping(address => uint256) employerToLeaveLimit;\n    mapping(address => uint256) employerToLeaveNum;\n\n    ///////////////////// LEAVE EVENTS /////////////////////\n    event LeaveApplied(address employee);\n    event LeaveApproved(address employee, address employer, uint256 leaveId);\n    event LeaveCancelled(address employee, uint256 leaveId);\n    event LeaveRejected(address employee, address employer, uint256 leaveId);\n    event LeaveLimitSet(address employer, uint256 limit);\n\n    // Owner of contract will be able to add employers and is an employer\n    // leaveAmount is also set when deployed\n    constructor(uint256 _leaveAmount) {\n        contractOwner = msg.sender;\n        employers.push(msg.sender);\n        numOfEmployers++;\n\n        // new user object\n        user memory newUser = user(\"Owner\", msg.sender, \"NUS\", role.employer);\n\n        addressToUser[msg.sender] = newUser;\n        leaveAmount = _leaveAmount;\n    }\n\n    ///////////////////// MODIFIERS /////////////////////\n    modifier isOwner() {\n        require(\n            contractOwner == msg.sender,\n            \"Only the contract owner can call this function\"\n        );\n        _;\n    }\n\n    modifier isEmployer() {\n        require(\n            addressToUser[msg.sender].role == role.employer,\n            \"Only an employer can call this function\"\n        );\n        _;\n    }\n\n    modifier isEmployee() {\n        require(\n            addressToUser[msg.sender].role == role.employee,\n            \"Only employees can call this function\"\n        );\n        _;\n    }\n\n    modifier isAuthority() {\n        require(\n            addressToUser[msg.sender].role == role.authority,\n            \"Only authorities can call this function\"\n        );\n        _;\n    }\n\n    modifier employerOnly(address employeeAddress) {\n        require(\n            employeeToEmployer[employeeAddress] == msg.sender,\n            \"Only employer of this employee can call this function\"\n        );\n        _;\n    }\n\n    // Check if user has been added\n    modifier notAdded(address _employerAddress) {\n        require(\n            addressToUser[_employerAddress].wallet == address(0),\n            \"User has already been added!\"\n        );\n        _;\n    }\n\n    modifier validLeaveId(uint256 leaveId) {\n        require(leaveId < numLeaves, \"Not Valid Leave Id\");\n        _;\n    }\n\n    modifier validLeaveStatus(leave memory leaveApplication) {\n        require(\n            leaveApplication.status == leaveStatus.pending,\n            \"Leave is not pending\"\n        );\n        _;\n    }\n\n    modifier isEmployeeOfLeave(leave memory _leave) {\n        require(\n            _leave.employee == msg.sender,\n            \"Only employee of this leave can call this function\"\n        );\n        _;\n    }\n\n    modifier leaveLimitNotExceeded() {\n        require(\n            employerToLeaveNum[msg.sender] < employerToLeaveLimit[msg.sender],\n            \"Leave Limit for employer will be exceeded if this leave is approved\"\n        );\n        _;\n    }\n\n    ///////////////////// USER FUNCTIONS /////////////////////\n    function addEmployer(\n        string memory _company,\n        string memory _employerName,\n        address _employerAddress,\n        uint256 _leaveLimit\n    ) public isEmployer notAdded(_employerAddress) {\n        employers.push(_employerAddress);\n\n        // new user object\n        user memory newUser = user(\n            _employerName,\n            _employerAddress,\n            _company,\n            role.employer\n        );\n\n        addressToUser[_employerAddress] = newUser;\n        employerToLeaveLimit[_employerAddress] = _leaveLimit;\n        numOfEmployers++;\n    }\n\n    function addEmployee(string memory _employeeName, address _employeeAddress)\n        public\n        isEmployer\n        notAdded(_employeeAddress)\n    {\n        employees.push(_employeeAddress);\n\n        // new user object\n        string memory company = addressToUser[msg.sender].company;\n        user memory newUser = user(\n            _employeeName,\n            _employeeAddress,\n            company,\n            role.employee\n        );\n\n        addressToUser[_employeeAddress] = newUser;\n        employerToEmployee[msg.sender].push(_employeeAddress);\n        employeeToEmployer[_employeeAddress] = msg.sender;\n        employeeLeaveBalance[_employeeAddress] = leaveAmount;\n        numOfEmployees++;\n    }\n\n    function addAuthority(\n        string memory _authorityName,\n        address _authorityAddress\n    ) public isOwner notAdded(_authorityAddress) {\n        authorities.push(_authorityAddress);\n\n        // new user object\n        user memory newUser = user(\n            _authorityName,\n            _authorityAddress,\n            \"\",\n            role.authority\n        );\n\n        addressToUser[_authorityAddress] = newUser;\n        numOfAuthorities++;\n    }\n\n    function removeEmployee(address _employeeAddress)\n        public\n        employerOnly(_employeeAddress)\n    {\n        for (uint256 i = 0; i < employees.length; i++) {\n            if (employees[i] == _employeeAddress) {\n                employees[i] = employees[employees.length - 1];\n                employees.pop();\n            }\n        }\n\n        for (uint256 j = 0; j < employerToEmployee[msg.sender].length; j++) {\n            if (employerToEmployee[msg.sender][j] == _employeeAddress) {\n                employerToEmployee[msg.sender][j] = employerToEmployee[\n                    msg.sender\n                ][employerToEmployee[msg.sender].length - 1];\n                employerToEmployee[msg.sender].pop();\n            }\n        }\n\n        delete addressToUser[_employeeAddress];\n        delete employeeToEmployer[_employeeAddress];\n        delete employeeToLeaves[_employeeAddress];\n        delete employeeLeaveBalance[_employeeAddress];\n        numOfEmployees--;\n    }\n\n    ///////////////////// LEAVE FUNCTIONS /////////////////////\n    function applyLeaves(uint256[] memory dates, bytes32[] memory reason)\n        public\n        isEmployee\n    {\n        for (uint256 i = 0; i < dates.length; i++) {\n            leave memory newLeave = leave(\n                numLeaves,\n                dates[i],\n                reason[i],\n                leaveStatus.pending,\n                msg.sender\n            );\n\n            numLeaves++;\n            employeeToLeaves[msg.sender].push(newLeave);\n            allLeaves.push(newLeave);\n        }\n\n        emit LeaveApplied(msg.sender);\n    }\n\n    function cancelLeave(leave memory _leave)\n        public\n        validLeaveStatus(_leave)\n        isEmployeeOfLeave(_leave)\n    {\n        for (uint256 i = 0; i < employeeToLeaves[msg.sender].length; i++) {\n            if (employeeToLeaves[msg.sender][i].id == _leave.id) {\n                employeeToLeaves[msg.sender][i].status = leaveStatus.cancelled;\n            }\n        }\n        emit LeaveCancelled(msg.sender, _leave.id);\n    }\n\n    function approveLeave(leave memory leaveToApprove)\n        public\n        validLeaveId(leaveToApprove.id)\n        validLeaveStatus(leaveToApprove)\n        employerOnly(leaveToApprove.employee)\n        leaveLimitNotExceeded\n    {\n        address employeeAddress = leaveToApprove.employee;\n        for (uint256 i = 0; i < employeeToLeaves[employeeAddress].length; i++) {\n            if (employeeToLeaves[employeeAddress][i].id == leaveToApprove.id) {\n                employeeToLeaves[employeeAddress][i].status = leaveStatus\n                    .approved;\n            }\n        }\n\n        for (uint256 j = 0; j < allLeaves.length; j++) {\n            if (allLeaves[j].id == leaveToApprove.id) {\n                allLeaves[j].status = leaveStatus.approved;\n            }\n        }\n\n        datesToEmployeesApplied[leaveToApprove.date]++;\n        employeeLeaveBalance[employeeAddress]--;\n        employerToLeaveNum[msg.sender] += 1;\n        emit LeaveApproved(employeeAddress, msg.sender, leaveToApprove.id);\n    }\n\n    function rejectLeave(leave memory leaveToReject)\n        public\n        validLeaveId(leaveToReject.id)\n        validLeaveStatus(leaveToReject)\n        employerOnly(leaveToReject.employee)\n    {\n        address employeeAddress = leaveToReject.employee;\n        for (uint256 i = 0; i < employeeToLeaves[employeeAddress].length; i++) {\n            if (employeeToLeaves[employeeAddress][i].id == leaveToReject.id) {\n                employeeToLeaves[employeeAddress][i].status = leaveStatus\n                    .rejected;\n            }\n        }\n\n        for (uint256 j = 0; j < allLeaves.length; j++) {\n            if (allLeaves[j].id == leaveToReject.id) {\n                allLeaves[j].status = leaveStatus.rejected;\n            }\n        }\n        emit LeaveRejected(employeeAddress, msg.sender, leaveToReject.id);\n    }\n\n    function setLeaveLimit(uint256 _limit) public isEmployer {\n        employerToLeaveLimit[msg.sender] = _limit;\n        emit LeaveLimitSet(msg.sender, _limit);\n    }\n\n    ///////////////////// USER GETTERS /////////////////////\n    function getUser() public view returns (user memory) {\n        return addressToUser[msg.sender];\n    }\n\n    function getUserNameOf(address _userAddress)\n        public\n        view\n        returns (string memory)\n    {\n        return addressToUser[_userAddress].name;\n    }\n\n    function getAllEmployees() public view returns (address[] memory) {\n        address[] memory employeeArray = new address[](numOfEmployees);\n        for (uint256 i = 0; i < numOfEmployees; i++) {\n            employeeArray[i] = employees[i];\n        }\n\n        return employeeArray;\n    }\n\n    function getAllEmployers() public view returns (address[] memory) {\n        address[] memory employerArray = new address[](numOfEmployers);\n        for (uint256 i = 0; i < numOfEmployers; i++) {\n            employerArray[i] = employers[i];\n        }\n\n        return employerArray;\n    }\n\n    function getAllAuthorities() public view returns (address[] memory) {\n        address[] memory authoritiesArray = new address[](numOfAuthorities);\n        for (uint256 i = 0; i < numOfAuthorities; i++) {\n            authoritiesArray[i] = authorities[i];\n        }\n        return authoritiesArray;\n    }\n\n    function getEmployeesByEmployer(address _employerAddress)\n        public\n        view\n        returns (address[] memory)\n    {\n        return employerToEmployee[_employerAddress];\n    }\n\n    ///////////////////// LEAVE GETTERS /////////////////////\n    function getLeaveBalance() public view returns (uint256) {\n        return employeeLeaveBalance[msg.sender];\n    }\n\n    function getLeaveInformation(uint256 leaveId)\n        public\n        view\n        returns (leave memory)\n    {\n        for (uint256 i = 0; i < allLeaves.length; i++) {\n            if (allLeaves[i].id == leaveId) {\n                return allLeaves[i];\n            }\n        }\n        revert(\"Leave not found\");\n    }\n\n    function getLeaveApplications(address employeeAddress)\n        public\n        view\n        returns (leave[] memory)\n    {\n        return employeeToLeaves[employeeAddress];\n    }\n\n    function getAllLeaves() public view returns (leave[] memory) {\n        leave[] memory leavesArray = new leave[](numLeaves);\n        for (uint256 i = 0; i < numLeaves; i++) {\n            leavesArray[i] = allLeaves[i];\n        }\n        return leavesArray;\n    }\n}\n",
  "sourcePath": "/Users/ryyant/IS4302-project/contracts/ClearLeth.sol",
  "compiler": {
    "name": "solc",
    "version": "0.8.11+commit.d7f03943.Emscripten.clang"
  },
  "schemaVersion": "3.4.4",
  "updatedAt": "2022-04-14T10:09:49.960Z",
  "networkType": "ethereum",
  "devdoc": {
    "kind": "dev",
    "methods": {},
    "version": 1
  },
  "userdoc": {
    "kind": "user",
    "methods": {},
    "version": 1
  }
}