{
  "contractName": "ClearLeth",
  "abi": [
    {
      "inputs": [
        {
          "internalType": "uint256",
          "name": "_leaveAmount",
          "type": "uint256"
        }
      ],
      "stateMutability": "nonpayable",
      "type": "constructor"
    },
    {
      "anonymous": false,
      "inputs": [
        {
          "indexed": false,
          "internalType": "address",
          "name": "employee",
          "type": "address"
        },
        {
          "indexed": false,
          "internalType": "string",
          "name": "date",
          "type": "string"
        }
      ],
      "name": "LeaveApplied",
      "type": "event"
    },
    {
      "anonymous": false,
      "inputs": [
        {
          "indexed": false,
          "internalType": "address",
          "name": "employee",
          "type": "address"
        },
        {
          "indexed": false,
          "internalType": "address",
          "name": "employer",
          "type": "address"
        },
        {
          "indexed": false,
          "internalType": "uint256",
          "name": "leaveId",
          "type": "uint256"
        }
      ],
      "name": "LeaveApproved",
      "type": "event"
    },
    {
      "anonymous": false,
      "inputs": [
        {
          "indexed": false,
          "internalType": "address",
          "name": "employee",
          "type": "address"
        },
        {
          "indexed": false,
          "internalType": "uint256",
          "name": "leaveId",
          "type": "uint256"
        }
      ],
      "name": "LeaveCancelled",
      "type": "event"
    },
    {
      "anonymous": false,
      "inputs": [
        {
          "indexed": false,
          "internalType": "address",
          "name": "employer",
          "type": "address"
        },
        {
          "indexed": false,
          "internalType": "uint256",
          "name": "limit",
          "type": "uint256"
        }
      ],
      "name": "LeaveLimitSet",
      "type": "event"
    },
    {
      "anonymous": false,
      "inputs": [
        {
          "indexed": false,
          "internalType": "address",
          "name": "employee",
          "type": "address"
        },
        {
          "indexed": false,
          "internalType": "address",
          "name": "employer",
          "type": "address"
        },
        {
          "indexed": false,
          "internalType": "uint256",
          "name": "leaveId",
          "type": "uint256"
        }
      ],
      "name": "LeaveRejected",
      "type": "event"
    },
    {
      "inputs": [],
      "name": "leaveAmount",
      "outputs": [
        {
          "internalType": "uint256",
          "name": "",
          "type": "uint256"
        }
      ],
      "stateMutability": "view",
      "type": "function",
      "constant": true
    },
    {
      "inputs": [],
      "name": "numLeaves",
      "outputs": [
        {
          "internalType": "uint256",
          "name": "",
          "type": "uint256"
        }
      ],
      "stateMutability": "view",
      "type": "function",
      "constant": true
    },
    {
      "inputs": [],
      "name": "numOfEmployees",
      "outputs": [
        {
          "internalType": "uint256",
          "name": "",
          "type": "uint256"
        }
      ],
      "stateMutability": "view",
      "type": "function",
      "constant": true
    },
    {
      "inputs": [],
      "name": "numOfEmployers",
      "outputs": [
        {
          "internalType": "uint256",
          "name": "",
          "type": "uint256"
        }
      ],
      "stateMutability": "view",
      "type": "function",
      "constant": true
    },
    {
      "inputs": [
        {
          "internalType": "uint256",
          "name": "",
          "type": "uint256"
        }
      ],
      "name": "registeredAddresses",
      "outputs": [
        {
          "internalType": "address",
          "name": "",
          "type": "address"
        }
      ],
      "stateMutability": "view",
      "type": "function",
      "constant": true
    },
    {
      "inputs": [
        {
          "internalType": "address",
          "name": "_employerAddress",
          "type": "address"
        }
      ],
      "name": "addEmployer",
      "outputs": [],
      "stateMutability": "nonpayable",
      "type": "function"
    },
    {
      "inputs": [
        {
          "internalType": "address",
          "name": "_employeeAddress",
          "type": "address"
        }
      ],
      "name": "addEmployee",
      "outputs": [],
      "stateMutability": "nonpayable",
      "type": "function"
    },
    {
      "inputs": [
        {
          "internalType": "address",
          "name": "_employeeAddress",
          "type": "address"
        }
      ],
      "name": "removeEmployee",
      "outputs": [],
      "stateMutability": "nonpayable",
      "type": "function"
    },
    {
      "inputs": [
        {
          "internalType": "address",
          "name": "_employerAddress",
          "type": "address"
        }
      ],
      "name": "getEmployeesByEmployer",
      "outputs": [
        {
          "internalType": "address[]",
          "name": "",
          "type": "address[]"
        }
      ],
      "stateMutability": "view",
      "type": "function",
      "constant": true
    },
    {
      "inputs": [],
      "name": "getAllEmployees",
      "outputs": [
        {
          "internalType": "address[]",
          "name": "",
          "type": "address[]"
        }
      ],
      "stateMutability": "view",
      "type": "function",
      "constant": true
    },
    {
      "inputs": [],
      "name": "getAllEmployers",
      "outputs": [
        {
          "internalType": "address[]",
          "name": "",
          "type": "address[]"
        }
      ],
      "stateMutability": "view",
      "type": "function",
      "constant": true
    },
    {
      "inputs": [
        {
          "internalType": "string",
          "name": "date",
          "type": "string"
        },
        {
          "internalType": "bytes32",
          "name": "reason",
          "type": "bytes32"
        }
      ],
      "name": "applyLeave",
      "outputs": [],
      "stateMutability": "nonpayable",
      "type": "function"
    },
    {
      "inputs": [
        {
          "components": [
            {
              "internalType": "uint256",
              "name": "id",
              "type": "uint256"
            },
            {
              "internalType": "string",
              "name": "date",
              "type": "string"
            },
            {
              "internalType": "bytes32",
              "name": "reason",
              "type": "bytes32"
            },
            {
              "internalType": "enum ClearLeth.leaveStatus",
              "name": "status",
              "type": "uint8"
            },
            {
              "internalType": "address",
              "name": "employee",
              "type": "address"
            }
          ],
          "internalType": "struct ClearLeth.leave",
          "name": "_leave",
          "type": "tuple"
        }
      ],
      "name": "cancelLeave",
      "outputs": [],
      "stateMutability": "nonpayable",
      "type": "function"
    },
    {
      "inputs": [
        {
          "components": [
            {
              "internalType": "uint256",
              "name": "id",
              "type": "uint256"
            },
            {
              "internalType": "string",
              "name": "date",
              "type": "string"
            },
            {
              "internalType": "bytes32",
              "name": "reason",
              "type": "bytes32"
            },
            {
              "internalType": "enum ClearLeth.leaveStatus",
              "name": "status",
              "type": "uint8"
            },
            {
              "internalType": "address",
              "name": "employee",
              "type": "address"
            }
          ],
          "internalType": "struct ClearLeth.leave",
          "name": "leaveToApprove",
          "type": "tuple"
        }
      ],
      "name": "approveLeave",
      "outputs": [],
      "stateMutability": "nonpayable",
      "type": "function"
    },
    {
      "inputs": [
        {
          "components": [
            {
              "internalType": "uint256",
              "name": "id",
              "type": "uint256"
            },
            {
              "internalType": "string",
              "name": "date",
              "type": "string"
            },
            {
              "internalType": "bytes32",
              "name": "reason",
              "type": "bytes32"
            },
            {
              "internalType": "enum ClearLeth.leaveStatus",
              "name": "status",
              "type": "uint8"
            },
            {
              "internalType": "address",
              "name": "employee",
              "type": "address"
            }
          ],
          "internalType": "struct ClearLeth.leave",
          "name": "leaveToReject",
          "type": "tuple"
        }
      ],
      "name": "rejectLeave",
      "outputs": [],
      "stateMutability": "nonpayable",
      "type": "function"
    },
    {
      "inputs": [],
      "name": "getLeaveBalance",
      "outputs": [
        {
          "internalType": "uint256",
          "name": "",
          "type": "uint256"
        }
      ],
      "stateMutability": "view",
      "type": "function",
      "constant": true
    },
    {
      "inputs": [
        {
          "internalType": "uint256",
          "name": "leaveId",
          "type": "uint256"
        }
      ],
      "name": "getLeaveInformation",
      "outputs": [
        {
          "components": [
            {
              "internalType": "uint256",
              "name": "id",
              "type": "uint256"
            },
            {
              "internalType": "string",
              "name": "date",
              "type": "string"
            },
            {
              "internalType": "bytes32",
              "name": "reason",
              "type": "bytes32"
            },
            {
              "internalType": "enum ClearLeth.leaveStatus",
              "name": "status",
              "type": "uint8"
            },
            {
              "internalType": "address",
              "name": "employee",
              "type": "address"
            }
          ],
          "internalType": "struct ClearLeth.leave",
          "name": "",
          "type": "tuple"
        }
      ],
      "stateMutability": "view",
      "type": "function",
      "constant": true
    },
    {
      "inputs": [
        {
          "internalType": "address",
          "name": "employeeAddress",
          "type": "address"
        }
      ],
      "name": "getLeaveApplications",
      "outputs": [
        {
          "components": [
            {
              "internalType": "uint256",
              "name": "id",
              "type": "uint256"
            },
            {
              "internalType": "string",
              "name": "date",
              "type": "string"
            },
            {
              "internalType": "bytes32",
              "name": "reason",
              "type": "bytes32"
            },
            {
              "internalType": "enum ClearLeth.leaveStatus",
              "name": "status",
              "type": "uint8"
            },
            {
              "internalType": "address",
              "name": "employee",
              "type": "address"
            }
          ],
          "internalType": "struct ClearLeth.leave[]",
          "name": "",
          "type": "tuple[]"
        }
      ],
      "stateMutability": "view",
      "type": "function",
      "constant": true
    },
    {
      "inputs": [
        {
          "internalType": "address",
          "name": "employerAddress",
          "type": "address"
        },
        {
          "internalType": "uint256",
          "name": "limit",
          "type": "uint256"
        }
      ],
      "name": "setLeaveLimit",
      "outputs": [],
      "stateMutability": "nonpayable",
      "type": "function"
    }
  ],
  "bytecode": "0x60806040526000600555600060065560006008553480156200002057600080fd5b5060405162001f7638038062001f768339810160408190526200004391620000bd565b600080546001810182558180527f290decd9548b62a8d60345a988386fc84ba6bc95484008f6362f93160ef3e5630180546001600160a01b0319163317905560068054916200009283620000d7565b9091555050336000908152600160208190526040909120805460ff1916909117905560075562000101565b600060208284031215620000d057600080fd5b5051919050565b6000600019821415620000fa57634e487b7160e01b600052601160045260246000fd5b5060010190565b611e6580620001116000396000f3fe608060405234801561001057600080fd5b50600436106101215760003560e01c8063839f48e8116100ad578063d108177a11610071578063d108177a1461025f578063d1ef4f6314610272578063dda89a6e14610287578063e3366fed14610290578063f3cb8c311461029857600080fd5b8063839f48e8146101fd5780638a50556e14610206578063a87c862e14610219578063b2121bc01461022c578063bcdd88911461023f57600080fd5b8063687d9b93116100f4578063687d9b931461019057806368b54919146101a35780636e82ac57146101b65780636e9b8555146101c95780637675c14c146101f457600080fd5b806314c671d6146101265780633d51939f1461014457806360bf0867146101595780636216f27a14610179575b600080fd5b61012e6102ab565b60405161013b9190611877565b60405180910390f35b6101576101523660046119ac565b6103cf565b005b61016c610167366004611a58565b61058e565b60405161013b9190611b5a565b61018260055481565b60405190815260200161013b565b61012e61019e366004611a58565b6106f6565b6101576101b1366004611a58565b61076c565b6101576101c4366004611bbc565b610818565b6101dc6101d7366004611be6565b61085e565b6040516001600160a01b03909116815260200161013b565b61018260075481565b61018260065481565b6101576102143660046119ac565b610888565b610157610227366004611bff565b610b18565b61015761023a3660046119ac565b610d9d565b61025261024d366004611be6565b611081565b60405161013b9190611c44565b61015761026d366004611a58565b611256565b336000908152600b6020526040902054610182565b61018260085481565b61012e61153f565b6101576102a6366004611a58565b61165b565b6060600060065467ffffffffffffffff8111156102ca576102ca6118c4565b6040519080825280602002602001820160405280156102f3578160200160208202803683370190505b5090506000805b6000548110156103c7576001600080838154811061031a5761031a611c57565b60009182526020808320909101546001600160a01b0316835282019290925260400190205460ff161515600114156103b5576000818154811061035f5761035f611c57565b9060005260206000200160009054906101000a90046001600160a01b031683838151811061038f5761038f611c57565b6001600160a01b0390921660209283029190910190910152816103b181611c83565b9250505b806103bf81611c83565b9150506102fa565b509092915050565b806000816060015160038111156103e8576103e8611ad6565b1461040e5760405162461bcd60e51b815260040161040590611c9e565b60405180910390fd5b608082015182906001600160a01b031633146104875760405162461bcd60e51b815260206004820152603260248201527f4f6e6c7920656d706c6f796565206f662074686973206c656176652063616e2060448201527131b0b636103a3434b990333ab731ba34b7b760711b6064820152608401610405565b60005b336000908152600a602052604090205481101561054b578351336000908152600a602052604090208054839081106104c4576104c4611c57565b906000526020600020906004020160000154141561053957336000908152600a602052604090208054600191908390811061050157610501611c57565b906000526020600020906004020160030160006101000a81548160ff0219169083600381111561053357610533611ad6565b02179055505b8061054381611c83565b91505061048a565b5082516040805133815260208101929092527fb7ebc98aeb0d019f1d38bdecf34a056aa9be46ff8aed7cf80b640ff0073d6ac791015b60405180910390a1505050565b6001600160a01b0381166000908152600a60209081526040808320805482518185028101850190935280835260609492939192909184015b828210156106eb57838290600052602060002090600402016040518060a00160405290816000820154815260200160018201805461060390611ccc565b80601f016020809104026020016040519081016040528092919081815260200182805461062f90611ccc565b801561067c5780601f106106515761010080835404028352916020019161067c565b820191906000526020600020905b81548152906001019060200180831161065f57829003601f168201915b50505091835250506002820154602082015260038083015460409092019160ff16908111156106ad576106ad611ad6565b60038111156106be576106be611ad6565b81526003919091015461010090046001600160a01b031660209182015290825260019290920191016105c6565b505050509050919050565b6001600160a01b03811660009081526004602090815260409182902080548351818402810184019094528084526060939283018282801561076057602002820191906000526020600020905b81546001600160a01b03168152600190910190602001808311610742575b50505050509050919050565b3360009081526001602081905260409091205460ff161515146107a15760405162461bcd60e51b815260040161040590611d07565b60008054600180820183557f290decd9548b62a8d60345a988386fc84ba6bc95484008f6362f93160ef3e56390910180546001600160a01b0319166001600160a01b0385169081179091558252602081905260408220805460ff19169091179055600680549161081083611c83565b919050555050565b604080516001600160a01b0384168152602081018390527fc687ccbce0cc89ceb74a46d6867e5268d2bb596e3b2b08bf139879cfa6f14bdd910160405180910390a15050565b6000818154811061086e57600080fd5b6000918252602090912001546001600160a01b0316905081565b805160085481106108d05760405162461bcd60e51b8152602060048201526012602482015271139bdd0815985b1a59081319585d9948125960721b6044820152606401610405565b816000816060015160038111156108e9576108e9611ad6565b146109065760405162461bcd60e51b815260040161040590611c9e565b60808301516001600160a01b038082166000908152600360205260409020541633146109445760405162461bcd60e51b815260040161040590611d4e565b608084015160005b6001600160a01b0382166000908152600a6020526040902054811015610a285785516001600160a01b0383166000908152600a6020526040902080548390811061099857610998611c57565b9060005260206000209060040201600001541415610a16576001600160a01b0382166000908152600a60205260409020805460039190839081106109de576109de611c57565b906000526020600020906004020160030160006101000a81548160ff02191690836003811115610a1057610a10611ad6565b02179055505b80610a2081611c83565b91505061094c565b5060005b600954811015610ac35785516009805483908110610a4c57610a4c611c57565b9060005260206000209060040201600001541415610ab157600360098281548110610a7957610a79611c57565b906000526020600020906004020160030160006101000a81548160ff02191690836003811115610aab57610aab611ad6565b02179055505b80610abb81611c83565b915050610a2c565b508451604080516001600160a01b0384168152336020820152908101919091527fcfedd8a6cf86a82ac7dd3f04b1e86f248df069f9f15810bf8a52dabc8c7a25af906060015b60405180910390a15050505050565b3360009081526002602052604090205460ff161515600114610b8a5760405162461bcd60e51b815260206004820152602560248201527f4f6e6c7920656d706c6f796565732063616e2063616c6c20746869732066756e60448201526431ba34b7b760d91b6064820152608401610405565b60006040518060a00160405280600854815260200184815260200183815260200160006003811115610bbe57610bbe611ad6565b815233602090910152600880549192506000610bd983611c83565b9091555050336000908152600a602090815260408220805460018181018355918452928290208451600490940201928355838201518051859493610c21938501920190611744565b506040820151816002015560608201518160030160006101000a81548160ff02191690836003811115610c5657610c56611ad6565b021790555060809190910151600390910180546001600160a01b0390921661010002610100600160a81b031990921691909117905560098054600181018255600091909152815160049091027f6e1540171b6c0c960b71a7020d9f60077f6af931a8bbf590da0223dacf75c7af81019182556020808401518051859493610d03937f6e1540171b6c0c960b71a7020d9f60077f6af931a8bbf590da0223dacf75c7b0909101920190611744565b506040820151816002015560608201518160030160006101000a81548160ff02191690836003811115610d3857610d38611ad6565b021790555060808201518160030160016101000a8154816001600160a01b0302191690836001600160a01b0316021790555050507feb4d727d6d39c406c1fa9ea0c115c5af644177a25e44b3587b94560191e843a63384604051610581929190611da3565b80516008548110610de55760405162461bcd60e51b8152602060048201526012602482015271139bdd0815985b1a59081319585d9948125960721b6044820152606401610405565b81600081606001516003811115610dfe57610dfe611ad6565b14610e1b5760405162461bcd60e51b815260040161040590611c9e565b60808301516001600160a01b03808216600090815260036020526040902054163314610e595760405162461bcd60e51b815260040161040590611d4e565b608084015160005b6001600160a01b0382166000908152600a6020526040902054811015610f3d5785516001600160a01b0383166000908152600a60205260409020805483908110610ead57610ead611c57565b9060005260206000209060040201600001541415610f2b576001600160a01b0382166000908152600a6020526040902080546002919083908110610ef357610ef3611c57565b906000526020600020906004020160030160006101000a81548160ff02191690836003811115610f2557610f25611ad6565b02179055505b80610f3581611c83565b915050610e61565b5060005b600954811015610fd85785516009805483908110610f6157610f61611c57565b9060005260206000209060040201600001541415610fc657600260098281548110610f8e57610f8e611c57565b906000526020600020906004020160030160006101000a81548160ff02191690836003811115610fc057610fc0611ad6565b02179055505b80610fd081611c83565b915050610f41565b50600c8560200151604051610fed9190611dcf565b908152604051908190036020019020805490600061100a83611c83565b90915550506001600160a01b0381166000908152600b6020526040812080549161103383611deb565b90915550508451604080516001600160a01b0384168152336020820152908101919091527fd77ba574eae3c58a23e6b228fae2d5390d3c715492024b607e5626321c5cc8ff90606001610b09565b6040805160a081018252600080825260606020830181905292820181905291810182905260808101829052905b60095481101561121b5782600982815481106110cc576110cc611c57565b906000526020600020906004020160000154141561120957600981815481106110f7576110f7611c57565b90600052602060002090600402016040518060a00160405290816000820154815260200160018201805461112a90611ccc565b80601f016020809104026020016040519081016040528092919081815260200182805461115690611ccc565b80156111a35780601f10611178576101008083540402835291602001916111a3565b820191906000526020600020905b81548152906001019060200180831161118657829003601f168201915b50505091835250506002820154602082015260038083015460409092019160ff16908111156111d4576111d4611ad6565b60038111156111e5576111e5611ad6565b81526003919091015461010090046001600160a01b03166020909101529392505050565b8061121381611c83565b9150506110ae565b5060405162461bcd60e51b815260206004820152600f60248201526e1319585d99481b9bdd08199bdd5b99608a1b6044820152606401610405565b6001600160a01b0380821660009081526003602052604090205482911633146112915760405162461bcd60e51b815260040161040590611d4e565b60005b60005481101561138d57826001600160a01b0316600082815481106112bb576112bb611c57565b6000918252602090912001546001600160a01b0316141561137b57600080546112e690600190611e02565b815481106112f6576112f6611c57565b600091825260208220015481546001600160a01b0390911691908390811061132057611320611c57565b6000918252602082200180546001600160a01b0319166001600160a01b03939093169290921790915580548061135857611358611e19565b600082815260209020810160001990810180546001600160a01b03191690550190555b8061138581611c83565b915050611294565b5060005b336000908152600460205260409020548110156114d35733600090815260046020526040902080546001600160a01b0385169190839081106113d5576113d5611c57565b6000918252602090912001546001600160a01b031614156114c157336000908152600460205260409020805461140d90600190611e02565b8154811061141d5761141d611c57565b60009182526020808320909101543383526004909152604090912080546001600160a01b03909216918390811061145657611456611c57565b600091825260208083209190910180546001600160a01b0319166001600160a01b03949094169390931790925533815260049091526040902080548061149e5761149e611e19565b600082815260209020810160001990810180546001600160a01b03191690550190555b806114cb81611c83565b915050611391565b506001600160a01b038216600090815260036020908152604080832080546001600160a01b0319169055600a909152812061150d916117c8565b6001600160a01b0382166000908152600b60205260408120819055600580549161153683611deb565b91905055505050565b6060600060055467ffffffffffffffff81111561155e5761155e6118c4565b604051908082528060200260200182016040528015611587578160200160208202803683370190505b5090506000805b6000548110156103c757600260008083815481106115ae576115ae611c57565b60009182526020808320909101546001600160a01b0316835282019290925260400190205460ff1615156001141561164957600081815481106115f3576115f3611c57565b9060005260206000200160009054906101000a90046001600160a01b031683838151811061162357611623611c57565b6001600160a01b03909216602092830291909101909101528161164581611c83565b9250505b8061165381611c83565b91505061158e565b3360009081526001602081905260409091205460ff161515146116905760405162461bcd60e51b815260040161040590611d07565b60008054600181810183557f290decd9548b62a8d60345a988386fc84ba6bc95484008f6362f93160ef3e56390910180546001600160a01b0385166001600160a01b03199182168117909255818452600260209081526040808620805460ff191686179055338087526004835281872080549687018155875282872090950180548416851790559285526003815282852080549092169093179055600754600b909252822055600580549161081083611c83565b82805461175090611ccc565b90600052602060002090601f01602090048101928261177257600085556117b8565b82601f1061178b57805160ff19168380011785556117b8565b828001600101855582156117b8579182015b828111156117b857825182559160200191906001019061179d565b506117c49291506117ec565b5090565b50805460008255600402906000526020600020908101906117e99190611801565b50565b5b808211156117c457600081556001016117ed565b808211156117c457600080825561181b600183018261183d565b50600060028201556003810180546001600160a81b0319169055600401611801565b50805461184990611ccc565b6000825580601f10611859575050565b601f0160209004906000526020600020908101906117e991906117ec565b6020808252825182820181905260009190848201906040850190845b818110156118b85783516001600160a01b031683529284019291840191600101611893565b50909695505050505050565b634e487b7160e01b600052604160045260246000fd5b60405160a0810167ffffffffffffffff811182821017156118fd576118fd6118c4565b60405290565b600082601f83011261191457600080fd5b813567ffffffffffffffff8082111561192f5761192f6118c4565b604051601f8301601f19908116603f01168101908282118183101715611957576119576118c4565b8160405283815286602085880101111561197057600080fd5b836020870160208301376000602085830101528094505050505092915050565b80356001600160a01b03811681146119a757600080fd5b919050565b6000602082840312156119be57600080fd5b813567ffffffffffffffff808211156119d657600080fd5b9083019060a082860312156119ea57600080fd5b6119f26118da565b82358152602083013582811115611a0857600080fd5b611a1487828601611903565b602083015250604083013560408201526060830135915060048210611a3857600080fd5b816060820152611a4a60808401611990565b608082015295945050505050565b600060208284031215611a6a57600080fd5b611a7382611990565b9392505050565b60005b83811015611a95578181015183820152602001611a7d565b83811115611aa4576000848401525b50505050565b60008151808452611ac2816020860160208601611a7a565b601f01601f19169290920160200192915050565b634e487b7160e01b600052602160045260246000fd5b805182526000602082015160a06020850152611b0b60a0850182611aaa565b905060408301516040850152606083015160048110611b3a57634e487b7160e01b600052602160045260246000fd5b60608501526080928301516001600160a01b031692909301919091525090565b6000602080830181845280855180835260408601915060408160051b870101925083870160005b82811015611baf57603f19888603018452611b9d858351611aec565b94509285019290850190600101611b81565b5092979650505050505050565b60008060408385031215611bcf57600080fd5b611bd883611990565b946020939093013593505050565b600060208284031215611bf857600080fd5b5035919050565b60008060408385031215611c1257600080fd5b823567ffffffffffffffff811115611c2957600080fd5b611c3585828601611903565b95602094909401359450505050565b602081526000611a736020830184611aec565b634e487b7160e01b600052603260045260246000fd5b634e487b7160e01b600052601160045260246000fd5b6000600019821415611c9757611c97611c6d565b5060010190565b6020808252601490820152734c65617665206973206e6f742070656e64696e6760601b604082015260600190565b600181811c90821680611ce057607f821691505b60208210811415611d0157634e487b7160e01b600052602260045260246000fd5b50919050565b60208082526027908201527f4f6e6c7920616e20656d706c6f7965722063616e2063616c6c207468697320666040820152663ab731ba34b7b760c91b606082015260800190565b60208082526035908201527f4f6e6c7920656d706c6f796572206f66207468697320656d706c6f796565206360408201527430b71031b0b636103a3434b990333ab731ba34b7b760591b606082015260800190565b6001600160a01b0383168152604060208201819052600090611dc790830184611aaa565b949350505050565b60008251611de1818460208701611a7a565b9190910192915050565b600081611dfa57611dfa611c6d565b506000190190565b600082821015611e1457611e14611c6d565b500390565b634e487b7160e01b600052603160045260246000fdfea26469706673582212209d8a29ab859e2d6a4ac168624d6026352717e38c543afa1a81860becb973ffb964736f6c634300080b0033",
  "immutableReferences": {},
  "source": "// SPDX-License-Identifier: MIT\npragma solidity >=0.4.22 <0.9.0;\n\ncontract ClearLeth {\n    address[] public registeredAddresses;\n    mapping(address => bool) employers;\n    mapping(address => bool) employees;\n    mapping(address => address) employeeToEmployer;\n    mapping(address => address[]) employerToEmployee;\n    uint256 public numOfEmployees = 0;\n    uint256 public numOfEmployers = 0;\n\n    enum leaveStatus {\n        pending,\n        cancelled,\n        approved,\n        rejected\n    }\n    struct leave {\n        uint256 id;\n        string date; //can look into using timestamp\n        bytes32 reason;\n        leaveStatus status;\n        address employee;\n    }\n\n    uint256 public leaveAmount;\n    uint256 public numLeaves = 0;\n    leave[] allLeaves;\n    mapping(address => leave[]) employeeToLeaves;\n    mapping(address => uint256) employeeLeaveBalance;\n    mapping(string => uint256) datesToEmployeesApplied;\n    mapping(address => uint256) employersToLeaveLimit;\n\n    event LeaveApplied(address employee, string date);\n    event LeaveApproved(address employee, address employer, uint256 leaveId);\n    event LeaveCancelled(address employee, uint256 leaveId);\n    event LeaveRejected(address employee, address employer, uint256 leaveId);\n    event LeaveLimitSet(address employer, uint256 limit);\n\n    // @dev Owner of contract will be able to add employers and is an employer\n    // @dev leaveAmount is also set when deployed\n    constructor(uint256 _leaveAmount) {\n        registeredAddresses.push(msg.sender);\n        numOfEmployers++;\n        employers[msg.sender] = true;\n        leaveAmount = _leaveAmount;\n    }\n\n    modifier employerOnly(address employeeAddress) {\n        require(\n            employeeToEmployer[employeeAddress] == msg.sender,\n            \"Only employer of this employee can call this function\"\n        );\n        _;\n    }\n\n    modifier isEmployer() {\n        require(\n            employers[msg.sender] == true,\n            \"Only an employer can call this function\"\n        );\n        _;\n    }\n\n    modifier validLeaveId(uint256 leaveId) {\n        require(leaveId < numLeaves, \"Not Valid Leave Id\");\n        _;\n    }\n\n    modifier validLeaveStatus(leave memory leaveApplication) {\n        require(\n            leaveApplication.status == leaveStatus.pending,\n            \"Leave is not pending\"\n        );\n        _;\n    }\n\n    modifier isEmployeeOfLeave(leave memory _leave) {\n        require(\n            _leave.employee == msg.sender,\n            \"Only employee of this leave can call this function\"\n        );\n        _;\n    }\n\n    modifier isEmployee() {\n        require(\n            employees[msg.sender] == true,\n            \"Only employees can call this function\"\n        );\n        _;\n    }\n\n    function addEmployer(address _employerAddress) public isEmployer {\n        registeredAddresses.push(_employerAddress);\n        employers[_employerAddress] = true;\n        numOfEmployers++;\n    }\n\n    function addEmployee(address _employeeAddress) public isEmployer {\n        registeredAddresses.push(_employeeAddress);\n        employees[_employeeAddress] = true;\n        employerToEmployee[msg.sender].push(_employeeAddress);\n        employeeToEmployer[_employeeAddress] = msg.sender;\n        employeeLeaveBalance[_employeeAddress] = leaveAmount;\n        numOfEmployees++;\n    }\n\n    // @dev would be better if we just update mapping employees to false\n    // then when we do getEmployees if wont appear\n    function removeEmployee(address _employeeAddress)\n        public\n        employerOnly(_employeeAddress)\n    {\n        for (uint256 i = 0; i < registeredAddresses.length; i++) {\n            if (registeredAddresses[i] == _employeeAddress) {\n                registeredAddresses[i] = registeredAddresses[\n                    registeredAddresses.length - 1\n                ];\n                registeredAddresses.pop();\n            }\n        }\n\n        for (uint256 j = 0; j < employerToEmployee[msg.sender].length; j++) {\n            if (employerToEmployee[msg.sender][j] == _employeeAddress) {\n                employerToEmployee[msg.sender][j] = employerToEmployee[\n                    msg.sender\n                ][employerToEmployee[msg.sender].length - 1];\n                employerToEmployee[msg.sender].pop();\n            }\n        }\n\n        delete employeeToEmployer[_employeeAddress];\n        delete employeeToLeaves[_employeeAddress];\n        delete employeeLeaveBalance[_employeeAddress];\n        numOfEmployees--;\n    }\n\n    function getEmployeesByEmployer(address _employerAddress)\n        public\n        view\n        returns (address[] memory)\n    {\n        return employerToEmployee[_employerAddress];\n    }\n\n    // @dev transfer complexity to view function no gas\n    function getAllEmployees() public view returns (address[] memory) {\n        address[] memory employeeArray = new address[](numOfEmployees);\n        uint256 counter = 0;\n        for (uint256 i = 0; i < registeredAddresses.length; i++) {\n            if (employees[registeredAddresses[i]] == true) {\n                employeeArray[counter] = registeredAddresses[i];\n                counter++;\n            }\n        }\n        return employeeArray;\n    }\n\n    // @dev transfer complexity to view function no gas\n    function getAllEmployers() public view returns (address[] memory) {\n        address[] memory employerArray = new address[](numOfEmployers);\n        uint256 counter = 0;\n        for (uint256 i = 0; i < registeredAddresses.length; i++) {\n            if (employers[registeredAddresses[i]] == true) {\n                employerArray[counter] = registeredAddresses[i];\n                counter++;\n            }\n        }\n        return employerArray;\n    }\n\n    function applyLeave(string memory date, bytes32 reason) public isEmployee {\n        leave memory newLeave = leave(\n            numLeaves,\n            date,\n            reason,\n            leaveStatus.pending,\n            msg.sender\n        );\n\n        numLeaves++;\n        employeeToLeaves[msg.sender].push(newLeave);\n        allLeaves.push(newLeave);\n        emit LeaveApplied(msg.sender, date);\n    }\n\n    function cancelLeave(leave memory _leave)\n        public\n        validLeaveStatus(_leave)\n        isEmployeeOfLeave(_leave)\n    {\n        for (uint256 i = 0; i < employeeToLeaves[msg.sender].length; i++) {\n            if (employeeToLeaves[msg.sender][i].id == _leave.id) {\n                employeeToLeaves[msg.sender][i].status = leaveStatus.cancelled;\n            }\n        }\n        emit LeaveCancelled(msg.sender, _leave.id);\n    }\n\n    function approveLeave(leave memory leaveToApprove)\n        public\n        validLeaveId(leaveToApprove.id)\n        validLeaveStatus(leaveToApprove)\n        employerOnly(leaveToApprove.employee)\n    {\n        address employeeAddress = leaveToApprove.employee;\n        for (uint256 i = 0; i < employeeToLeaves[employeeAddress].length; i++) {\n            if (employeeToLeaves[employeeAddress][i].id == leaveToApprove.id) {\n                employeeToLeaves[employeeAddress][i].status = leaveStatus\n                    .approved;\n            }\n        }\n\n        for (uint256 j = 0; j < allLeaves.length; j++) {\n            if (allLeaves[j].id == leaveToApprove.id) {\n                allLeaves[j].status = leaveStatus.approved;\n            }\n        }\n\n        datesToEmployeesApplied[leaveToApprove.date]++;\n        employeeLeaveBalance[employeeAddress]--;\n        emit LeaveApproved(employeeAddress, msg.sender, leaveToApprove.id);\n    }\n\n    function rejectLeave(leave memory leaveToReject)\n        public\n        validLeaveId(leaveToReject.id)\n        validLeaveStatus(leaveToReject)\n        employerOnly(leaveToReject.employee)\n    {\n        address employeeAddress = leaveToReject.employee;\n        for (uint256 i = 0; i < employeeToLeaves[employeeAddress].length; i++) {\n            if (employeeToLeaves[employeeAddress][i].id == leaveToReject.id) {\n                employeeToLeaves[employeeAddress][i].status = leaveStatus\n                    .rejected;\n            }\n        }\n\n        for (uint256 j = 0; j < allLeaves.length; j++) {\n            if (allLeaves[j].id == leaveToReject.id) {\n                allLeaves[j].status = leaveStatus.rejected;\n            }\n        }\n        emit LeaveRejected(employeeAddress, msg.sender, leaveToReject.id);\n    }\n\n    function getLeaveBalance() public view returns (uint256) {\n        return employeeLeaveBalance[msg.sender];\n    }\n\n    function getLeaveInformation(uint256 leaveId)\n        public\n        view\n        returns (leave memory)\n    {\n        for (uint256 i = 0; i < allLeaves.length; i++) {\n            if (allLeaves[i].id == leaveId) {\n                return allLeaves[i];\n            }\n        }\n        revert(\"Leave not found\");\n    }\n\n    function getLeaveApplications(address employeeAddress)\n        public\n        view\n        returns (leave[] memory)\n    {\n        return employeeToLeaves[employeeAddress];\n    }\n\n    function setLeaveLimit(address employerAddress, uint256 limit) public {\n        emit LeaveLimitSet(employerAddress, limit);\n    }\n}\n",
  "sourcePath": "/Users/ryyant/IS4302-project/contracts/ClearLeth.sol",
  "compiler": {
    "name": "solc",
    "version": "0.8.11+commit.d7f03943.Emscripten.clang"
  },
  "schemaVersion": "3.4.4",
  "updatedAt": "2022-04-01T09:56:04.281Z",
  "networkType": "ethereum",
  "devdoc": {
    "kind": "dev",
    "methods": {},
    "version": 1
  },
  "userdoc": {
    "kind": "user",
    "methods": {},
    "version": 1
  }
}