{
  "contractName": "ClearLeth",
  "abi": [
    {
      "inputs": [
        {
          "internalType": "uint256",
          "name": "_leaveAmount",
          "type": "uint256"
        }
      ],
      "stateMutability": "nonpayable",
      "type": "constructor"
    },
    {
      "anonymous": false,
      "inputs": [
        {
          "indexed": false,
          "internalType": "address",
          "name": "employee",
          "type": "address"
        }
      ],
      "name": "LeaveApplied",
      "type": "event"
    },
    {
      "anonymous": false,
      "inputs": [
        {
          "indexed": false,
          "internalType": "address",
          "name": "employee",
          "type": "address"
        },
        {
          "indexed": false,
          "internalType": "address",
          "name": "employer",
          "type": "address"
        },
        {
          "indexed": false,
          "internalType": "uint256",
          "name": "leaveId",
          "type": "uint256"
        }
      ],
      "name": "LeaveApproved",
      "type": "event"
    },
    {
      "anonymous": false,
      "inputs": [
        {
          "indexed": false,
          "internalType": "address",
          "name": "employee",
          "type": "address"
        },
        {
          "indexed": false,
          "internalType": "uint256",
          "name": "leaveId",
          "type": "uint256"
        }
      ],
      "name": "LeaveCancelled",
      "type": "event"
    },
    {
      "anonymous": false,
      "inputs": [
        {
          "indexed": false,
          "internalType": "address",
          "name": "employer",
          "type": "address"
        },
        {
          "indexed": false,
          "internalType": "uint256",
          "name": "limit",
          "type": "uint256"
        }
      ],
      "name": "LeaveLimitSet",
      "type": "event"
    },
    {
      "anonymous": false,
      "inputs": [
        {
          "indexed": false,
          "internalType": "address",
          "name": "employee",
          "type": "address"
        },
        {
          "indexed": false,
          "internalType": "address",
          "name": "employer",
          "type": "address"
        },
        {
          "indexed": false,
          "internalType": "uint256",
          "name": "leaveId",
          "type": "uint256"
        }
      ],
      "name": "LeaveRejected",
      "type": "event"
    },
    {
      "inputs": [
        {
          "internalType": "address",
          "name": "",
          "type": "address"
        }
      ],
      "name": "addressToUser",
      "outputs": [
        {
          "internalType": "string",
          "name": "name",
          "type": "string"
        },
        {
          "internalType": "address",
          "name": "wallet",
          "type": "address"
        },
        {
          "internalType": "string",
          "name": "company",
          "type": "string"
        },
        {
          "internalType": "enum ClearLeth.role",
          "name": "role",
          "type": "uint8"
        }
      ],
      "stateMutability": "view",
      "type": "function"
    },
    {
      "inputs": [],
      "name": "contractOwner",
      "outputs": [
        {
          "internalType": "address",
          "name": "",
          "type": "address"
        }
      ],
      "stateMutability": "view",
      "type": "function"
    },
    {
      "inputs": [
        {
          "internalType": "address",
          "name": "",
          "type": "address"
        }
      ],
      "name": "employeeToEmployer",
      "outputs": [
        {
          "internalType": "address",
          "name": "",
          "type": "address"
        }
      ],
      "stateMutability": "view",
      "type": "function"
    },
    {
      "inputs": [
        {
          "internalType": "address",
          "name": "",
          "type": "address"
        },
        {
          "internalType": "uint256",
          "name": "",
          "type": "uint256"
        }
      ],
      "name": "employerToEmployee",
      "outputs": [
        {
          "internalType": "address",
          "name": "",
          "type": "address"
        }
      ],
      "stateMutability": "view",
      "type": "function"
    },
    {
      "inputs": [],
      "name": "leaveAmount",
      "outputs": [
        {
          "internalType": "uint256",
          "name": "",
          "type": "uint256"
        }
      ],
      "stateMutability": "view",
      "type": "function"
    },
    {
      "inputs": [],
      "name": "numLeaves",
      "outputs": [
        {
          "internalType": "uint256",
          "name": "",
          "type": "uint256"
        }
      ],
      "stateMutability": "view",
      "type": "function"
    },
    {
      "inputs": [],
      "name": "numOfAuthorities",
      "outputs": [
        {
          "internalType": "uint256",
          "name": "",
          "type": "uint256"
        }
      ],
      "stateMutability": "view",
      "type": "function"
    },
    {
      "inputs": [],
      "name": "numOfEmployees",
      "outputs": [
        {
          "internalType": "uint256",
          "name": "",
          "type": "uint256"
        }
      ],
      "stateMutability": "view",
      "type": "function"
    },
    {
      "inputs": [],
      "name": "numOfEmployers",
      "outputs": [
        {
          "internalType": "uint256",
          "name": "",
          "type": "uint256"
        }
      ],
      "stateMutability": "view",
      "type": "function"
    },
    {
      "inputs": [
        {
          "internalType": "string",
          "name": "_company",
          "type": "string"
        },
        {
          "internalType": "string",
          "name": "_employerName",
          "type": "string"
        },
        {
          "internalType": "address",
          "name": "_employerAddress",
          "type": "address"
        }
      ],
      "name": "addEmployer",
      "outputs": [],
      "stateMutability": "nonpayable",
      "type": "function"
    },
    {
      "inputs": [
        {
          "internalType": "string",
          "name": "_employeeName",
          "type": "string"
        },
        {
          "internalType": "address",
          "name": "_employeeAddress",
          "type": "address"
        }
      ],
      "name": "addEmployee",
      "outputs": [],
      "stateMutability": "nonpayable",
      "type": "function"
    },
    {
      "inputs": [
        {
          "internalType": "string",
          "name": "_authorityName",
          "type": "string"
        },
        {
          "internalType": "address",
          "name": "_authorityAddress",
          "type": "address"
        }
      ],
      "name": "addAuthority",
      "outputs": [],
      "stateMutability": "nonpayable",
      "type": "function"
    },
    {
      "inputs": [
        {
          "internalType": "address",
          "name": "_employeeAddress",
          "type": "address"
        }
      ],
      "name": "removeEmployee",
      "outputs": [],
      "stateMutability": "nonpayable",
      "type": "function"
    },
    {
      "inputs": [
        {
          "internalType": "uint256[]",
          "name": "dates",
          "type": "uint256[]"
        },
        {
          "internalType": "bytes32[]",
          "name": "reason",
          "type": "bytes32[]"
        }
      ],
      "name": "applyLeaves",
      "outputs": [],
      "stateMutability": "nonpayable",
      "type": "function"
    },
    {
      "inputs": [
        {
          "components": [
            {
              "internalType": "uint256",
              "name": "id",
              "type": "uint256"
            },
            {
              "internalType": "uint256",
              "name": "date",
              "type": "uint256"
            },
            {
              "internalType": "bytes32",
              "name": "reason",
              "type": "bytes32"
            },
            {
              "internalType": "enum ClearLeth.leaveStatus",
              "name": "status",
              "type": "uint8"
            },
            {
              "internalType": "address",
              "name": "employee",
              "type": "address"
            }
          ],
          "internalType": "struct ClearLeth.leave",
          "name": "_leave",
          "type": "tuple"
        }
      ],
      "name": "cancelLeave",
      "outputs": [],
      "stateMutability": "nonpayable",
      "type": "function"
    },
    {
      "inputs": [
        {
          "components": [
            {
              "internalType": "uint256",
              "name": "id",
              "type": "uint256"
            },
            {
              "internalType": "uint256",
              "name": "date",
              "type": "uint256"
            },
            {
              "internalType": "bytes32",
              "name": "reason",
              "type": "bytes32"
            },
            {
              "internalType": "enum ClearLeth.leaveStatus",
              "name": "status",
              "type": "uint8"
            },
            {
              "internalType": "address",
              "name": "employee",
              "type": "address"
            }
          ],
          "internalType": "struct ClearLeth.leave",
          "name": "leaveToApprove",
          "type": "tuple"
        }
      ],
      "name": "approveLeave",
      "outputs": [],
      "stateMutability": "nonpayable",
      "type": "function"
    },
    {
      "inputs": [
        {
          "components": [
            {
              "internalType": "uint256",
              "name": "id",
              "type": "uint256"
            },
            {
              "internalType": "uint256",
              "name": "date",
              "type": "uint256"
            },
            {
              "internalType": "bytes32",
              "name": "reason",
              "type": "bytes32"
            },
            {
              "internalType": "enum ClearLeth.leaveStatus",
              "name": "status",
              "type": "uint8"
            },
            {
              "internalType": "address",
              "name": "employee",
              "type": "address"
            }
          ],
          "internalType": "struct ClearLeth.leave",
          "name": "leaveToReject",
          "type": "tuple"
        }
      ],
      "name": "rejectLeave",
      "outputs": [],
      "stateMutability": "nonpayable",
      "type": "function"
    },
    {
      "inputs": [
        {
          "internalType": "uint256",
          "name": "_limit",
          "type": "uint256"
        }
      ],
      "name": "setLeaveLimit",
      "outputs": [],
      "stateMutability": "nonpayable",
      "type": "function"
    },
    {
      "inputs": [],
      "name": "getUser",
      "outputs": [
        {
          "components": [
            {
              "internalType": "string",
              "name": "name",
              "type": "string"
            },
            {
              "internalType": "address",
              "name": "wallet",
              "type": "address"
            },
            {
              "internalType": "string",
              "name": "company",
              "type": "string"
            },
            {
              "internalType": "enum ClearLeth.role",
              "name": "role",
              "type": "uint8"
            }
          ],
          "internalType": "struct ClearLeth.user",
          "name": "",
          "type": "tuple"
        }
      ],
      "stateMutability": "view",
      "type": "function"
    },
    {
      "inputs": [
        {
          "internalType": "address",
          "name": "_userAddress",
          "type": "address"
        }
      ],
      "name": "getUserNameOf",
      "outputs": [
        {
          "internalType": "string",
          "name": "",
          "type": "string"
        }
      ],
      "stateMutability": "view",
      "type": "function"
    },
    {
      "inputs": [],
      "name": "getAllEmployees",
      "outputs": [
        {
          "internalType": "address[]",
          "name": "",
          "type": "address[]"
        }
      ],
      "stateMutability": "view",
      "type": "function"
    },
    {
      "inputs": [],
      "name": "getAllEmployers",
      "outputs": [
        {
          "internalType": "address[]",
          "name": "",
          "type": "address[]"
        }
      ],
      "stateMutability": "view",
      "type": "function"
    },
    {
      "inputs": [],
      "name": "getAllAuthorities",
      "outputs": [
        {
          "internalType": "address[]",
          "name": "",
          "type": "address[]"
        }
      ],
      "stateMutability": "view",
      "type": "function"
    },
    {
      "inputs": [
        {
          "internalType": "address",
          "name": "_employerAddress",
          "type": "address"
        }
      ],
      "name": "getEmployeesByEmployer",
      "outputs": [
        {
          "internalType": "address[]",
          "name": "",
          "type": "address[]"
        }
      ],
      "stateMutability": "view",
      "type": "function"
    },
    {
      "inputs": [],
      "name": "getLeaveBalance",
      "outputs": [
        {
          "internalType": "uint256",
          "name": "",
          "type": "uint256"
        }
      ],
      "stateMutability": "view",
      "type": "function"
    },
    {
      "inputs": [
        {
          "internalType": "uint256",
          "name": "leaveId",
          "type": "uint256"
        }
      ],
      "name": "getLeaveInformation",
      "outputs": [
        {
          "components": [
            {
              "internalType": "uint256",
              "name": "id",
              "type": "uint256"
            },
            {
              "internalType": "uint256",
              "name": "date",
              "type": "uint256"
            },
            {
              "internalType": "bytes32",
              "name": "reason",
              "type": "bytes32"
            },
            {
              "internalType": "enum ClearLeth.leaveStatus",
              "name": "status",
              "type": "uint8"
            },
            {
              "internalType": "address",
              "name": "employee",
              "type": "address"
            }
          ],
          "internalType": "struct ClearLeth.leave",
          "name": "",
          "type": "tuple"
        }
      ],
      "stateMutability": "view",
      "type": "function"
    },
    {
      "inputs": [
        {
          "internalType": "address",
          "name": "employeeAddress",
          "type": "address"
        }
      ],
      "name": "getLeaveApplications",
      "outputs": [
        {
          "components": [
            {
              "internalType": "uint256",
              "name": "id",
              "type": "uint256"
            },
            {
              "internalType": "uint256",
              "name": "date",
              "type": "uint256"
            },
            {
              "internalType": "bytes32",
              "name": "reason",
              "type": "bytes32"
            },
            {
              "internalType": "enum ClearLeth.leaveStatus",
              "name": "status",
              "type": "uint8"
            },
            {
              "internalType": "address",
              "name": "employee",
              "type": "address"
            }
          ],
          "internalType": "struct ClearLeth.leave[]",
          "name": "",
          "type": "tuple[]"
        }
      ],
      "stateMutability": "view",
      "type": "function"
    }
  ],
  "bytecode": "0x60806040526000600755600060085560006009556000600b553480156200002557600080fd5b5060405162002dca38038062002dca83398101604081905262000048916200023a565b60008054336001600160a01b0319918216811783556001805480820182559084527fb10e2d527612073b26eecdfd717e6a320cf44b4afac2b0732d9fcbe2b7fa0cf60180549092161790556008805491620000a38362000254565b90915550506040805160c0810182526005608082019081526427bbb732b960d91b60a083015281523360208083018290528351808501855260038152624e555360e81b818301528385015260016060840152600091825260048152929020815180519293849362000118928492019062000194565b506020828101516001830180546001600160a01b0319166001600160a01b039092169190911790556040830151805162000159926002850192019062000194565b50606082015160038201805460ff191660018360028111156200018057620001806200027e565b02179055505050600a9190915550620002d1565b828054620001a29062000294565b90600052602060002090601f016020900481019282620001c6576000855562000211565b82601f10620001e157805160ff191683800117855562000211565b8280016001018555821562000211579182015b8281111562000211578251825591602001919060010190620001f4565b506200021f92915062000223565b5090565b5b808211156200021f576000815560010162000224565b6000602082840312156200024d57600080fd5b5051919050565b60006000198214156200027757634e487b7160e01b600052601160045260246000fd5b5060010190565b634e487b7160e01b600052602160045260246000fd5b600181811c90821680620002a957607f821691505b60208210811415620002cb57634e487b7160e01b600052602260045260246000fd5b50919050565b612ae980620002e16000396000f3fe608060405234801561001057600080fd5b50600436106101a95760003560e01c8063ab244e1e116100f9578063d763940911610097578063e69852d011610071578063e69852d01461038d578063e9b37cc0146103ad578063edf53886146103c0578063fedf2c56146103e357600080fd5b8063d763940914610353578063dda89a6e1461037c578063e3366fed1461038557600080fd5b8063ce606ee0116100d3578063ce606ee01461030f578063d023d10f14610322578063d108177a1461032b578063d1ef4f631461033e57600080fd5b8063ab244e1e146102b1578063b8e8ac54146102dc578063bcdd8891146102ef57600080fd5b80636216f27a116101665780637675c14c116101405780637675c14c14610277578063832880e714610280578063839f48e8146102955780639f251f801461029e57600080fd5b80636216f27a1461023a578063687d9b9314610251578063724d57e41461026457600080fd5b806314c671d6146101ae5780631fbabfce146101cc5780633039f608146101e157806330a31e4e146101f457806360bf08671461020757806360c38dff14610227575b600080fd5b6101b66103eb565b6040516101c391906122eb565b60405180910390f35b6101df6101da36600461240b565b6104b6565b005b6101df6101ef366004612459565b610687565b6101df6102023660046124da565b610917565b61021a61021536600461254e565b610aaa565b6040516101c391906125cc565b6101df610235366004612459565b610b90565b61024360075481565b6040519081526020016101c3565b6101b661025f36600461254e565b610d45565b6101df61027236600461260e565b610dbb565b610243600a5481565b610288610e4f565b6040516101c39190612688565b61024360085481565b6101df6102ac36600461240b565b610fe2565b6102c46102bf3660046126f4565b611294565b6040516001600160a01b0390911681526020016101c3565b6101df6102ea366004612459565b6112cc565b6103026102fd36600461260e565b61166b565b6040516101c3919061271e565b6000546102c4906001600160a01b031681565b61024360095481565b6101df61033936600461254e565b6117bd565b336000908152600e6020526040902054610243565b6102c461036136600461254e565b6005602052600090815260409020546001600160a01b031681565b610243600b5481565b6101b6611afe565b6103a061039b36600461254e565b611bc3565b6040516101c39190612732565b6101df6103bb3660046127d4565b611c65565b6103d36103ce36600461254e565b611f70565b6040516101c3949392919061288d565b6101b66120ba565b6060600060085467ffffffffffffffff81111561040a5761040a612338565b604051908082528060200260200182016040528015610433578160200160208202803683370190505b50905060005b6008548110156104b05760018181548110610456576104566128da565b9060005260206000200160009054906101000a90046001600160a01b0316828281518110610486576104866128da565b6001600160a01b0390921660209283029190910190910152806104a881612906565b915050610439565b50919050565b6000546001600160a01b0316331461052c5760405162461bcd60e51b815260206004820152602e60248201527f4f6e6c792074686520636f6e7472616374206f776e65722063616e2063616c6c60448201526d103a3434b990333ab731ba34b7b760911b60648201526084015b60405180910390fd5b6001600160a01b03808216600090815260046020526040902060010154829116156105695760405162461bcd60e51b815260040161052390612921565b60038054600181019091557fc2575a0e9e593c00f959f8c92f12db2869c3395a3b0502d05e2516446f71f85b0180546001600160a01b0319166001600160a01b03841690811790915560408051608081018252858152336020808301919091528251808201845260008082528385019190915260026060840152938452600481529190922082518051849361060292849291019061217f565b506020828101516001830180546001600160a01b0319166001600160a01b0390921691909117905560408301518051610641926002850192019061217f565b50606082015160038201805460ff1916600183600281111561066557610665612570565b021790555050600980549150600061067c83612906565b919050555050505050565b8051600b5481106106cf5760405162461bcd60e51b8152602060048201526012602482015271139bdd0815985b1a59081319585d9948125960721b6044820152606401610523565b816000816060015160038111156106e8576106e8612570565b146107055760405162461bcd60e51b815260040161052390612958565b60808301516001600160a01b038082166000908152600560205260409020541633146107435760405162461bcd60e51b815260040161052390612986565b608084015160005b6001600160a01b0382166000908152600d60205260409020548110156108275785516001600160a01b0383166000908152600d60205260409020805483908110610797576107976128da565b9060005260206000209060040201600001541415610815576001600160a01b0382166000908152600d60205260409020805460039190839081106107dd576107dd6128da565b906000526020600020906004020160030160006101000a81548160ff0219169083600381111561080f5761080f612570565b02179055505b8061081f81612906565b91505061074b565b5060005b600c548110156108c2578551600c80548390811061084b5761084b6128da565b90600052602060002090600402016000015414156108b0576003600c8281548110610878576108786128da565b906000526020600020906004020160030160006101000a81548160ff021916908360038111156108aa576108aa612570565b02179055505b806108ba81612906565b91505061082b565b508451604080516001600160a01b0384168152336020820152908101919091527fcfedd8a6cf86a82ac7dd3f04b1e86f248df069f9f15810bf8a52dabc8c7a25af906060015b60405180910390a15050505050565b60013360009081526004602052604090206003015460ff16600281111561094057610940612570565b1461095d5760405162461bcd60e51b8152600401610523906129db565b6001600160a01b038082166000908152600460205260409020600101548291161561099a5760405162461bcd60e51b815260040161052390612921565b6001805480820182557fb10e2d527612073b26eecdfd717e6a320cf44b4afac2b0732d9fcbe2b7fa0cf60180546001600160a01b0319166001600160a01b038516908117909155604080516080810182528681526020808201849052818301899052606082019490945260009283526004845291208151805192938493610a24928492019061217f565b506020828101516001830180546001600160a01b0319166001600160a01b0390921691909117905560408301518051610a63926002850192019061217f565b50606082015160038201805460ff19166001836002811115610a8757610a87612570565b0217905550506008805491506000610a9e83612906565b91905055505050505050565b6001600160a01b0381166000908152600d60209081526040808320805482518185028101850190935280835260609492939192909184015b82821015610b8557838290600052602060002090600402016040518060a00160405290816000820154815260200160018201548152602001600282015481526020016003820160009054906101000a900460ff166003811115610b4757610b47612570565b6003811115610b5857610b58612570565b81526003919091015461010090046001600160a01b03166020918201529082526001929092019101610ae2565b505050509050919050565b80600081606001516003811115610ba957610ba9612570565b14610bc65760405162461bcd60e51b815260040161052390612958565b608082015182906001600160a01b03163314610c3f5760405162461bcd60e51b815260206004820152603260248201527f4f6e6c7920656d706c6f796565206f662074686973206c656176652063616e2060448201527131b0b636103a3434b990333ab731ba34b7b760711b6064820152608401610523565b60005b336000908152600d6020526040902054811015610d03578351336000908152600d60205260409020805483908110610c7c57610c7c6128da565b9060005260206000209060040201600001541415610cf157336000908152600d6020526040902080546001919083908110610cb957610cb96128da565b906000526020600020906004020160030160006101000a81548160ff02191690836003811115610ceb57610ceb612570565b02179055505b80610cfb81612906565b915050610c42565b5082516040805133815260208101929092527fb7ebc98aeb0d019f1d38bdecf34a056aa9be46ff8aed7cf80b640ff0073d6ac7910160405180910390a1505050565b6001600160a01b038116600090815260066020908152604091829020805483518184028101840190945280845260609392830182828015610daf57602002820191906000526020600020905b81546001600160a01b03168152600190910190602001808311610d91575b50505050509050919050565b60013360009081526004602052604090206003015460ff166002811115610de457610de4612570565b14610e015760405162461bcd60e51b8152600401610523906129db565b33600081815260106020908152604091829020849055815192835282018390527fc687ccbce0cc89ceb74a46d6867e5268d2bb596e3b2b08bf139879cfa6f14bdd910160405180910390a150565b610e57612203565b3360009081526004602052604090819020815160808101909252805482908290610e8090612a22565b80601f0160208091040260200160405190810160405280929190818152602001828054610eac90612a22565b8015610ef95780601f10610ece57610100808354040283529160200191610ef9565b820191906000526020600020905b815481529060010190602001808311610edc57829003601f168201915b505050918352505060018201546001600160a01b03166020820152600282018054604090920191610f2990612a22565b80601f0160208091040260200160405190810160405280929190818152602001828054610f5590612a22565b8015610fa25780601f10610f7757610100808354040283529160200191610fa2565b820191906000526020600020905b815481529060010190602001808311610f8557829003601f168201915b5050509183525050600382015460209091019060ff166002811115610fc957610fc9612570565b6002811115610fda57610fda612570565b905250919050565b60013360009081526004602052604090206003015460ff16600281111561100b5761100b612570565b146110285760405162461bcd60e51b8152600401610523906129db565b6001600160a01b03808216600090815260046020526040902060010154829116156110655760405162461bcd60e51b815260040161052390612921565b600280546001810182557f405787fa12a823e0f2b7631cc41b3ba8828b3321ca811111fa75cd3aa3bb5ace0180546001600160a01b0319166001600160a01b03851617905533600090815260046020526040812090910180546110c790612a22565b80601f01602080910402602001604051908101604052809291908181526020018280546110f390612a22565b80156111405780601f1061111557610100808354040283529160200191611140565b820191906000526020600020905b81548152906001019060200180831161112357829003601f168201915b5050505050905060006040518060800160405280868152602001336001600160a01b031681526020018381526020016000600281111561118257611182612570565b90526001600160a01b038516600090815260046020908152604090912082518051939450849391926111b99284929091019061217f565b506020828101516001830180546001600160a01b0319166001600160a01b03909216919091179055604083015180516111f8926002850192019061217f565b50606082015160038201805460ff1916600183600281111561121c5761121c612570565b02179055505033600081815260066020908152604080832080546001810182559084528284200180546001600160a01b038b166001600160a01b03199182168117909255908452600583528184208054909116909417909355600a54600e9091529181209190915560078054925090610a9e83612906565b600660205281600052604060002081815481106112b057600080fd5b6000918252602090912001546001600160a01b03169150829050565b8051600b5481106113145760405162461bcd60e51b8152602060048201526012602482015271139bdd0815985b1a59081319585d9948125960721b6044820152606401610523565b8160008160600151600381111561132d5761132d612570565b1461134a5760405162461bcd60e51b815260040161052390612958565b60808301516001600160a01b038082166000908152600560205260409020541633146113885760405162461bcd60e51b815260040161052390612986565b336000908152601060209081526040808320546011909252909120546113af906001612a57565b111561142f5760405162461bcd60e51b815260206004820152604360248201527f4c65617665204c696d697420666f7220656d706c6f7965722077696c6c20626560448201527f2065786365656465642069662074686973206c6561766520697320617070726f6064820152621d995960ea1b608482015260a401610523565b608084015160005b6001600160a01b0382166000908152600d60205260409020548110156115135785516001600160a01b0383166000908152600d60205260409020805483908110611483576114836128da565b9060005260206000209060040201600001541415611501576001600160a01b0382166000908152600d60205260409020805460029190839081106114c9576114c96128da565b906000526020600020906004020160030160006101000a81548160ff021916908360038111156114fb576114fb612570565b02179055505b8061150b81612906565b915050611437565b5060005b600c548110156115ae578551600c805483908110611537576115376128da565b906000526020600020906004020160000154141561159c576002600c8281548110611564576115646128da565b906000526020600020906004020160030160006101000a81548160ff0219169083600381111561159657611596612570565b02179055505b806115a681612906565b915050611517565b506020808601516000908152600f909152604081208054916115cf83612906565b90915550506001600160a01b0381166000908152600e602052604081208054916115f883612a6f565b909155505033600090815260116020526040812080546001929061161d908490612a57565b90915550508451604080516001600160a01b0384168152336020820152908101919091527fd77ba574eae3c58a23e6b228fae2d5390d3c715492024b607e5626321c5cc8ff90606001610908565b6040805160a0810182526000808252602082018190529181018290526060810182905260808101829052905b600c548110156117825782600c82815481106116b5576116b56128da565b906000526020600020906004020160000154141561177057600c81815481106116e0576116e06128da565b90600052602060002090600402016040518060a00160405290816000820154815260200160018201548152602001600282015481526020016003820160009054906101000a900460ff16600381111561173b5761173b612570565b600381111561174c5761174c612570565b81526003919091015461010090046001600160a01b03166020909101529392505050565b8061177a81612906565b915050611697565b5060405162461bcd60e51b815260206004820152600f60248201526e1319585d99481b9bdd08199bdd5b99608a1b6044820152606401610523565b6001600160a01b0380821660009081526005602052604090205482911633146117f85760405162461bcd60e51b815260040161052390612986565b60005b6002548110156118fd57826001600160a01b031660028281548110611822576118226128da565b6000918252602090912001546001600160a01b031614156118eb576002805461184d90600190612a86565b8154811061185d5761185d6128da565b600091825260209091200154600280546001600160a01b039092169183908110611889576118896128da565b9060005260206000200160006101000a8154816001600160a01b0302191690836001600160a01b0316021790555060028054806118c8576118c8612a9d565b600082815260209020810160001990810180546001600160a01b03191690550190555b806118f581612906565b9150506117fb565b5060005b33600090815260066020526040902054811015611a435733600090815260066020526040902080546001600160a01b038516919083908110611945576119456128da565b6000918252602090912001546001600160a01b03161415611a3157336000908152600660205260409020805461197d90600190612a86565b8154811061198d5761198d6128da565b60009182526020808320909101543383526006909152604090912080546001600160a01b0390921691839081106119c6576119c66128da565b600091825260208083209190910180546001600160a01b0319166001600160a01b039490941693909317909255338152600690915260409020805480611a0e57611a0e612a9d565b600082815260209020810160001990810180546001600160a01b03191690550190555b80611a3b81612906565b915050611901565b506001600160a01b038216600090815260046020526040812090611a678282612244565b6001820180546001600160a01b0319169055611a87600283016000612244565b50600301805460ff191690556001600160a01b038216600090815260056020908152604080832080546001600160a01b0319169055600d9091528120611acc91612281565b6001600160a01b0382166000908152600e602052604081208190556007805491611af583612a6f565b91905055505050565b6060600060075467ffffffffffffffff811115611b1d57611b1d612338565b604051908082528060200260200182016040528015611b46578160200160208202803683370190505b50905060005b6007548110156104b05760028181548110611b6957611b696128da565b9060005260206000200160009054906101000a90046001600160a01b0316828281518110611b9957611b996128da565b6001600160a01b039092166020928302919091019091015280611bbb81612906565b915050611b4c565b6001600160a01b0381166000908152600460205260409020805460609190611bea90612a22565b80601f0160208091040260200160405190810160405280929190818152602001828054611c1690612a22565b8015610daf5780601f10611c3857610100808354040283529160200191610daf565b820191906000526020600020905b815481529060010190602001808311611c465750939695505050505050565b3360009081526004602052604081206003015460ff166002811115611c8c57611c8c612570565b14611ce75760405162461bcd60e51b815260206004820152602560248201527f4f6e6c7920656d706c6f796565732063616e2063616c6c20746869732066756e60448201526431ba34b7b760d91b6064820152608401610523565b60005b8251811015611f385760006040518060a00160405280600b548152602001858481518110611d1a57611d1a6128da565b60200260200101518152602001848481518110611d3957611d396128da565b6020026020010151815260200160006003811115611d5957611d59612570565b815233602090910152600b80549192506000611d7483612906565b9091555050336000908152600d6020908152604080832080546001818101835591855293839020855160049095020193845591840151838301558301516002830155606083015160038084018054869594919260ff1990911691908490811115611de057611de0612570565b021790555060809190910151600391820180546001600160a01b0390921661010002610100600160a81b0319909216919091179055600c805460018181018355600092909252835160049091027fdf6966c971051c3d54ec59162606531493a51404a002842f56009d7e5cf4a8c7810191825560208501517fdf6966c971051c3d54ec59162606531493a51404a002842f56009d7e5cf4a8c882015560408501517fdf6966c971051c3d54ec59162606531493a51404a002842f56009d7e5cf4a8c982015560608501517fdf6966c971051c3d54ec59162606531493a51404a002842f56009d7e5cf4a8ca9091018054869593949293919260ff19909116918490811115611ef057611ef0612570565b021790555060809190910151600390910180546001600160a01b0390921661010002610100600160a81b03199092169190911790555080611f3081612906565b915050611cea565b506040513381527f7f7280556f364f817076fdba4458633238c3fa6f3199f7c96b08db689033e8f09060200160405180910390a15050565b600460205260009081526040902080548190611f8b90612a22565b80601f0160208091040260200160405190810160405280929190818152602001828054611fb790612a22565b80156120045780601f10611fd957610100808354040283529160200191612004565b820191906000526020600020905b815481529060010190602001808311611fe757829003601f168201915b505050600184015460028501805494956001600160a01b0390921694919350915061202e90612a22565b80601f016020809104026020016040519081016040528092919081815260200182805461205a90612a22565b80156120a75780601f1061207c576101008083540402835291602001916120a7565b820191906000526020600020905b81548152906001019060200180831161208a57829003601f168201915b5050506003909301549192505060ff1684565b6060600060095467ffffffffffffffff8111156120d9576120d9612338565b604051908082528060200260200182016040528015612102578160200160208202803683370190505b50905060005b6009548110156104b05760038181548110612125576121256128da565b9060005260206000200160009054906101000a90046001600160a01b0316828281518110612155576121556128da565b6001600160a01b03909216602092830291909101909101528061217781612906565b915050612108565b82805461218b90612a22565b90600052602060002090601f0160209004810192826121ad57600085556121f3565b82601f106121c657805160ff19168380011785556121f3565b828001600101855582156121f3579182015b828111156121f35782518255916020019190600101906121d8565b506121ff9291506122a2565b5090565b60405180608001604052806060815260200160006001600160a01b03168152602001606081526020016000600281111561223f5761223f612570565b905290565b50805461225090612a22565b6000825580601f10612260575050565b601f01602090049060005260206000209081019061227e91906122a2565b50565b508054600082556004029060005260206000209081019061227e91906122b7565b5b808211156121ff57600081556001016122a3565b5b808211156121ff5760008082556001820181905560028201556003810180546001600160a81b03191690556004016122b8565b6020808252825182820181905260009190848201906040850190845b8181101561232c5783516001600160a01b031683529284019291840191600101612307565b50909695505050505050565b634e487b7160e01b600052604160045260246000fd5b604051601f8201601f1916810167ffffffffffffffff8111828210171561237757612377612338565b604052919050565b600082601f83011261239057600080fd5b813567ffffffffffffffff8111156123aa576123aa612338565b6123bd601f8201601f191660200161234e565b8181528460208386010111156123d257600080fd5b816020850160208301376000918101602001919091529392505050565b80356001600160a01b038116811461240657600080fd5b919050565b6000806040838503121561241e57600080fd5b823567ffffffffffffffff81111561243557600080fd5b6124418582860161237f565b925050612450602084016123ef565b90509250929050565b600060a0828403121561246b57600080fd5b60405160a0810181811067ffffffffffffffff8211171561248e5761248e612338565b80604052508235815260208301356020820152604083013560408201526060830135600481106124bd57600080fd5b60608201526124ce608084016123ef565b60808201529392505050565b6000806000606084860312156124ef57600080fd5b833567ffffffffffffffff8082111561250757600080fd5b6125138783880161237f565b9450602086013591508082111561252957600080fd5b506125368682870161237f565b925050612545604085016123ef565b90509250925092565b60006020828403121561256057600080fd5b612569826123ef565b9392505050565b634e487b7160e01b600052602160045260246000fd5b8051825260208101516020830152604081015160408301526060810151600481106125b3576125b3612570565b60608301526080908101516001600160a01b0316910152565b6020808252825182820181905260009190848201906040850190845b8181101561232c576125fb838551612586565b9284019260a092909201916001016125e8565b60006020828403121561262057600080fd5b5035919050565b6000815180845260005b8181101561264d57602081850181015186830182015201612631565b8181111561265f576000602083870101525b50601f01601f19169290920160200192915050565b6003811061268457612684612570565b9052565b6020815260008251608060208401526126a460a0840182612627565b60208501516001600160a01b0316604085810191909152850151848203601f190160608601529091506126d78282612627565b91505060608401516126ec6080850182612674565b509392505050565b6000806040838503121561270757600080fd5b612710836123ef565b946020939093013593505050565b60a0810161272c8284612586565b92915050565b6020815260006125696020830184612627565b600067ffffffffffffffff82111561275f5761275f612338565b5060051b60200190565b600082601f83011261277a57600080fd5b8135602061278f61278a83612745565b61234e565b82815260059290921b840181019181810190868411156127ae57600080fd5b8286015b848110156127c957803583529183019183016127b2565b509695505050505050565b600080604083850312156127e757600080fd5b823567ffffffffffffffff808211156127ff57600080fd5b818501915085601f83011261281357600080fd5b8135602061282361278a83612745565b82815260059290921b8401810191818101908984111561284257600080fd5b948201945b8386101561286057853582529482019490820190612847565b9650508601359250508082111561287657600080fd5b5061288385828601612769565b9150509250929050565b6080815260006128a06080830187612627565b6001600160a01b038616602084015282810360408401526128c18186612627565b9150506128d16060830184612674565b95945050505050565b634e487b7160e01b600052603260045260246000fd5b634e487b7160e01b600052601160045260246000fd5b600060001982141561291a5761291a6128f0565b5060010190565b6020808252601c908201527f557365722068617320616c7265616479206265656e2061646465642100000000604082015260600190565b6020808252601490820152734c65617665206973206e6f742070656e64696e6760601b604082015260600190565b60208082526035908201527f4f6e6c7920656d706c6f796572206f66207468697320656d706c6f796565206360408201527430b71031b0b636103a3434b990333ab731ba34b7b760591b606082015260800190565b60208082526027908201527f4f6e6c7920616e20656d706c6f7965722063616e2063616c6c207468697320666040820152663ab731ba34b7b760c91b606082015260800190565b600181811c90821680612a3657607f821691505b602082108114156104b057634e487b7160e01b600052602260045260246000fd5b60008219821115612a6a57612a6a6128f0565b500190565b600081612a7e57612a7e6128f0565b506000190190565b600082821015612a9857612a986128f0565b500390565b634e487b7160e01b600052603160045260246000fdfea26469706673582212208679507ac5c9f57b1aa1f4b721f79174766c2957f36ab1058d3fbf12e4efcdc864736f6c634300080b0033",
  "immutableReferences": {},
  "source": "// SPDX-License-Identifier: MIT\r\npragma solidity >=0.4.22 <0.9.0;\r\n\r\ncontract ClearLeth {\r\n    ///////////////////// USERS ATTRIBUTES /////////////////////\r\n    address public contractOwner;\r\n\r\n    address[] employers;\r\n    address[] employees;\r\n    address[] authorities;\r\n\r\n    mapping(address => user) public addressToUser;\r\n\r\n    mapping(address => address) public employeeToEmployer;\r\n    mapping(address => address[]) public employerToEmployee;\r\n\r\n    uint256 public numOfEmployees = 0;\r\n    uint256 public numOfEmployers = 0;\r\n    uint256 public numOfAuthorities = 0;\r\n\r\n    enum role {\r\n        employee,\r\n        employer,\r\n        authority\r\n    }\r\n\r\n    struct user {\r\n        string name;\r\n        address wallet;\r\n        string company;\r\n        role role;\r\n    }\r\n\r\n    ///////////////////// LEAVE ATTRIBUTES /////////////////////\r\n    struct leave {\r\n        uint256 id;\r\n        uint256 date; // unix timestamp\r\n        bytes32 reason;\r\n        leaveStatus status;\r\n        address employee;\r\n    }\r\n\r\n    enum leaveStatus {\r\n        pending,\r\n        cancelled,\r\n        approved,\r\n        rejected\r\n    }\r\n\r\n    uint256 public leaveAmount;\r\n    uint256 public numLeaves = 0;\r\n    leave[] allLeaves;\r\n\r\n    mapping(address => leave[]) employeeToLeaves;\r\n    mapping(address => uint256) employeeLeaveBalance;\r\n    mapping(uint256 => uint256) datesToEmployeesApplied;\r\n    mapping(address => uint256) employerToLeaveLimit;\r\n    mapping(address => uint256) employerToLeaveNum;\r\n\r\n    ///////////////////// LEAVE EVENTS /////////////////////\r\n    event LeaveApplied(address employee);\r\n    event LeaveApproved(address employee, address employer, uint256 leaveId);\r\n    event LeaveCancelled(address employee, uint256 leaveId);\r\n    event LeaveRejected(address employee, address employer, uint256 leaveId);\r\n    event LeaveLimitSet(address employer, uint256 limit);\r\n\r\n    // Owner of contract will be able to add employers and is an employer\r\n    // leaveAmount is also set when deployed\r\n    constructor(uint256 _leaveAmount) {\r\n        contractOwner = msg.sender;\r\n        employers.push(msg.sender);\r\n        numOfEmployers++;\r\n\r\n        // new user object\r\n        user memory newUser = user(\"Owner\", msg.sender, \"NUS\", role.employer);\r\n\r\n        addressToUser[msg.sender] = newUser;\r\n        leaveAmount = _leaveAmount;\r\n    }\r\n\r\n    ///////////////////// MODIFIERS /////////////////////\r\n    modifier isOwner() {\r\n        require(\r\n            contractOwner == msg.sender,\r\n            \"Only the contract owner can call this function\"\r\n        );\r\n        _;\r\n    }\r\n\r\n    modifier isEmployer() {\r\n        require(\r\n            addressToUser[msg.sender].role == role.employer,\r\n            \"Only an employer can call this function\"\r\n        );\r\n        _;\r\n    }\r\n\r\n    modifier isEmployee() {\r\n        require(\r\n            addressToUser[msg.sender].role == role.employee,\r\n            \"Only employees can call this function\"\r\n        );\r\n        _;\r\n    }\r\n\r\n    modifier isAuthority() {\r\n        require(\r\n            addressToUser[msg.sender].role == role.authority,\r\n            \"Only authorities can call this function\"\r\n        );\r\n        _;\r\n    }\r\n\r\n    modifier employerOnly(address employeeAddress) {\r\n        require(\r\n            employeeToEmployer[employeeAddress] == msg.sender,\r\n            \"Only employer of this employee can call this function\"\r\n        );\r\n        _;\r\n    }\r\n\r\n    // Check if user has been added\r\n    modifier notAdded(address _employerAddress) {\r\n        require(\r\n            addressToUser[_employerAddress].wallet == address(0),\r\n            \"User has already been added!\"\r\n        );\r\n        _;\r\n    }\r\n\r\n    modifier validLeaveId(uint256 leaveId) {\r\n        require(leaveId < numLeaves, \"Not Valid Leave Id\");\r\n        _;\r\n    }\r\n\r\n    modifier validLeaveStatus(leave memory leaveApplication) {\r\n        require(\r\n            leaveApplication.status == leaveStatus.pending,\r\n            \"Leave is not pending\"\r\n        );\r\n        _;\r\n    }\r\n\r\n    modifier isEmployeeOfLeave(leave memory _leave) {\r\n        require(\r\n            _leave.employee == msg.sender,\r\n            \"Only employee of this leave can call this function\"\r\n        );\r\n        _;\r\n    }\r\n\r\n    modifier leaveLimitNotExceeded() {\r\n        require(\r\n            employerToLeaveNum[msg.sender] + 1 <=\r\n                employerToLeaveLimit[msg.sender],\r\n            \"Leave Limit for employer will be exceeded if this leave is approved\"\r\n        );\r\n        _;\r\n    }\r\n\r\n    ///////////////////// USER FUNCTIONS /////////////////////\r\n    function addEmployer(\r\n        string memory _company,\r\n        string memory _employerName,\r\n        address _employerAddress\r\n    ) public isEmployer notAdded(_employerAddress) {\r\n        employers.push(_employerAddress);\r\n\r\n        // new user object\r\n        user memory newUser = user(\r\n            _employerName,\r\n            _employerAddress,\r\n            _company,\r\n            role.employer\r\n        );\r\n\r\n        addressToUser[_employerAddress] = newUser;\r\n        numOfEmployers++;\r\n    }\r\n\r\n    function addEmployee(string memory _employeeName, address _employeeAddress)\r\n        public\r\n        isEmployer\r\n        notAdded(_employeeAddress)\r\n    {\r\n        employees.push(_employeeAddress);\r\n\r\n        // new user object\r\n        string memory company = addressToUser[msg.sender].company;\r\n        user memory newUser = user(\r\n            _employeeName,\r\n            msg.sender,\r\n            company,\r\n            role.employee\r\n        );\r\n\r\n        addressToUser[_employeeAddress] = newUser;\r\n        employerToEmployee[msg.sender].push(_employeeAddress);\r\n        employeeToEmployer[_employeeAddress] = msg.sender;\r\n        employeeLeaveBalance[_employeeAddress] = leaveAmount;\r\n        numOfEmployees++;\r\n    }\r\n\r\n    function addAuthority(\r\n        string memory _authorityName,\r\n        address _authorityAddress\r\n    ) public isOwner notAdded(_authorityAddress) {\r\n        authorities.push(_authorityAddress);\r\n\r\n        // new user object\r\n        user memory newUser = user(\r\n            _authorityName,\r\n            msg.sender,\r\n            \"\",\r\n            role.authority\r\n        );\r\n\r\n        addressToUser[_authorityAddress] = newUser;\r\n        numOfAuthorities++;\r\n    }\r\n\r\n    function removeEmployee(address _employeeAddress)\r\n        public\r\n        employerOnly(_employeeAddress)\r\n    {\r\n        for (uint256 i = 0; i < employees.length; i++) {\r\n            if (employees[i] == _employeeAddress) {\r\n                employees[i] = employees[employees.length - 1];\r\n                employees.pop();\r\n            }\r\n        }\r\n\r\n        for (uint256 j = 0; j < employerToEmployee[msg.sender].length; j++) {\r\n            if (employerToEmployee[msg.sender][j] == _employeeAddress) {\r\n                employerToEmployee[msg.sender][j] = employerToEmployee[\r\n                    msg.sender\r\n                ][employerToEmployee[msg.sender].length - 1];\r\n                employerToEmployee[msg.sender].pop();\r\n            }\r\n        }\r\n\r\n        delete addressToUser[_employeeAddress];\r\n        delete employeeToEmployer[_employeeAddress];\r\n        delete employeeToLeaves[_employeeAddress];\r\n        delete employeeLeaveBalance[_employeeAddress];\r\n        numOfEmployees--;\r\n    }\r\n\r\n    ///////////////////// LEAVE FUNCTIONS /////////////////////\r\n    function applyLeaves(uint256[] memory dates, bytes32[] memory reason)\r\n        public\r\n        isEmployee\r\n    {\r\n        for (uint256 i = 0; i < dates.length; i++) {\r\n            leave memory newLeave = leave(\r\n                numLeaves,\r\n                dates[i],\r\n                reason[i],\r\n                leaveStatus.pending,\r\n                msg.sender\r\n            );\r\n\r\n            numLeaves++;\r\n            employeeToLeaves[msg.sender].push(newLeave);\r\n            allLeaves.push(newLeave);\r\n        }\r\n\r\n        emit LeaveApplied(msg.sender);\r\n    }\r\n\r\n    function cancelLeave(leave memory _leave)\r\n        public\r\n        validLeaveStatus(_leave)\r\n        isEmployeeOfLeave(_leave)\r\n    {\r\n        for (uint256 i = 0; i < employeeToLeaves[msg.sender].length; i++) {\r\n            if (employeeToLeaves[msg.sender][i].id == _leave.id) {\r\n                employeeToLeaves[msg.sender][i].status = leaveStatus.cancelled;\r\n            }\r\n        }\r\n        emit LeaveCancelled(msg.sender, _leave.id);\r\n    }\r\n\r\n    function approveLeave(leave memory leaveToApprove)\r\n        public\r\n        validLeaveId(leaveToApprove.id)\r\n        validLeaveStatus(leaveToApprove)\r\n        employerOnly(leaveToApprove.employee)\r\n        leaveLimitNotExceeded\r\n    {\r\n        address employeeAddress = leaveToApprove.employee;\r\n        for (uint256 i = 0; i < employeeToLeaves[employeeAddress].length; i++) {\r\n            if (employeeToLeaves[employeeAddress][i].id == leaveToApprove.id) {\r\n                employeeToLeaves[employeeAddress][i].status = leaveStatus\r\n                    .approved;\r\n            }\r\n        }\r\n\r\n        for (uint256 j = 0; j < allLeaves.length; j++) {\r\n            if (allLeaves[j].id == leaveToApprove.id) {\r\n                allLeaves[j].status = leaveStatus.approved;\r\n            }\r\n        }\r\n\r\n        datesToEmployeesApplied[leaveToApprove.date]++;\r\n        employeeLeaveBalance[employeeAddress]--;\r\n        employerToLeaveNum[msg.sender] += 1;\r\n        emit LeaveApproved(employeeAddress, msg.sender, leaveToApprove.id);\r\n    }\r\n\r\n    function rejectLeave(leave memory leaveToReject)\r\n        public\r\n        validLeaveId(leaveToReject.id)\r\n        validLeaveStatus(leaveToReject)\r\n        employerOnly(leaveToReject.employee)\r\n    {\r\n        address employeeAddress = leaveToReject.employee;\r\n        for (uint256 i = 0; i < employeeToLeaves[employeeAddress].length; i++) {\r\n            if (employeeToLeaves[employeeAddress][i].id == leaveToReject.id) {\r\n                employeeToLeaves[employeeAddress][i].status = leaveStatus\r\n                    .rejected;\r\n            }\r\n        }\r\n\r\n        for (uint256 j = 0; j < allLeaves.length; j++) {\r\n            if (allLeaves[j].id == leaveToReject.id) {\r\n                allLeaves[j].status = leaveStatus.rejected;\r\n            }\r\n        }\r\n        emit LeaveRejected(employeeAddress, msg.sender, leaveToReject.id);\r\n    }\r\n\r\n    function setLeaveLimit(uint256 _limit) public isEmployer {\r\n        employerToLeaveLimit[msg.sender] = _limit;\r\n        emit LeaveLimitSet(msg.sender, _limit);\r\n    }\r\n\r\n    ///////////////////// USER GETTERS /////////////////////\r\n    function getUser() public view returns (user memory) {\r\n        return addressToUser[msg.sender];\r\n    }\r\n\r\n    function getUserNameOf(address _userAddress)\r\n        public\r\n        view\r\n        returns (string memory)\r\n    {\r\n        return addressToUser[_userAddress].name;\r\n    }\r\n\r\n    function getAllEmployees() public view returns (address[] memory) {\r\n        address[] memory employeeArray = new address[](numOfEmployees);\r\n        for (uint256 i = 0; i < numOfEmployees; i++) {\r\n            employeeArray[i] = employees[i];\r\n        }\r\n\r\n        return employeeArray;\r\n    }\r\n\r\n    function getAllEmployers() public view returns (address[] memory) {\r\n        address[] memory employerArray = new address[](numOfEmployers);\r\n        for (uint256 i = 0; i < numOfEmployers; i++) {\r\n            employerArray[i] = employers[i];\r\n        }\r\n\r\n        return employerArray;\r\n    }\r\n\r\n    function getAllAuthorities() public view returns (address[] memory) {\r\n        address[] memory authoritiesArray = new address[](numOfAuthorities);\r\n        for (uint256 i = 0; i < numOfAuthorities; i++) {\r\n            authoritiesArray[i] = authorities[i];\r\n        }\r\n        return authoritiesArray;\r\n    }\r\n\r\n    function getEmployeesByEmployer(address _employerAddress)\r\n        public\r\n        view\r\n        returns (address[] memory)\r\n    {\r\n        return employerToEmployee[_employerAddress];\r\n    }\r\n\r\n    ///////////////////// LEAVE GETTERS /////////////////////\r\n    function getLeaveBalance() public view returns (uint256) {\r\n        return employeeLeaveBalance[msg.sender];\r\n    }\r\n\r\n    function getLeaveInformation(uint256 leaveId)\r\n        public\r\n        view\r\n        returns (leave memory)\r\n    {\r\n        for (uint256 i = 0; i < allLeaves.length; i++) {\r\n            if (allLeaves[i].id == leaveId) {\r\n                return allLeaves[i];\r\n            }\r\n        }\r\n        revert(\"Leave not found\");\r\n    }\r\n\r\n    function getLeaveApplications(address employeeAddress)\r\n        public\r\n        view\r\n        returns (leave[] memory)\r\n    {\r\n        return employeeToLeaves[employeeAddress];\r\n    }\r\n}\r\n",
  "sourcePath": "E:\\Github\\IS4302-project\\contracts\\ClearLeth.sol",
  "compiler": {
    "name": "solc",
    "version": "0.8.11+commit.d7f03943.Emscripten.clang"
  },
  "schemaVersion": "3.4.4",
  "updatedAt": "2022-04-13T09:17:13.485Z",
  "devdoc": {
    "kind": "dev",
    "methods": {},
    "version": 1
  },
  "userdoc": {
    "kind": "user",
    "methods": {},
    "version": 1
  }
}